:100000005CC4000092C4000090C400008EC40000D4
:100010008CC400008AC4000088C4000086C40000AC
:1000200084C4000082C400000C94E7270C94CF28FD
:100030000C9424127AC4000078C4000076C4000036
:1000400074C400000C941E1270C400006EC4000042
:100050006CC400000C94C32768C4000066C4000090
:1000600064C4000062C4000060C400005EC40000FC
:100070005CC400005AC4000058C4000056C400000C
:1000800054C4000052C4000050C400004EC400001C
:100090004CC400004AC4000048C4000046C400002C
:1000A00044C4000042C4000040C4000000AF00AEE1
:1000B00007087F0807003E5B4F5B3E003E6B4F6BBF
:1000C0003E001C3E7C3E1C00183C7E3C18001C5729
:1000D0007D571C001C5E7F5E1C0000183C18000051
:1000E000FFE7C3E7FF00001824180000FFE7DBE785
:1000F000FF0030483A060E00262979292600407F65
:1001000005050700407F05253F005A3CE73C5A00A3
:100110007F3E1C1C0800081C1C3E7F0014227F220E
:1001200014005F5F005F5F0006097F017F000066CB
:1001300089956A0060606060600094A2FFA29400EC
:1001400008047E04080010207E20100008082A1CE5
:100150000800081C2A0808001E10101010000C1EB1
:100160000C1E0C0030383E383000060E3E0E0600E5
:1001700000000000000000005F0000000007000712
:100180000000147F147F1400242A7F2A12002313F6
:10019000086462003649562050000008070300003A
:1001A000001C224100000041221C00002A1C7F1C70
:1001B0002A0008083E080800008070300000080887
:1001C0000808080000006060000020100804020019
:1001D0003E5149453E0000427F4000007249494976
:1001E00046002141494D33001814127F1000274565
:1001F000454539003C4A4949310041211109070070
:10020000364949493600464949291E000000140074
:1002100000000040340000000008142241001414C3
:1002200014141400004122140800020159090600A8
:100230003E415D594E007C1211127C007F494949B4
:1002400036003E41414122007F4141413E007F490D
:10025000494941007F09090901003E4141517300AC
:100260007F0808087F0000417F4100002040413F97
:1002700001007F08142241007F40404040007F027F
:100280001C027F007F0408107F003E4141413E0078
:100290007F09090906003E4151215E007F091929A5
:1002A000460026494949320003017F0103003F40CF
:1002B00040403F001F2040201F003F4038403F008B
:1002C0006314081463000304780403006159494D62
:1002D0004300007F4141410002040810200000411A
:1002E00041417F00040201020400404040404000C0
:1002F0000003070800002054547840007F2844443D
:100300003800384444442800384444287F00385496
:100310005454180000087E09020018A4A49C780018
:100320007F080404780000447D4000002040403DE8
:1003300000007F102844000000417F4000007C0442
:10034000780478007C080404780038444444380079
:10035000FC182424180018242418FC007C08040429
:10036000080048545454240004043F4424003C40F2
:1003700040207C001C2040201C003C4030403C00C1
:100380004428102844004C9090907C004464544CC5
:1003900044000008364100000000770000000041E2
:1003A000360800000201020402003C2623263C001D
:1003B000000000000000404040F0F8F8FF38FFF86F
:1003C000F83FF8F8FF38FFF8F8F040404000000030
:1003D00000000080C0C0C0800000C0C080000000DD
:1003E00080C0C000C0C0000080C0C000000000008D
:1003F000C0C0C0C0C000C0C00000000000000000BD
:1004000000000000000000000000000000000000EC
:1004100000000000000000000000000000000000DC
:10042000000000000000000000000000000000C00C
:10043000F0F8FC3E1E06010000007F4141417F00B4
:100440007F4141417F000080C0E07E5B4F5BFEC08A
:100450000000C000DCD7DEDEDED7DC00C00000001C
:10046000000000000000000000000000000000008C
:10047000000000000000494949FFFFFFFFE0DFBF27
:10048000BF00BFBFDFE0FFFFFFFF49494900000099
:1004900000001F3F6060E0BF1F007F7F071E381E07
:1004A000077F7F007F7F0E1F3B7160000000000010
:1004B0007F7F0C0C0C007E7E007F7E0303007F7E1E
:1004C00003037E7E03037F7E000F3E703C063C707C
:1004D0003E0F00327B49493F7E007F7E0303001EB2
:1004E0003F69696F26000000000000000000000363
:1004F0000F1F3F3C7870600000007F4141417F004A
:100500007F4141417F00307B7F7830202030787FF1
:100510003B0003000F7F0F0F0F7F0F000300000051
:1005200000000000000000000000000000000000CB
:10053000000000000000010101070F0F7F0F7F0F77
:100540000F7E0F0F7F0F7F0F0F07010101000000CB
:100550000000000000000001010000000000000099
:10056000000000000000000000000000000000008B
:10057000000000000000000000000000000000007B
:10058000000000000000000000000000000000006B
:10059000000000000000000000000000000000005B
:1005A000000000000000000000000000000000004B
:1005B000000000000000000000000000000000003B
:1005C000000000000000000000000000000000002B
:1005D000000000000000000000000000000000001B
:1005E000000000000000000000000000000000000B
:1005F00005010902A10185020901A10005091901EE
:1006000029081500250195087501810205010930A9
:1006100009311581257F95027508810609381581F4
:10062000257F950175088106050C0A38021581257C
:100630007F950175088106C0C005010980A101856B
:100640000319012AB700150126B70095017510811D
:1006500000C0050C0901A101850419012AA0021599
:100660000126A002950175108100C005010906A1AF
:1006700001050719E029E715002501950875018195
:10068000029501750881010507190029FF1500264B
:10069000FF00950675088100050819012905150058
:1006A0002501950575019102950175039101C00918
:1006B000023B00020100A0FA09040000010301014D
:1006C00000092111010001224400070581030800EF
:1006D00001090401000103000000092111010001CA
:1006E000227B0007058203200001120100020000A6
:1006F0000008574B02330002010200010A036200A6
:100700006500610072000000220354007200610065
:100710006E00200048006F0061006E00670020003E
:100720004700690061006E006700000004030904CF
:100730000A3C33204245415250415443482E4E45D5
:1007400054203C3300436F756E743A20004F464688
:100750000A004F4E0A0053706163653A20000A0098
:1007600042504D3A20000001010101010101010147
:100770000202020202020202020303030303030352
:10078000030404040404040405050505050606061F
:100790000606070707070708080808090909090ADC
:1007A0000A0A0B0B0B0C0C0C0D0D0D0E0E0E0F0F81
:1007B0000F1010111111121213131414151516160F
:1007C0001717181819191A1A1B1B1C1D1D1E1E1F7E
:1007D0002020212222232424252626272829292ACD
:1007E0002B2C2D2D2E2F30313232333435363738F5
:1007F000393A3B3C3D3E3F404142434445464748F1
:10080000494A4C4D4E4F50515354555658595A5BC6
:100810005D5E5F616264656668696B6C6D6F707266
:10082000737577787A7B7D7E8082838587888A8CD2
:100830008E8F91939596989A9C9EA0A2A3A5A7A906
:10084000ABADAFB1B3B5B7BABCBEC0C2C4C6C9CBFD
:10085000CDCFD1D4D6D8DBDDDFE2E4E7E9EBEEF0B3
:10086000F3F5F8FAFDFF00DA0281FFD9F1DB20A4ED
:10087000A62EAF00A0C0D30000A1C8D30000AED503
:1008800080A81F408D14200000000000417E000061
:1008900000002C005200407E00000000500051007B
:1008A0004F000000000000000000000000000000F9
:1008B0000000000000000000000011241FBECFEF68
:1008C000DAE0DEBFCDBF04B603FE18C08091D605C6
:1008D0009091D705A091D805B091D9058730904B5C
:1008E000A740B04B59F41092D6051092D70510923C
:1008F000D8051092D905E0E0F8E3099512E0A0E0F0
:10090000B1E0E8EBF1E602C005900D92A631B10727
:10091000D9F725E0A6E1B2E001C01D92A63DB207DD
:10092000E1F70E9420220C9466306ACB4F925F92CE
:100930006F927F928F929F92AF92BF92CF92DF92EF
:10094000EF92FF92CF93DF9300D000D0CDB7DEB708
:10095000F894109280001092810010928200109200
:1009600085001092840020918100286020938100EE
:100970000E944D2F20E034E244E75BE469837A83F0
:100980008B839C8369817A818B819C810E94033057
:1009900020E034E244E75EE42B013C01C301B201F4
:1009A0000E94B42E4B015C01C501B4010E94212FAD
:1009B0006B017C01C092D205D092D305E092D405A0
:1009C000F092D5058091D2059091D305A091D405E0
:1009D000B091D5050097A140B10560F08FEF9FEF72
:1009E000A0E0B0E08093D2059093D305A093D40506
:1009F000B093D5058091D2059091D305A091D405EF
:100A0000B091D505909389008093880080916F0004
:100A1000826080936F0078940F900F900F900F90EA
:100A2000DF91CF91FF90EF90DF90CF90BF90AF908C
:100A30009F908F907F906F905F904F900895E1E826
:100A4000F0E08081856080831092850010928400A0
:100A50001092CE051092CF051092D0051092D105BC
:100A600081E08093CD05089590938305809382055E
:100A700008959093850580938405089521E030E0E2
:100A800002C0220F331F8A95E2F78091840590916E
:100A90008505822B932BEDCF21E030E002C0220FA1
:100AA000331F8A95E2F720953095809184059091C7
:100AB000850582239323DDCF953090F5853080F531
:100AC000E82FF0E085E0989FE00DF11D11248E2FB6
:100AD000877041E001C0440F8A95EAF783E0F695FC
:100AE000E7958A95E1F7EE0FFF1FEE0FFF1FEE5916
:100AF000FA4F20E030E070E05191DF01CB01022E8F
:100B000002C0969587950A94E2F7817081958527B2
:100B1000842385278E932F5F3F4F2430310561F763
:100B20000895953078F5853068F5E82FF0E085E098
:100B3000989FE00DF11D11249E2F977083E0F6958C
:100B4000E7958A95E1F7EE0FFF1FEE0FFF1FEE59B5
:100B5000FA4F40E050E080E0219130E0092E02C0E1
:100B6000369527950A94E2F721703327042E01C0A9
:100B7000220F0A94EAF7822B4F5F5F4F44305105F2
:100B800059F7089580E0089580918B0590918A052A
:100B9000981301C008958F5F8770FACF90918605F2
:100BA0008095892380938605282F277021110CC0FA
:100BB000891751F09091880592FF06C08695869519
:100BC00086956ADF109286050895982F90958091FA
:100BD0007F05892380937F050895753090F46530F3
:100BE00080F4811111C0E62FF0E085E0789FE00DE0
:100BF000F11D1124EE0FFF1FE857F74F85919491D7
:100C0000089580E090E0089581E0FCCF9C01803E53
:100C1000910509F448C0D8F48133910509F47DC0E9
:100C200048F48932910509F46DC08A9709F47CC0B3
:100C3000C90108958933910551F18238910539F13F
:100C4000C597B1F78091870585FFF2CF29C0843E13
:100C5000910509F447C048F4823E910599F1833E1D
:100C60009105A9F121EE30E0E3CF863E910509F42C
:100C700044C0873E9105E1F68091870583FD61C000
:100C80009091880591FF2BC024EE30E0D1CF809168
:100C900087058370811152C08091880583FFC8CF7A
:100CA00029E230E0C5CF8091870580FD33C0909167
:100CB000880590FFBDCF23EE30E084FFB9CF20E060
:100CC00030E0B6CF8091870582FDF5CFB1CF80911E
:100CD000870582FD30C09091880590FD2FC084FF6C
:100CE000A7CFEDCF8091880581FFA2CF80918705A6
:100CF00027EE30E084FDE3CF9BCF8091870583FD15
:100D0000F7CF96CF8091870585FD1EC0809188051D
:100D100083FF8ECF29E330E08BCF8091870586FF5C
:100D200087CF2AE230E084CF8091870586FF80CF8D
:100D300021E330E07DCF22EE30E07ACF20EE30E0CC
:100D400077CF26EE30E074CF25E330E071CF90917D
:100D5000870592FF10C041E0282F2471243009F04C
:100D600040E031E0282F2871283009F030E04317A7
:100D700011F02CE0822793FF10C041E0282F24714E
:100D8000243109F040E031E0282F2871283109F0A2
:100D900030E0431711F02CE082273091880530FFB6
:100DA00010C051E0282F2171213009F050E041E0BE
:100DB000282F2871283009F040E0541711F029E05D
:100DC000822731FF10C041E0282F2171213109F025
:100DD00040E031E0282F2871283109F030E0431736
:100DE00011F029E0822794FD877E08951F93CF9309
:100DF000DF930CDFEC01811522E5920708F052C069
:100E0000811540E5940708F0CDC0803E910520F59E
:100E10008D3C910508F0A1C0883A910570F4853A9F
:100E2000910508F097C081309105B9F10497813A96
:100E3000910598F1C0E0D0E030C0885A91094B97F5
:100E4000C8F7C85AD0E0CC0FDD1FC655DE4F099059
:100E5000D881C02DD46421C0811550E49507B0F429
:100E6000C11580E2D80708F0B3C0C83ED105A8F08C
:100E7000CE019A9581159F41E8F68D2F68DF182FD6
:100E8000CE019927C3DEEC01D12B07C09927BEDE26
:100E9000CC27DF70C82BD92BD06ACE01DF91CF9140
:100EA0001F910895803842E59407C8F5803652E5D1
:100EB000950708F05BC0C03482E5D807D0F4C03293
:100EC00092E5D90708F04BC08C2F8695869520E2D5
:100ED000829FC0011124C37021E030E0A90102C04B
:100EE000440F551FCA95E2F7EA01C82BD92BDD68DC
:100EF000D4CF8C2F86958695877050E2859FC00150
:100F00001124C37021E030E0A90102C0440F551F35
:100F1000CA95E2F7EA01C82BD92BDC68BECF803C2A
:100F200052E5950758F48F71C03AD245A0F590E08C
:100F3000982F8827EC01C46FD06AAFCF805C9245B0
:100F4000809708F077CFDC2FCC27CC27DF71C06FDC
:100F5000D06AA3CFA497D064A0CFD0659ECFCF7125
:100F6000D0E0DC2FCC27C16FD06A97CF86958695CD
:100F7000877020E2829FC0011124C37021E030E01D
:100F8000A90102C0440F551FCA95E2F7EA01C82B18
:100F9000D92BDA6882CFDBDEC82FD0E0DC2FCC275C
:100FA000D0627BCF8F71D3DE93E0CC0FDD1F9A959B
:100FB000E1F7CC27DF70282F30E084FF05C050E137
:100FC000859F900111243327C22BD32BD06965CF85
:100FD0008D2F8F71BCDE182FCE01992717DEEC0103
:100FE000D12BDECFA0E0B0E0E8EFF7E00C949D2A33
:100FF0008C01E0908405F0908505809182059091A8
:101000008305E82AF92ACFE0D0E0CC24C394D12C80
:10101000C6010C2E02C0880F991F0A94E2F78E2198
:101020009F21892B49F4219798F7B12C8B2DCDB7AF
:10103000DEB7E9E00C94B92ABC2EB8018C2FCDDDC7
:10104000D5DE019781F3F2CF0F931F93CF93FC016D
:10105000858100811181811579F0611569F0C801E0
:10106000C1DFC82F682FC80127DDB8018C2FB5DD7F
:10107000CF911F910F910895C80153DDC82FF5CF6F
:10108000CF93DF93D82FC92FADDF6D2F7C2FA5DD38
:10109000ADDEDF91CF910895FC018481811599F037
:1010A00080819181EDDF282F92959F70963099F085
:1010B00060F4925F9F70923030F4203FB1F038F4CA
:1010C00081E0283E38F080E008959A5FF3CF81E018
:1010D000243FC9F7089591E0213F09F090E081E0B5
:1010E000283E08F080E0892B089581E0089580E093
:1010F0000895F894E82FE295EF70F0E041A18F7029
:1011000021E030E0B90102C0660F771F8A95E2F74F
:10111000CB01962F9095942391A392A1892B82A322
:1011200078940895CF92DF92EF92FF921F93CF931E
:10113000DF93172FE82FF0E0EA59F84F71110CC038
:10114000E4918E2F7E2F6E2FDF91CF911F91FF9014
:10115000EF90DF90CF900895E62EF12CC72ED12C82
:10116000F491EF2F86E0689F90011124CFEFD0E03B
:10117000C901BE010E94802AAB01EE0CFF1C65E58F
:10118000649FC001659F900D1124E81AF90A6E2D25
:10119000660F6E0D7E01EC18FD08FE9DD001FF9DCF
:1011A000B00D11248B2F169F70011124EF2CFF24FA
:1011B0006E01CE18DF087601FE9D6001FF9DD00C08
:1011C00011247E01E61AF108B701169F7001179FDE
:1011D000F00C1124EF2CFF24CE19DF09FC9F7001C5
:1011E000FD9FF00C11247F2D43305105C1F02C3FA1
:1011F000334058F441305105B1F04230510509F007
:10120000A2CFEB2F8F2D7F2F9ECF4430510571F051
:101210004630510509F497CF7B2F8D2D94CF7D2D2E
:10122000EB2F8F2F90CF7F2FED2D8DCFEF2D7B2F9D
:10123000F8CF282F269F020E20E0211D1124822F97
:1012400008959C0180E090E0269F020E811D369F4C
:10125000800D911D1124830F911D0895AC018230E2
:10126000910508F408959FEF413E8EE1580740F440
:10127000CA0125E0969587952A95E1F798E0980FA1
:1012800061E0E62FE90FFF27FF1F9F0135952795A6
:10129000822F229FF001239FF00DF00D11244E1795
:1012A0005F0738F49FEF920F961758F78FEF860F6E
:1012B00008952F3FE9F361E0620FF6CFCF93DF93FC
:1012C000D62FC72F682F2695E22F26FDE0959E2F5B
:1012D0009F7026FD9F5FE695E695E695E670F0E047
:1012E000E75CFE4F3181399F302D912D11243295CD
:1012F0003F709295907F392B8081830F27FD8195D8
:1013000087FD8195880F95DF6D2F7C2FDF91CF9121
:101310000895622F0895E42FF0E0EE0FFF1FE55BC4
:10132000FE4F618D621B0895E42FF0E0EE0FFF1F6A
:10133000EB59FE4F6081621B0895CF93DF93D62F48
:10134000C72F682F842F809574DF6D2F7C2FDF913E
:10135000CF9108951F93CF93DF93162FD72FC82FC8
:1013600060E4842F809565DF682F610F7D2F8C2FBF
:10137000DF91CF911F910895EF92FF920F93E00EAE
:10138000F11CF90137FF03C0F195E195F10924E063
:10139000EE0FFF1F2A95E1F7E11531E0F30714F096
:1013A000EFEFF0E0DA0157FF03C0B195A195B10965
:1013B00094E0AA0FBB1F9A95E1F7AE17BF070CF494
:1013C000FD01EE0DFF1DE11591E0F90710F0EFEFC3
:1013D000F0E02E2F2095382F320F08F43FEF832FA7
:1013E0000F91FF90EF90089596C008959FC00895C3
:1013F000880F880F94E0980F933108F092E10895D8
:10140000ECE0F5E0808191E089278083109218015B
:1014100080917E05816080937E05089580910C0502
:101420008370811102C01092180180910C058C7F8D
:10143000816080930C0580917E05816080937E059C
:10144000089580910C05837081111092180180918C
:101450000C058C7F80930C050895ECE0F5E0248169
:1014600030E1230F08F42FEF248380917E05816003
:1014700080937E050895ECE0F5E0248130E1231BA4
:1014800008F420E0248380917E05816080937E05AE
:10149000089590E06115E9F0815D9E4FFC01808127
:1014A0008F3FB1F0E82FE295EF70F0E041A18F702F
:1014B00021E030E0B90102C0660F771F8A95E2F79C
:1014C000CB01962F9095942391A392A1892B82A36F
:1014D0000895835D9E4FE2CF90E06115A9F0815D94
:1014E0009E4FFC0120812F3F91F0E22FE295EF709B
:1014F000E05EF0E0808190E02F7002C095958795C6
:101500002A95E2F781700895835D9E4FEACF80E0CF
:101510000895279A0895FC01EE0FFF1FE80FF91FA9
:10152000E65BFD4F6183408322830895FF920F9312
:101530001F93CF93DF93182F062FF42EC0E0D0E037
:101540002F2D402F612FCE01E6DF2196C231D1052C
:10155000B9F7CDB7DEB7E5E00C94BD2A282F35EBFF
:101560002303C001112497FF04C080589109892FDB
:10157000089580589F4FFBCF8091740580FD14C063
:1015800081FD14C082FD16C080917305811581F024
:101590008E3180F420E5829FC00111246EE170E05D
:1015A0000E94D72A862F089584E1089588E208953D
:1015B00088E0089580E508958091740580FD17C046
:1015C00081FD17C082FD19C080917205811599F0C7
:1015D000883298F428E0829FC001112468E270E00C
:1015E0000E94D72A6115710551F0862F089562E097
:1015F000FCCF64E0FACF61E0F8CF68E0F6CF81E09D
:101600000895E0915805F0915905309739F001900F
:10161000F081E02D309711F00995089580E008954C
:10162000A3E0B0E0E6E1FBE00C94A42A9C018091E9
:1016300048029091490282179307B1F03093490212
:1016400020934802E0915805F0915905309761F0D8
:101650000084F185E02D309739F083E089833B8366
:101660002A83CE01019609952396E2E00C94C02AC4
:10167000A3E0B0E0EEE3FBE00C94A42A9C0180918F
:1016800046029091470282179307B1F030934702C8
:1016900020934602E0915805F0915905309761F08A
:1016A0000084F185E02D309739F084E089833B8315
:1016B0002A83CE01019609952396E2E00C94C02A74
:1016C0009C01FC0132968FEF90E04191461751F05A
:1016D0008F3F19F4411101C0892F9F5F9630A9F700
:1016E0008F3F09F40895280F311D87FD3A95F901C0
:1016F000628308959C01FC013296285F3F4F8191DF
:10170000861302C0DF011E92E217F307C1F70895A6
:1017100080910B0108952FB7F89460914202709167
:10172000430280914402909145022FBF089508958D
:10173000FC019B018091380290913902861797072E
:1017400040F0672B29F48091E8008E778093E800C1
:10175000C90140E0009741F4411106C08091E800C2
:1017600082FF2FC080E008952091ED042115A9F19A
:101770002530A9F12091E80023FD2DC02091E8003B
:1017800022FDECCF2091E80020FFE4CF3091F30060
:101790002091F200009719F02830310558F041E00F
:1017A0002830310509F040E02091E8002E772093A1
:1017B000E800D0CF41914093F10001972F5F3F4F58
:1017C000E9CF8091ED04811541F0853041F08091A1
:1017D000E80083FFC3CF81E0089582E0089583E0AD
:1017E00008958091320287FF13C08091E80082FF44
:1017F00006C08091E8008B778093E800089580917F
:10180000ED048111F2CF08958091ED048115D9F393
:101810008091E80080FFF8CF8091E8008E77ECCFD0
:101820002091E4003091E50095E6A9012091EC00BB
:10183000822F817020FF06C08091E80080FF06C0E3
:1018400080E008952091E80022FD1AC08091ED0407
:10185000811589F0853089F08091EB0085FD0FC0FE
:101860002091E4003091E50042175307F9F29A9570
:10187000E1F684E0089582E0089583E0089581E030
:101880000895E8EDF0E080818E7F80831092E20081
:101890001092DA001092E100A0EEB0E08C9181602D
:1018A0008C9380818F77808319BCA7EDB0E08C91F9
:1018B0008E7F8C9380818F7E808310923102089579
:1018C000EF92FF920F931F93CF93DF937C01809150
:1018D00007018EDDC82F192F60911005669566955A
:1018E00021E0620F08F46FEF8091AF049091B00493
:1018F000A8DC082FD0E0C11748F081E0123108F0D1
:1019000080E0CDB7DEB7E6E00C94BC2AFE01E55BD3
:10191000FE4F85AD909108018923811579F0609182
:101920000D0570910E0580910F05202F4C2FF701AA
:101930000995F8DB472F282FCE0156DD2196DBCF06
:10194000A0E0B0E0E6EAFCE00C949B2A7C018091E8
:1019500007014EDDC82FB92E2091100531E0230F6D
:1019600008F42FEF30E040E050E06FEF7FEF80E0D1
:1019700090E00E94EA2A6901D0E0A22E9D2C2C2F33
:10198000CB1550F081E0F2E1BF1608F080E0CDB752
:10199000DEB7EBE00C94B72AFE01E55BFE4F85ADA8
:1019A000909108018923811501F18091B80481503B
:1019B000082E000C990B87FF1AC00A2D192D609173
:1019C000100521E0620F08F46FEFC8013ADCAC01AA
:1019D00060910D0570910E0580910F05F701099535
:1019E000A1DB472F282FCE01FFDC2196C8CFFC01B9
:1019F000E854FB4F318932130AC0FC01EE0FFF1F80
:101A0000E854FB4F018D128D0C151D05C0F2019796
:101A1000D2CF90910C059370911591F08A3008F017
:101A200089E0880F880F90910C059370892B809323
:101A30000C051092180180917E05816080937E05CF
:101A4000089580910C05869586958F5F8A3008F001
:101A500081E0DFCF80910C05869586958A9509F403
:101A600089E0D7CF90910C059370911571F0809318
:101A70000D0560930E05413F08F040EF40930F05C0
:101A800080917E05816080937E050895ECE0F5E00D
:101A9000818190E0438162810896E4CFECE0F5E03B
:101AA0008181438162818850990BDCCFECE0F5E0C5
:101AB000628120E1620F08F46FEF8181438190E041
:101AC000D1CFECE0F5E0628120E1621B08F460E038
:101AD0008181438190E0C6CFECE0F5E043812CE0CA
:101AE000420F08F44FEF8181628190E0BBCFECE0C0
:101AF000F5E043812CE0421B08F440E081816281E3
:101B000090E0B0CF982F9093E900891771F0709111
:101B1000EC002091ED005091F00021FD09C09F5F85
:101B2000973089F78093E9000895762F242F50E0AD
:101B30003091EB003E7F3093EB003091ED003D7F24
:101B40003093ED003091EB0031603093EB007093F7
:101B5000EC002093ED005093F0002091EE0027FD63
:101B6000DECF0895A0E0B0E0E8EBFDE00C949E2A03
:101B7000C8EDD0E088818F7E8883E7EDF0E080813A
:101B80008160808384E082BF81E08093310288811C
:101B90008E7F888302EE10E0F80110821092DA0046
:101BA00081EEC82ED12CF601108288818F77888330
:101BB00088818068888388818F7D888319BC109292
:101BC000ED04109230021092EC0410922F0290EE6D
:101BD000E92EF12CF70180818B7F808388818160E1
:101BE000888342E060E080E08DDFF60180818E7FB7
:101BF0008083F80180818160808380818860808318
:101C0000F70180818E7F8083888180618883CDB752
:101C1000DEB7E8E00C94BA2AE0918B0590918A0532
:101C200027E0E91302C080E00895AE2FB0E02E9FB8
:101C3000F0011124E457FA4F3181361306C0308188
:101C4000381303C03581341304C0FD013196E770A9
:101C5000E8CF81E0089535B13F7725B120684FB7CF
:101C6000F8948AE492E0FC010196508168E025B97D
:101C7000000000C057FF35B9550F000000C000C07C
:101C800000C035B900C06A9591F752E080389507D9
:101C900051F74FBF8FE594E00197F1F700C00000C6
:101CA000089581E08093E00080E28093D800109254
:101CB000C9008FE19EE40197F1F700C0000087E0C2
:101CC00090EBDC018093D6059093D705A093D805BF
:101CD000B093D90588E19CE00FB6F894A89580935D
:101CE00060000FBE90936000FFCF0F931F93CF93C0
:101CF000DF938B01EA019091ED04943051F58093CC
:101D0000E9008FEF9091E80095FD06C095ED9A955A
:101D1000F1F700008A95B1F78091E80085FF19C0BE
:101D20007FDD811111C08091E80085FD06C08091A2
:101D3000E8008E778093E800F3CFF80181918F015E
:101D40008093F100219779F78091E8008E77809356
:101D5000E800DF91CF911F910F910895CF93DF930A
:101D6000D82FC92F48E050E0682F792F81E0BDDFE0
:101D700088E0ED2FFC2FAAE3B2E001900D928A9546
:101D8000E1F7DF91CF910895BC0146E050E082E099
:101D9000ACCFBC0143E050E082E0A7CF9091880532
:101DA00092FB222720F9281779F080FB92F9909373
:101DB0008805609187057091880584E090E00E9415
:101DC000472E82E00C94CE050895E8EAF2E080E028
:101DD00092E0DF019C011D9221503040E1F7F09329
:101DE000A702E093A6028FEF9FEF9093A502809346
:101DF000A402089580917F0590918905892B4091D7
:101E00008005411589F090E02AE132E0F901508126
:101E10002F5F3F4F51119F5F52E020323507B1F7DE
:101E2000911110928005842B8093180248E050E0B5
:101E30006AE575E088E192E00E94372B892BB9F0C2
:101E400088E0E8E1F2E0AAE5B5E001900D928A951C
:101E5000E1F7E0915805F0915905309741F0028083
:101E6000F381E02D309719F088E192E0099508950B
:101E7000811531F090917F05892B80937F05BACF32
:101E80000895811519F00E94E505B4CF089548E042
:101E900050E067E170E08CE095E00E941E2E109209
:101EA0007E050895ECE0F5E085E1808380912001D6
:101EB00090912101A091220181839283A3838FE7D6
:101EC00084838FEF8583E3CFAB0124E630E0BC0150
:101ED00088E70E94EE299C0181E0232B09F080E035
:101EE00008958091E304811561F08091E2048115E9
:101EF00041F062E070E08EEA90E0E6DF811110923E
:101F0000E20408958091E3048115E9F004DCDC012A
:101F1000CB01805A9541AF4FBF4F8093E40490931B
:101F2000E504A093E604B093E7048091E2048111F4
:101F30000AC062E070E08CEA90E0C6DF811519F01B
:101F400081E08093E2040895CF93DF93682F80911E
:101F5000A6029091A7026A30B1F42091E804885A51
:101F60009240622F70E00E94802A281B822F66E038
:101F70000E94CB2AC82FC15018F4DF91CF91089549
:101F800080E2E2DFF8CF6D30D9F49C01285A32406C
:101F90004091E804642F70E0C9010E94802A481B28
:101FA000C901840F911D811522E0920710F080E095
:101FB00090E088559D4F9093A7028093A602DDCFB5
:101FC00026E0FC01A9E2B2E001900D922A95E1F72A
:101FD000603E08F458C026E0FC0111922A95E9F70A
:101FE000C091A602D091A70246E050E0BE0189E26E
:101FF00092E00E94372B9E01285A3240892B41F1F2
:10200000C90145E0969587954A95E1F741E050E092
:10201000BA0102C0660F771F8A95E2F7CB01609183
:10202000A4027091A502862B972BB9016B5F7F4F9D
:10203000E5E076956795EA95E1F702C0440F551FF4
:102040006A95E2F7842B952B9093A5028093A402C6
:102050002A5F3F4F4091E804642F70E0C9010E945D
:10206000802A481B463010F4240F311D211572E0E0
:10207000370710F020E030E028553D4F3093A7029D
:102080002093A6027ACFF6E06F9FB001112460552D
:102090007F4F46E050E00E942E2BA2CF0F931F935C
:1020A000CF93DF93EC01FC0101900020E9F78F0151
:1020B00001501109C017D10728F0DF91CF911F916E
:1020C0000F910895899140DFF5CFCF93DF93EC0115
:1020D000FE018491811103C0DF91CF91089534DF17
:1020E0002196F6CFAAE1B0E0E8E7F0E10C94952A5A
:1020F0008091E304811509F4C5C088EA92E09093C9
:10210000A7028093A60207DB4B015C01809180024D
:1021100090918102A0918202B0918302A501940165
:10212000281B390B4A0B5B0B243631054105510541
:1021300008F48BC08092800290928102A092820269
:10214000B092830242DE80E697E0BFDF80901B0101
:1021500090901C01A0901D01B0901E01C501B4011A
:102160000E941C2F6B017C01072E000C880B990B21
:102170000E944F2F2B013C01A3019201C501B40124
:102180000E944B2E20E030E040E251E46B8B7C8BD0
:102190008D8B9E8B6B897C898D899E890E940330F3
:1021A0006F8B788F898F9A8F6F89788D898D9A8DB3
:1021B0000E941C2F7F936F93DF92CF9283E291E076
:1021C0009F938F931F9288E08F938E01055F1F4F1F
:1021D0001F930F930E94542BC80160DF8EE597E098
:1021E00074DF86E597E071DF0FB6F894DEBF0FBEAF
:1021F000CDBF80917B05811509F448C082E597E049
:1022000064DF85E497E061DF8091D1058F93809151
:10221000D0058F938091CF058F938091CE058F93BA
:1022200089E291E09F938F938E010F5F1F4F1F9361
:102230000F930E94812BC80131DF80E397E045DFD7
:102240000FB6F894DEBF0FBECDBF8091A40290916F
:10225000A502892BF1F48091E204811599F05BDAF3
:102260000091E4041091E5042091E6043091E70424
:10227000601B710B820B930B6F3F7F4F8F4F9F47FC
:1022800008F42FDE6A96E1E10C94B12A8DE497E020
:10229000B7CF8091E3048115F1F28091E1048111BF
:1022A000DACF30DE2091A4023091A502211531054C
:1022B00091F210E041E050E0812F90E07A01012E90
:1022C00002C0EE0CFF1C0A94E2F7B70162237323ED
:1022D000672B11F41F5FF0CF2091E90420FF9BC012
:1022E000912F990F990F990F37E0390F80E023E074
:1022F000909302018093050130930301209306011E
:1023000024E630E047E050E060E071E088E70E94BA
:10231000A429892B09F09FCF90E2199FA0011124D5
:102320008091E90480FF83C0E4E8F2E080E2DF010D
:102330001D928A95E9F7E5E3F1E0FC8BEB8B01E375
:1023400011E089E3A82E81E0B82E97E0392E4424CD
:102350004394AB89BC898D91BC8BAB8BF8012191E7
:102360008F01240F352F311D28553D4FE82FF0E008
:10237000EC57FD4F80E090E0632C681A742C082E17
:1023800001C0770C0A94EAF76901812CD6019D906F
:102390006D019720662D6819677070E0B92D062EC3
:1023A00001C0BB0F0A94EAF75B2E71956195710924
:1023B0006770772701C096946A95EAF7592860817B
:1023C000562A5082839468E08612E0CF01963196B7
:1023D0008830910589F68B899C89A816B90609F081
:1023E000B8CF04E610E020E230E044E852E060E4D8
:1023F00088E70E94342A892B09F02DCFE094F094CD
:102400008091A4029091A5028E219F219093A50214
:102410008093A40220CF9695879596958795282F2F
:10242000912F9295990F90763FE1390F61CF4855E2
:102430005D4F04E610E020E230E0D9CF8F9381E0D9
:102440008093CC058F9118951F921FB61F9211246F
:102450008F939F93AF93BF938091EA04811113C030
:102460008091420290914302A0914402B0914502B2
:102470004196A11DB11D8093420290934302A09307
:102480004402B0934502BF91AF919F918F911F90ED
:102490001FBE1F9018952FB7F8948091420290911B
:1024A0004302A0914402B09145022FBF0895CF93FB
:1024B000DF93EC01F0DF8C1B9D0BDF91CF91089532
:1024C000A8E0B0E0E6E6F2E10C94942A182F80919F
:1024D0001A01811322C090910C059370209119016B
:1024E00030E081E09217130609F480E0809309013F
:1024F0008091110590910801981739F08093080197
:1025000040E060E080E00E94F6091A3088F4E12F94
:10251000F0E0E859FF4C0C94062B81E0E7CF809166
:102520000901811529F040E060E080E00E94F60991
:1025300080E038C0809107010E94F8098983092F43
:1025400060910D0570910E0580910F050E94920813
:10255000F62EE72ED82E3981232F30E03E832D83AF
:102560009D81091709F020F481E00231D8F0E0CF15
:10257000ED81FE81E55BFE4F85AD909108018923D9
:10258000811539F02D2D4E2D6F2D8D819E810E944C
:10259000F4098D819E8101969E838D83E1CF8EE526
:1025A00099E08ED9909107019F5F90930701811167
:1025B0000CC082E08093180180910901811105C04F
:1025C000111103C083E0809318012896E2E10C9476
:1025D000B02A89E899E0E5CF8BE899E0E2CF84E979
:1025E00099E0DFCF809107010E94F809382EC92EAB
:1025F00080910901811561F040E060E080E00E9477
:10260000F609E3EFF4E089E1DF011D928A95E9F72D
:1026100080910701811119C0E091AD04F091AE04E1
:10262000FE83ED8338DF2D813E81821B930B21E0F9
:102630008931910508F420E02093AC04499728F0F3
:102640002ADF9093AE048093AD04812C912C412C11
:102650004AEA242E540135E0532EF501E55BFE4F86
:1026600030813983331508F43FC03C1508F03CC075
:10267000832F90E09E838D83FC01E55BFE4F85AD4B
:10268000909108018923811571F1D501AD50BB4F9F
:102690003D010C91202F35E5231B08F420E0D22EBC
:1026A000F0900E05222D200F08F42FEF822F880FB7
:1026B000820F60910F058E5F0E941909622D6D19BE
:1026C0007F2D0E949208472F282F8D819E810E9486
:1026D000F4098091AC04811531F021E0021B08F46B
:1026E00000E0D3010C9343945A94BFEFAB1ABB0A9A
:1026F0005110B3CFE4E18E16910421F481E032E170
:10270000C31634CFF5E08F0E911C24E0421608F476
:10271000A1CFF4CF8DE999E013D944CF8AEA99E0AB
:10272000FBCF5090B80421E0352D321B08F430E087
:10273000332E809107010E94F8099B83A82FB0E0F7
:10274000B887AF83CD01880F991FFC01E55BFE4F71
:102750006F01832D90E09C012F5F3F4F3E832D83BF
:10276000AF81BB81AB1718F081E0B231FFCEEF81B2
:10277000F885E55BFE4F85AD9091080189238115B1
:1027800001F130910D05398380910E058A83909176
:102790000F059C83AD81BE81A854BB4F3D01232C06
:1027A000412C2514B8F06C81842D0E94190969818F
:1027B0007A810E949208472F282F8F8198850E9446
:1027C000F4098F819885019698878F8392E0C90ECE
:1027D000D11CC6CFF30181913F01D6015996AC902F
:1027E0005997A81ABB085A968C908781881A99081D
:1027F000AA9C9001AB9C300D300D1124889CC00127
:10280000899C900D900D1124820F931F0E942E0918
:10281000082F6091100521E0620F08F46FEFF301BB
:10282000EE0FFF1FE85BF440858996890E9421091D
:102830007C019401A50169817A81842D0E94BC09E3
:1028400069837A83482E2394ACCF4F925F926F9224
:102850007F928F929F92AF92BF92CF92DF92EF9230
:10286000FF92C090A804D090A904E090AA04F09030
:10287000AB040E948B0B2B013C01530142018C18CD
:102880009D08AE08BF080E948B0B282F6093A804F8
:102890007093A9048093AA049093AB04A0911405AB
:1028A000E4E1F5E08A2F30E04FEFC40ED41EE11CC6
:1028B000F11CC418D508E608F708A3132DC08093AF
:1028C00014058091EB04811137C030910C05832FE2
:1028D0008370811519F0832F8695869530911801A4
:1028E0003230E9F158F5311138C010920701609388
:1028F000AF047093B0042093B1049093B20489E2C2
:10290000E4E1F5E0A8EBB4E001900D928A95E1F7DF
:1029100081E08093180114C0418D528DC416D506F4
:10292000E104F10420F481503F5F3296C6CF480D98
:10293000591D528F418FF8CF80E0D0CF3330C9F08E
:10294000FF90EF90DF90CF90BF90AF909F908F90CF
:102950007F906F905F904F900895B2DDF1CF80939C
:102960001A0180910C0583708093190174D983E05A
:10297000D0CF80917E0581118ADAC090AF04D090CB
:10298000B004E090B104F090B2040E948B0B6C197B
:102990007D098E099F09603171058105910580F2DD
:1029A00010921801CDCF77DD209177053091780511
:1029B000232B211521F080935305909354052091EA
:1029C000790530917A05232B211521F0809351054B
:1029D00090935205E0915805F0915905309759F0C0
:1029E0000680F781E02D309731F082E08093750505
:1029F00085E795E009950895611509F449C0E3E379
:102A0000E80FE33150F4F0E0EE58FF4C0C94062B45
:102A10000E94BC0A819580937805C5CF0E94BC0AAC
:102A2000FACF0E94BC0A819580937705F6CF0E9469
:102A3000BC0AFACF0E94DC0A80937905EECF0E948F
:102A4000DC0A8195F9CF0E94DC0A819580937A0592
:102A5000E4CF0E94DC0AFACF815D990B21E030E0DF
:102A600001C0220F8A95EAF780917605822B809328
:102A70007605D3CF80917405816080937405CDCFA6
:102A8000809174058260F9CF809174058460F5CFE0
:102A9000409177058D3C59F48091780587FF0DC0F2
:102AA00010927805411559F41092730508C08E3CB8
:102AB00081F48091780518169CF3411581F080917E
:102AC000790590917A05892B8111A7CF1092720513
:102AD000A4CF8F3C41F447FFF0CF1092770580914F
:102AE00078058115E0CF803D19F41416B4F3E5CFD5
:102AF00090917905893D29F41916FCF61092790513
:102B0000DCCF8A3D19F497FFD8CFF8CF90917A05A2
:102B10008B3D29F497FFD1CF10927A05CECF8C3D13
:102B200019F41916CCF3C9CF9FE2980F983090F49E
:102B3000815D990B21E030E0B90102C0660F771F7B
:102B40008A95E2F7CB018095909176058923809351
:102B50007605B3CF8D3D31F4809174058E7F8093DF
:102B60007405ABCF8E3D21F4809174058D7FF7CF36
:102B70008F3D09F0A2CF809174058B7FF0CFCF936A
:102B8000C82F8115A9F08CEF8C0F813A98F4EAE1F7
:102B9000F2E080E292E02191C21709F43DC08E1765
:102BA0009F07C9F76C2F88E192E00E94600B22D941
:102BB000CF91089580E28C0F883068F4C77021E0CF
:102BC00030E001C0220FCA95EAF780917F05822B81
:102BD00080937F05ECCF8BE58C0F833038F42C2F5E
:102BE0002452330BC9010E94100BE2CFE8E5EC0F31
:102BF000EB3150F4F0E0EE0FFF1FE052FE4F80810A
:102C000091810E94380BD4CF83E38C0F833180F6FF
:102C100061E08C2FF1DECCCF6C2F88E192E00E9436
:102C20007A0BE8D8BFCF811571F19CEF980F913ADC
:102C300030F4682F88E192E00E947A0BDBC890E2C2
:102C4000980F983050F4877091E001C0990F8A95E1
:102C5000EAF7892F0E94E505F1CF9BE5980F9330A5
:102C600020F480E090E00C94100B98E5980F9B31D5
:102C700020F480E090E00C94380B93E3980F9331AC
:102C800010F460E0B9CE089580918100887F809330
:102C9000810010928500109284001092CD05109250
:102CA000CC058091CB05811521F08CE2BCDF109220
:102CB000CB0508950F931F93CF93C82F8B015FDF30
:102CC0000115110531F48C2FAEDFCF911F910F91BB
:102CD00008958FE99FE00197F1F700C000000150CF
:102CE0001109EECFCF9310927F05C6E0EAE1F2E042
:102CF000DF018C2F1D928A95E9F780E090E00E9419
:102D0000100B80E090E00E94380B1092890572D879
:102D1000E5E7F5E0DF011D92CA95E9F7109273052A
:102D200010927205109274053EDECF910895DADF9D
:102D30002FEF84E39CE0215080409040E1F700C0F9
:102D4000000088E19CE00FB6F894A895809360009D
:102D50000FBE90936000FFCFAAE2B0E0E2EBF6E195
:102D60000C94A32A82E392E0FC0101962091F100E9
:102D7000208322E08A339207B9F7809133028930A9
:102D800009F459C0C8F4823009F4B5C0833009F49D
:102D900084C0813089F18091E80083FFE9C080918F
:102DA0003202909133029A3008F0E2C0E92FF0E04D
:102DB000EB57FF4C0C94062B8A3009F48BC08B30F8
:102DC00051F780913202813231F780913602909131
:102DD0003702892B01F78091E800877F8093E80014
:102DE0000E94F10B81E090913402911101C080E0CA
:102DF00080930C0177DFCFCF80913202813A59F670
:102E00008091E800877F8093E8008091360290915E
:102E10003702892B61F060E080E090E070E00E9472
:102E2000980B8091E8008B778093E800B4CF68E03E
:102E30008AE392E0F3CF80913202813209F0ABCF86
:102E40008091360290913702029708F0A4CF8091CA
:102E5000E800877F8093E8008091E80082FF18C037
:102E60009091F3008091F200029731F48091F1008B
:102E7000813011F0863021F48091F10080930B01B4
:102E80008091E8008B778093E8000E94F10B83CF5C
:102E90008091ED048111E0CF7ECF80913202813AA2
:102EA00009F079CF8091360290913702892B09F091
:102EB00072CF8091E800877F8093E8008091E800DE
:102EC00080FFFCCF80910C018093F1008091E8009D
:102ED0008E77D9CF80913202813209F05CCF809118
:102EE000E800877F8093E8000E94F10B8091350213
:102EF00080930A0150CF80913202813A09F04BCF82
:102F00008091E800877F8093E8008091E80080FF4F
:102F1000FCCF80910A01D8CF803889F0823841F502
:102F2000809136028F70873018F58093E900809188
:102F3000EB0085FB882780F91092E90006C080919C
:102F4000EC04880F90912F02892B9091E800977FD5
:102F50009093E8008093F1001092F1008091E800D6
:102F60008E7723C0811116C080913402813011F117
:102F70008091E80083FF0AC08091E800877F8093FA
:102F8000E8008091EB0080628093EB00AA96E3E07A
:102F90000C94BF2A823061F780913402811589F048
:102FA0001092E9008091E800877F8093E8000E94FA
:102FB000F10BDECF81E0933009F080E08093EC04E8
:102FC000EFCF809136028F702FEF280F263080F6DA
:102FD0008093E9002091EB0020FFE2CF933031F4A1
:102FE0008091EB0080628093EB00DACF9091EB0050
:102FF00090619093EB0021E030E0A90102C0440F02
:10300000551F8A95E2F74093EA001092EA008091FA
:10301000EB008860E8CF8111ABCF109134021F77AD
:103020008091E3008078812B8093E3008091E80019
:10303000877F8093E8000E94F10B8091E80080FF79
:10304000FCCF8091E30080688093E30083E011115E
:1030500001C082E08093ED048BCF8058823008F06D
:1030600087CF20913402309135022C3D53E0350753
:1030700099F583E08A838AE289834FB7F894DE0169
:10308000139620E03EE051E2E32FF0E0509357002A
:10309000849120FF03C082958F703F5F8F708A30CC
:1030A000C8F0895C90E08D939D932F5F243161F788
:1030B0004FBF8091E800877F8093E8006AE270E06C
:1030C000CE0101960E94980B8091E8008B77809347
:1030D000E8004ECF805DE6CF832F9927833091059E
:1030E00029F160F48130910509F476C0029709F066
:1030F0003FCF8BE390E0EFEAF6E02DC0209136025F
:10310000309137028132910509F45AC0829709F053
:103110002FCF2115310509F469C02130310509F09F
:1031200027CF8BE790E0E0EFF5E015C0C9019927C4
:103130002130B1F18230910509F43AC0892B09F0B0
:1031400017CFECE2F7E0E4918E2F90E0ECE2F7E0AD
:10315000009709F40DCF2091E800277F2093E80025
:1031600020913802309139028217930708F49C01AC
:1031700040E02115310509F03EC041113CC080916D
:10318000E80082FDA1CF8091ED04811509F49CCF68
:10319000853009F499CF8091E80083FFF0CF94CF78
:1031A000E8E0F7E0E4918E2F90E0E8E0F7E0D0CFA0
:1031B000ECEFF6E0E4918E2F90E0ECEFF6E0C8CF74
:1031C0002115310571F02130310509F0D1CE89E0AA
:1031D00090E0EAEDF6E0BFCF82E190E0EAEEF6E0C3
:1031E000BACF89E090E0E1ECF6E0B5CF84E490E07E
:1031F000EBE6F6E0B0CF8091ED04811509F464CFE1
:10320000853009F461CF8091E80083FD5DCF809126
:10321000E80082FDB4CF8091E80080FFAACF9091B2
:10322000F3008091F2002115310519F088309105E5
:1032300050F041E0089709F040E08091E8008E7777
:103240008093E80096CF44914093F100319621504D
:1032500031090196E8CF803809F08ACE8091E800E4
:10326000877F8093E800809130028093F10076CED2
:1032700081117ECE10913402123008F079CE809107
:10328000E800877F8093E800109330020E94F10BE2
:103290001115A9F084E08093ED0442E061EC81E037
:1032A0000E94820D42E261EC82E00E94820D8091D8
:1032B000ED04843051F482E080930D0159CE809169
:1032C000E30087FDE7CF81E0E6CF81E0F5CFEF9225
:1032D000FF920F931F93CF93DF93C62FD42F122FFC
:1032E0008115A1F060937C05D6D890932802809335
:1032F0002702C77081E001C0880FCA95EAF70E94D3
:10330000380FCDB7DEB7E6E00C94BC2A80917C057F
:10331000681332C0E0902702F0902802BCD88E19C2
:103320009F09883C910540F500E20D0FCD17A9F0EB
:10333000C770FF24F3948F2D01C0880FCA95EAF758
:103340000E94410F083048F48D2F877001C0FF0C98
:103350008A95EAF78F2D0E94380F60E070E0812F88
:10336000A9DC083070F6D77081E001C0880FDA95CB
:10337000EAF70E94410FC5CFC77081E001C0880FF6
:10338000CA95EAF7F6CFAEE0B0E0E9ECF9E10C94CB
:10339000962A8C01FC018481811509F4CDC061E07D
:1033A000C8010E9424088D879E87F80185818115B8
:1033B00009F4DEC02D853E8520344EE7340709F43C
:1033C00063C021346EE7360709F4C6C02C323105DC
:1033D00009F0CEC059DC20911B0130911C014091B5
:1033E0001D0150911E0160EC71EE84E69CE40E9488
:1033F000B42E20E030E040E850E42B013C01C30152
:10340000B2010E94033069837A838B839C83698134
:103410007A818B819C810E94212F4B015C0180E588
:10342000881683EC9806A104B10430F440E5842E9C
:1034300043EC942EA12CB12CC501B4010E9496043A
:103440000E941F05F8019581911509F49EC4109200
:103450007C052D853E8530572332310508F0A6C402
:1034600084E090E00E94192E909388058093870550
:10347000ED85FE85E150F047E232F10508F0A0C08D
:10348000E157FF4C0C94062B80917B0591E0892736
:1034900080937B05811509F453C08091CD0581117E
:1034A0003BC020911B0130911C0140911D015091A6
:1034B0001E0160EC71EE84E69CE40E94B42E20E0D4
:1034C00030E040E850E46D837E838F8398876D8180
:1034D0007E818F8198850E94033069877A878B87E8
:1034E0009C8769857A858B859C850E94212F6B013D
:1034F0007C0190E5C91693ECD906E104F10430F49F
:1035000030E5C32E33ECD32EE12CF12CC701B601EC
:103510000E9496040E941F05809186058770811580
:1035200059F0F8018581811539F08091880582FF75
:1035300003C082E00E94CE052E96E0E10C94B22AF0
:103540001092CC058091CB05811531F38CE26BDBB9
:103550001092CB0599DBE0CF80911F0191E0892784
:1035600080931F01811509F419C10E940E0AD4CF5E
:10357000ED85FE85E851FC47E730F10508F062CFA4
:10358000EF54FF4C0C94062B26E241EE61EE9FDED9
:10359000C3CF27E245EE65EEFACF26E241EE60EEBC
:1035A000F6CF27E245EE64EEF2CF26E241EE62EE80
:1035B000EECF27E245EE66EEEACF28E241E0EBCF20
:1035C0008091870581608093870560918705709160
:1035D000880584E090E00E94472E84DB9DCF809197
:1035E0008805886080938805F0CF80918705826088
:1035F000EACF809187058460E6CF80918705886057
:10360000E2CF809188058160EDCF8091880582604E
:10361000E9CF809187058061D6CF80918705806250
:10362000D2CF809187058064CECF5CDB8091870507
:103630008068C9CF809187058C60C5CF809188054F
:103640008360D0CF809187058E7FBDCF8091880524
:10365000877FC8CF809187058D7FB5CF8091870503
:103660008B7FB1CF80918705877FADCF8091880513
:103670008E7FB8CF809188058D7FB4CF80918705EC
:103680008F7EA1CF809187058F7D9DCF809187050B
:103690008F7B99CF27DB809187058F7794CF80919F
:1036A0008705837F90CF809188058C7F9BCF809109
:1036B0008705992782FF939590FB82F990FB83F908
:1036C00082CF80918805982F909590FB80F990FB90
:1036D00081F988CF90918705892F8F7B96FF806431
:1036E00072CF00DB90918705892F97FB87F980586F
:1036F0006ACF61E08EE090E00E942D2E66CF60E000
:10370000F9CF90918705892F8F7E94FF80615BCFE1
:1037100090918705892F8E7F90FF816054CF909183
:103720008805892F877F93FF88605CCF8272ED8543
:10373000FE85E052F847EB30F10508F050C0E85440
:10374000FF4C0C94062B80917F058272ED85FE85DF
:10375000E054F847ED30F10508F041C0ED53FF4C5F
:103760000C94062B0E94000AD7CE811509F10E9405
:103770002A0DD2CE811509F10E944E0DCDCE8115B4
:1037800009F10E94610DC8CE811509F10E94770DE3
:10379000C3CE811509F10E943B0ABECE0E94210AC8
:1037A00080917E05816080937E05B6CE8115F9F209
:1037B0000E94210DB1CE8115F9F20E94460DACCECA
:1037C0008115F9F20E94560DA7CE8115F9F20E94DB
:1037D0006C0DA2CE8115F9F20E942D0A9DCE2D8589
:1037E0003E85205E324520323105C0F491112FC054
:1037F000FD85FF7181E090E09C0102C0220F331F24
:10380000FA95E2F73A832983698183E090E00E9488
:103810002D2E89819A810E9434057ECE9115B9F0B2
:103820008D859E858A35ECE79E0709F486C008F0F1
:103830005EC081302CE7920709F47EC083303CE7FC
:10384000930709F473C081159C4709F463C0F8011C
:103850008581E080F180811509F473C0C7010E9461
:10386000F2078983682FC7010E945C05B70189812F
:103870000E94ED050E94F6068D839983F801D5809C
:10388000C680C2942FE0C222809186058770811580
:1038900009F1ED2CD114F9F0892F807F803469F083
:1038A0008D81805E8830B0F0892F807E803229F44F
:1038B000FD81F23078F0C11469F08091880582FFB3
:1038C00009C082E00E94CE05809186058770EE24B3
:1038D000E3948111E12CE981E295EF702981203C8C
:1038E00008F09CC0F0E0E053FF4C0C94062B8D8553
:1038F0009E858B35ECE79E0711F18C359C4709F0CE
:10390000A6CF80918805002482FF0394802D0E9419
:10391000CE0E9DCFE7D92FEF34E34CE0215030405D
:103920004040E1F700C000000E94510E6FEF7FEFB2
:1039300080E090E00E94472EFAD981E0E8CF80E055
:10394000E6CFC7010E949105898390CF39813F70EE
:10395000F32E4981403118F0F29490EFF922D114FE
:10396000C1F0F11471F08D81805E883018F06D81A6
:10397000611109C080917F058F2980937F050E9486
:10398000FA0E8D8145C0809189058F298093890524
:10399000F6CF8D8148D9F11409F440C08D81805E45
:1039A000883018F08D81811104C08F2D0E94E505AB
:1039B00006C0F094809189058F21809389050E942B
:1039C000FA0E2CC099819F70F92EE981E07FE032D8
:1039D00019F0F29480EFF822FD81F11549F0F130F1
:1039E00009F465C0D11409F471C0C11499F1C9CFAB
:1039F0008091880582FD2AC0D11461F0F11439F05C
:103A000080917F058F2980937F050E94FA0E80E0C8
:103A1000B6D804C080E007D9F110C7CFE11409F48B
:103A2000C3C08091860580FDBFC0F80115828695D0
:103A3000869586950E943E05C801A5DC8091860585
:103A40008695869586950E944C05AEC0D11499F056
:103A5000C11004C08F2D0E94380FE0CF21E0C212A8
:103A6000DDCF809180059F2D9823F916B9F28F291B
:103A700080938005D3CFC110D1CF8F2D0E94410FED
:103A8000909180058F2D8923811529F08F2D8095A8
:103A9000892380938005809181059F2D982391151E
:103AA00009F4BCCFF094F822F0928105B7CFD1147D
:103AB00029F036E0C31608F0B1CFCCCF45E0C416EC
:103AC00008F0ACCF8F2D0E94410FA8CFC114D1F3C5
:103AD0006D81693349F48FEF97EEE3E081509040B8
:103AE000E040E1F700C000008D819DD897CF89812B
:103AF000869586958370811569F0813009F08ECFA7
:103B00008D8199819370D11002C080E090E00E9475
:103B1000380B84CF8D8199819370D11002C080E0E1
:103B200090E00E94100B7ACF6D2D8D810E94FC14C5
:103B300075CF8981837081114AC0D11033C04D8106
:103B4000429546954770440F440F2D812F7030E009
:103B5000042E02C0220F331F0A94E2F7FD8180E099
:103B600090E0F4FF09C08FE090E002C0880F991F39
:103B70004A95E2F780959095498146954695437020
:103B800049834230D9F04330B1F0409182055091E1
:103B900083056981613069F0822B932B84239523FF
:103BA0000E9434050E94010B60E0C8010E942408B5
:103BB000C3CC242B352B822B932BF2CF822B932B30
:103BC000209182053091830582279327E9CFD11474
:103BD00099F1898180FFE6CF4D81429546954770E6
:103BE000440F440F2D812F7030E0042E02C0220FAD
:103BF000331F0A94E2F79D8194FF22C08FE090E08A
:103C000002C0880F991F4A95E2F780959095E98147
:103C1000E695E695E370E230D9F0E330B1F04091FB
:103C2000840550918505E13071F0822B932B84231C
:103C300095230E943905B6CF823008F4B3CFCCCF9C
:103C400080E090E0E4CF242B352B822B932BF1CF17
:103C5000822B932B20918405309185058227932711
:103C6000E8CFF981FF70F983D11439F08F2F0E94CA
:103C70003E058D810E94380F95CF8D810E94410FA6
:103C800089810E944C058ECF2D81223FB9F170F4BD
:103C9000203FD1F0213F99F0D11409F461C0C11443
:103CA00009F45BC08D810E94BF157CCF3D81333FFD
:103CB00061F1343F89F79091880592FD35C0898183
:103CC0008F71D114F1F21EC0D114A9F045E0C416D1
:103CD00008F068CF69816F7181E090E0FC0102C05B
:103CE000EE0FFF1F6A95E2F780918405909185059C
:103CF0008E279F279ECFF6E0CF16EACF89818F715E
:103D0000D110BFCF0E943E054DCF80E090E0D1148E
:103D100009F48FCF29812F7181E090E002C0880FD4
:103D2000991F2A95E2F785CFD11461F089818F71AF
:103D300092FFE8CF982F990F990F990F9360909366
:103D40008605E0CF81E00E94CE0532E0C31608F47C
:103D500029CF82E00E94CE0525CF89818F71D2CFF5
:103D6000C11481F04D81493349F46FEF87EE93E040
:103D7000615080409040E1F700C000008D810E94BA
:103D8000131610CF89818F717CCF2D853E8526310A
:103D90003C4709F0D8CC80917D0565E3811101C0D5
:103DA00069E288E192E00E947A0B17C080917F055A
:103DB000ED85FE85E631FC4709F0B8CC8A7A91E0C2
:103DC000811101C090E090937D0565E3811101C0F0
:103DD00069E288E192E00E94600B0E94FA0E9CCB9F
:103DE0008091CA05803178F48091C905811559F018
:103DF000E0918B0520918A053091C5054091C4055D
:103E000057E02E1301C008956E2F70E05E9FF00101
:103E10001124DF01A457BA4F14968C911497811581
:103E200051F111968C911197831325C08C918413B5
:103E300022C015968C91159781111DC012968D91F7
:103E40009C91A091C605B091C7058A1B9B0B883C2D
:103E5000910588F48091CA058F7080618093CA05AE
:103E6000EE56FA4F80818F708061808384EC95E0FC
:103E70008ADA0C94C405FB013196E770C2CFADE03D
:103E8000B0E0E5E4FFE10C94992A8C0186E0F801AA
:103E9000DE01189601900D928A95E1F7F801F58000
:103EA000C48084EC882E85E0982E7090C80571102F
:103EB0001FC0C114D1F0F11409F415C1C8010E944A
:103EC0004C08811509F40FC187E0F801D401019075
:103ED0000D928A95E1F7F1E0CF1206C08091C405FA
:103EE0009091C5050E9440087BDFFF24F39453C0E6
:103EF000E080A280B380D090C9058091C6059091E2
:103F0000C7059501281B390BD11409F4B5C0283C0D
:103F1000310508F08DC0C11441F39091C505C180F1
:103F20008091CA05803108F056C0C91213C0909123
:103F3000C4059E110FC0F11048C08F70806180933E
:103F4000CA0584EC95E01FDA8091CA05F8018683E2
:103F5000F12C21C0F11039C040E06C2D8E2D0E9453
:103F60000C0E40E06C2D8E2D0E940C0EF82E81114F
:103F7000EFCF888599850E944008292F22952F70C0
:103F8000903470F49F70223098F09115A9F0F801E8
:103F90009681903188F48F2D2D96EDE00C94B52A02
:103FA0002A5F2F70223060F0C801EDD9FD2CF3CFCD
:103FB000911511F0811579F3805E883060F3F4CFAC
:103FC000803F48F3815F8330F9CF8091CA058160DB
:103FD0008093CA05BDCFC91207C09091C4059E1138
:103FE00003C0F11409F469C0C8010E944C0881158E
:103FF00009F479C0F11409F476C08091CA058032C1
:1040000070F02091C4053091C5053A832983BC82A4
:10401000AB827D821E828F83CE010196B4D987E068
:10402000F801A4ECB5E001900D928A95E1F75CCF20
:104030008091CA05803148F484EC95E0A4D987E0EA
:10404000F40111928A95E9F783CFC11409F44DCF99
:104050002091C50591812913C7CF9091C4059E1168
:10406000C3CFF110C1CF8683C8018DD987E0F40199
:1040700011928A95E9F739CF283C310500F7C11430
:1040800009F433CFF11479F19091C505818198132A
:1040900020C08091C4058E111CC08091CA0580FD8E
:1040A0000FC0803168F08683807F803F39F0868141
:1040B000982F907F905F8F70892B8683C80163D97A
:1040C00087E0F801A4ECB5E001900D928A95E1F744
:1040D0000CCFC8010E944C088111A1CF8091CA0564
:1040E00081608093CA05C8014ED9FFCEABE1B0E034
:1040F000ECE7F0E20C94A22A4E8B5F8B688F798FED
:104100008A8F192F9B8F9111109289051D8A86E045
:10411000FE017696DE011F9601900D928A95E1F7D9
:104120000A8D011561F00B8B1C8B61E0CE010F969F
:104130000E94240861E0CE010F960E9424080B8B98
:104140001C8B87E0FE013F96DE01189601900D92D0
:104150008A95E1F7CE01089692DE811128C0209160
:104160008A0530918B0587E0FE013896DE011196B5
:1041700001900D928A95E1F78C858115C1F0822F0F
:1041800090E001968770992738171906D9F097E0C3
:10419000929FD0011124A457BA4FFE01319601908D
:1041A0000D929A95E1F780938A050E94C40517E065
:1041B00080918B0590918A05891312C06B96E4E07B
:1041C0000C94BE2A0E94721610928A0510928B05DA
:1041D00087E0E4ECF5E0DF011D928A95E9F7E7CF8F
:1041E000189FC001112484579A4F49DE811531F37D
:1041F00080918B0590E001968770992780938B05BD
:10420000D7CFA6E0B0E0E7E0F1E20C94A22A0E944A
:104210004B128C018091560590915705801791079C
:1042200071F019821A820E944B12BC0149815A8195
:1042300080E090E05BDF10935705009356052696CB
:10424000E4E00C94BE2AA5E0B0E0E9E2F1E20C94CF
:10425000992AFE01319685E0DF011D928A95E9F7E2
:1042600081E4A82E81E0B82E8F014F01EE24E39463
:10427000F12C2BE4C22E21E0D22EF50181915F01B9
:104280008F3F09F43EC0F894E82FE295EF70F0E01C
:1042900021A18F70A70102C0440F551F8A95E2F734
:1042A000CA01922F982B91A392A18095892382A372
:1042B000789400C0E6E4F1E031E0712C21912F3FC9
:1042C00079F0A22FA295AF70A05EB0E08C9190E043
:1042D0002F7002C0959587952A95E2F780FF88C0D8
:1042E00080E0782A330FCE16DF0641F7F501829180
:1042F0008F3F11F00E94790850EA5A95F1F7D801E2
:104300007C920F5F1F4FB6E4AB16B1E0BB0609F01D
:10431000B4CF45E050E0B40183EB94E00E94372B2A
:10432000892B09F467C085E0F401A3EBB4E00190A8
:104330000D928A95E1F781E0809326020E944B124C
:1043400090932502809324021FB7F89480917B05F7
:10435000811569F18091CC05811549F18091CB05DA
:10436000811123C08CE20E94BF1581E08093CB05B0
:104370008091CE059091CF05A091D005B091D10547
:104380000196A11DB11D8093CE059093CF05A093FA
:10439000D005B093D1050E948B0B609320027093DF
:1043A000210280932202909323021092CC051FBF1A
:1043B0008091CB058115C1F00E948B0B00912002EA
:1043C000109121022091220230912302601B710B77
:1043D000820B930B643671058105910528F08CE200
:1043E0000E9413161092CB052596EDE00C94B52A89
:1043F000832F77CF80912602811509F4A5CF0091F4
:104400002402109125020E944B12801B910B0597EC
:1044100008F49ACF45E050E063EB74E08EEE94E050
:104420000E94372B892B49F085E0E3EBF4E0AEEEF8
:10443000B4E001900D928A95E1F71092260284CFA4
:10444000CDB7DEB7EA970FB6F894DEBF0FBECDBF8B
:1044500085B7806885BF85B7806885BF84B7877F4B
:1044600084BF0FB6F894A89580916000886180930E
:104470006000109260000FBE80E890E00FB6F894E4
:1044800080936100909361000FBE81E080930D01E5
:1044900087E798E090931702809316020E94410CE0
:1044A0000E94B20D8091E20084608093E2007894D3
:1044B0008091ED04811599F08091E9001091EC0054
:1044C0008F70179511271795182B1092E90080917E
:1044D000E80083FD0E94AC161F701093E90082E093
:1044E00084BD93E095BD9AEF97BD80936E00E8E49C
:1044F000F5E098E0DF011D929A95E9F78093470572
:1045000060E080E00E94490A61E080E00E94490A80
:1045100060E081E00E94490A61E081E00E94490A6E
:10452000EFE8F1E03197F1F700C0000010E0809172
:104530004705181708F482C001E411E0D8018D91F5
:104540008D018F3F11F00E947908B1E006341B07FE
:10455000A9F706E411E0F80181918F018F3F11F076
:104560000E947908F1E00B341F07A9F785E0EEEE11
:10457000F4E0DF01282F1D922A95E9F7E3EBF4E040
:10458000DF011D928A95E9F780E090E00E94192EE4
:10459000833E9E4F71F163EE7EEF80E090E00E94DB
:1045A000472E60E082E090E00E942D2E81E090E0B6
:1045B000909383058093820561E083E090E00E9400
:1045C0002D2E60E074E184E090E00E94472E0E946E
:1045D000520F40E050E0BA018FE090E00E943F2E81
:1045E00040E050E0BA0183E190E00E943F2E0E943B
:1045F000470F82E090E00E94112E80933D0584E0F9
:1046000090E00E94192E90938805809387051BDE09
:10461000EFEFF6E721E0E150F0402040E1F700C085
:10462000000011DE8091EE0480FF1AC06FEF7FEF73
:1046300080E090E00E94472E0E94510E60E0812FA2
:104640000E946C0A082F61E0812F0E946C0AE12F02
:10465000F0E0EB5BFA4F880F802B80831F5F67CF02
:1046600083E090E00E94112E90E00E9434050E94A9
:10467000890A1092B80440E150E06FEF70E081EDDC
:1046800094E00E944D2B1092140540E150E06FEF32
:1046900070E08DE295E00E944D2B81E080937E05D5
:1046A00048E050E067E170E08CE095E00E94012E68
:1046B00010927E0580910C05843010F40E94520FF8
:1046C0001092E90480E88093E80408D66BE070E07B
:1046D0008DE798E00E94640F811569F18091E904EB
:1046E00065E070E081FD60C188E798E00E94640F9A
:1046F000811509F16DE070E086E698E00E94640F94
:104700008115C9F00E948B0BDC01CB01805A9541C9
:10471000AF4FBF4F8093E4049093E504A093E60469
:10472000B093E7040E94E50E81E08093E304809358
:10473000E2041092E10410927B051092CD051092D4
:10474000CB051092CE051092CF051092D005109295
:10475000D1051092CC0580911F0181110E940E0A93
:104760008EE091E09093590580935805CE01019613
:104770008CAB9DAB8091ED04853099F411E000E4A1
:10478000B3E0FB2E80E1E82E92E1D92E8091ED047A
:10479000853009F40CC10E9472160E94010B109220
:1047A000EB0451DD8EE395E098AB8FA7AEEEB4E05D
:1047B000BAABA9ABFC0191918D9125E0E334F207EE
:1047C00009F43FC19817B9F3412C512CF12CA9A938
:1047D000BAA97D90BAABA9ABEFA5F8A98191F8ABC6
:1047E000EFA7871509F4D4C087258EAB6201E12CB1
:1047F000662463948EA98621811509F4BEC0872C96
:104800008620E982FA820E944B129C838B83F1E01E
:10481000FD8391E0811001C090E09E8349815A811F
:104820006B817C818D8162DC811439F0F601E55B5E
:10483000FE4F80818F3F09F01AC1912C092D10E0A5
:1048400080911405890D9927991F09974CF1E8E08B
:10485000AE2EB12CA01AB10AB8016B5E7A4FA50139
:1048600085E195E011D7B801635E7A4FA5018DE12E
:1048700095E00AD7A501440F551FB801660F771FB1
:10488000635D7A4F8DE295E0FFD6B8016B5D7A4F9C
:10489000A50185E295E0F8D688E089198093140592
:1048A000911429F1409114052BA9822F90E0242F17
:1048B00030E0F901EC5EFA4FDC01AA0FBB1FA55BEB
:1048C000BE4F59965C915183880F991FDC01AB59FB
:1048D000BE4F8C9181875BA9518BF901EE0FFF1FB1
:1048E000EC5EFA4F128E118E4F5F409314058114C7
:1048F00009F443C080910C058C7F883109F03DC0DC
:10490000F601E55BFE4F80818F3FB9F1A12CB12C00
:10491000212C90E09C01220F331FD901AC59BE4FCE
:10492000B8AFAFABF901EB59FE4FFAAFE9AF960163
:104930002D503B4F49018501312CF801E55BFE4FBD
:1049400080818F3F61F02F1096C0E31094C0D40196
:104950002C9130E2230F08F42FEFF40120833394DD
:104960000F5F1F4FF5E03F12E8CF239425E0A20E22
:10497000B11C39E1A316B104F1F6E394660C4FEFD4
:10498000C41AD40A55E0E51235CFEFA5F8A9729202
:10499000F39485E0480E511C95E0F91218CF0E945F
:1049A0008B0BDD24D39451C083E798E09FCE809198
:1049B000ED04843009F43AC00E9425148091EB0480
:1049C00081110DC00E94601210921A0180910C0595
:1049D0008370809319010E942B0EF092180110939E
:1049E000EB040E94710F1092EA0448E150E00FB608
:1049F000F894A895409360000FBE0093600083B7C1
:104A0000817F846083BF83B7816083BF78948895FA
:104A100083B78E7F83BF0FB6F894A895809160000E
:104A2000886180936000109260000FBE0CDCEEEE97
:104A3000F4E0819181118CC254E0E33FF507C9F79E
:104A4000A5CE9813C1CEDDDBD12C0E942514809118
:104A50005005811551F080914A05109250058093C0
:104A60004B05809148058093490500E088C08BABD9
:104A700099249394E3CE90E0AFA9B8AD4C91FC019A
:104A8000EE0FFF1FE55BFE4F218D421B550BE9AD7D
:104A9000FAAD2081880F991FFC01EB59FE4F8081F0
:104AA000281B330B449FB001459F700D700D1124DE
:104AB000229FC001239F900D900D1124860F971FF8
:104AC0000E942E09382F893208F049CF28E2231B93
:104AD00008F420E0F801ED50FB4F213108F020E10F
:104AE0003081320F08F43FEF308339CF61E0802FFF
:104AF0000E946C0AF82E60E0802F0E946C0AFF0C66
:104B0000F82A202F30E0D901AB5BBA4FEC918E2F01
:104B10008370F81699F1EE0FEE0FEF29EC93EF701A
:104B2000F0E0E656FE4F2D5B3A4F8081D9019C9113
:104B3000890F8C9384300CF4C9C0412F50E0BA0126
:104B40006F5F7F4F63707727E616170679F0485B33
:104B50005A4F902F9F77FA0194831F5F1370109321
:104B60004A05909148059F5F90934805082E000CD8
:104B7000990B64E070E01BD5F90180830F5FE09032
:104B80004B0510914A0580914705081708F4AECFF0
:104B900090E080914B0520914A05281709F4E6C062
:104BA000E82FF0E0E45BFA4F9081292F2F7797FBF5
:104BB000992790F98F5F837080934B058091490509
:104BC0008F5F809349052111C8C0E0901B01F090D0
:104BD0001C0100911D0110911E01911509F48CC05A
:104BE00020E030E046E953E4EB86FC860D871E8723
:104BF0006B857C858D859E850E94B02E87FF20C0A9
:104C000020E030E040E05FE3EF86F88A098B1A8B02
:104C10006F85788989899A890E944C2E7B018C0145
:104C20006B8BFC8A8D8B1E8B2B893C894D895E8911
:104C300020931B0130931C0140931D0150931E01D2
:104C4000EBA2FCA20DA31EA32BA13CA14DA15EA132
:104C500060EC71EE84E69CE40E94B42E20E030E02B
:104C600040E850E46FA378A789A79AA76FA178A519
:104C700089A59AA50E9403306BA77CA78DA79EA744
:104C80006BA57CA58DA59EA50E94212F6F8378879B
:104C900089879A872F81388549855A852035334CF5
:104CA0004105510530F490E59F83A3ECA887198650
:104CB0001A866F81788589859A850E9496048091ED
:104CC000CD0581110E941F0591E063CF8D3F0CF04F
:104CD0004DCF412F50E0BA016F5F7F4F6370772750
:104CE000E616170609F442CF485B5A4F902F90689A
:104CF000DA0114969C9331CF20E030E040E752E493
:104D0000EF8AF88E098F1A8F6F89788D898D9A8D29
:104D10000E94FF2F18160CF093CF20E030E040E007
:104D20005FE3EB8EFC8E0D8F1E8F6B8D7C8D8D8DDA
:104D30009E8DB1D77B018C016F8FF8A289A31AA336
:104D40008F8D98A1A9A1BAA180931B0190931C01FA
:104D5000A0931D01B0931E0173CF6AE070E089EA51
:104D6000911101C08AEA0E945A16AECF911539F00E
:104D70000E948B0B0E9472100E94820F04C00E943E
:104D80007210D110F9CF86E0E5E7F5E0ACA9BDA936
:104D900001900D928A95E1F7B0907605D090770555
:104DA00000917805C090790510917A0510927705E9
:104DB000109278051092790510927A05802F8D292E
:104DC000811509F441C0E0905305F09054050E940C
:104DD0004B129C012E193F0990917305911509F40E
:104DE000B2C02531310580F19F3F19F09F5F90934C
:104DF0007305D11459F00E94BC0A91E01D140CF007
:104E00009FEF899F802D112480937705011559F01C
:104E10000E94BC0A91E010160CF09FEF899F802D34
:104E200011248093780580917705811569F0F090C1
:104E30007805F11449F00E94AE0A809377058F2D12
:104E40000E94AE0A80937805812F8C29811509F480
:104E500041C0E0905105F09052050E944B129C0118
:104E60002E193F0990917205911509F467C02135FB
:104E7000310580F19F3F19F09F5F90937205C11437
:104E800059F00E94DC0A91E01C140CF09FEF899FFE
:104E9000802D112480937905111559F00E94DC0AA8
:104EA00091E011160CF09FEF899F802D11248093C3
:104EB0007A0580917905811569F0F0907A05F114F1
:104EC00049F00E94AE0A809379058F2D0E94AE0AA8
:104ED00080937A05809176058B1119C080917705B2
:104EE000811511F0D81213C020917805211511F009
:104EF00002130DC090917A05911511F0191307C096
:104F000030917905311103C0822B892B81110E94C8
:104F1000D31486E0ECA9FDA9A5E7B5E001900D92B8
:104F20008A95E1F70E94010B90915505891709F4C4
:104F300021CC809355050E948B0B1CCC2B30310566
:104F400008F09ACFC7CF2B30310508F04FCF7CCF78
:104F50008091EC04811509F419CCE9BCD9BC09B4E1
:104F600000FEFDCF8091D8008F7D8093D800809186
:104F7000E00082608093E0008091E00081FDFCCF42
:104F80000E94721603CC78941F921FB61F921124B0
:104F90008F939F93AF93BF9380914202909143026E
:104FA000A0914402B09145020196A11DB11D8093CC
:104FB000420290934302A0934402B0934502BF91F2
:104FC000AF919F918F911F901FBE1F9018951F92B8
:104FD0000F920FB60F9211242F933F934F935F932D
:104FE0006F937F938F939F93AF93BF93EF93FF93B1
:104FF0008091E10082FF09C08091E20082FF05C03C
:105000008091E1008B7F8093E1008091DA0080FF46
:1050100024C08091D80080FF20C08091DA008E7F6C
:105020008093DA008091D90080FFA9C080E189BD1A
:1050300082E189BD09B400FEFDCF81E08093ED04DB
:1050400080913102811109C00E94410C0E94B20D71
:105050008091E20084608093E2008091E10080FF13
:105060001AC08091E20080FF16C08091E2008E7F1E
:105070008093E2008091E20080618093E200809161
:10508000D80080628093D80019BC85E08093ED043D
:1050900083E080930D018091E10084FF2FC0809117
:1050A000E20084FF2BC080E189BD82E189BD09B4A3
:1050B00000FEFDCF8091D8008F7D8093D800809135
:1050C000E1008F7E8093E1008091E2008F7E8093EB
:1050D000E2008091E20081608093E20080913002E2
:1050E000811509F452C084E08093ED048091ED04B1
:1050F000843009F052C082E080930D018091E1007C
:1051000083FF2CC08091E20083FF28C08091E100E2
:10511000877F8093E10082E08093ED04109230025B
:105120008091E1008E7F8093E1008091E2008E7F8C
:105130008093E2008091E20080618093E20042E08F
:1051400060E080E00E94820D8091F0008860809392
:10515000F00081E080930D0180930C01FF91EF91AD
:10516000BF91AF919F918F917F916F915F914F917F
:105170003F912F910F900FBE0F901F90189519BC63
:105180001092ED041092310268CF8091E30087FF06
:1051900002C083E0A9CF81E0A7CF81E0ADCF1F920D
:1051A0000F920FB60F921124EF92FF920F931F935D
:1051B0002F933F934F935F936F937F938F939F931F
:1051C000AF93BF93CF93EF93FF9309EE10E0F801F5
:1051D0008081C091EC008F70C795CC27C795C82BF4
:1051E000108280EFE82EF12CF7018081877F808389
:1051F00078940E94AC16F8011082F70180818860D3
:105200008083CF70F801C083FF91EF91CF91BF9160
:10521000AF919F918F917F916F915F914F913F914E
:105220002F911F910F91FF90EF900F900FBE0F9055
:105230001F901895FF920F931F93CF93DF93182F12
:10524000EB011092BC0084EA8093BC000E944B12D8
:10525000082FF92E8091BC0087FF28C08091B900EB
:10526000887F883029F08091B900887F803199F556
:105270001093BB0084E88093BC000E944B12182F4F
:10528000092F8091BC0087FF1EC02091B900287FA4
:1052900080E090E0283199F081E090E0203411F432
:1052A00080E090E091958195910909C0802F9F2D14
:1052B0000E945712C817D90768F68EEF9FEFCDB737
:1052C000DEB7E5E05AC1812F902F0E945712C81710
:1052D000D907B8F6F2CF8FEF9FEFF1CF1092B90058
:1052E0008CE08093B80008950F931F93CF93DF93C2
:1052F000EB018093BB0084E88093BC000E944B12BA
:10530000182F092F8091BC0087FF11C02091B90090
:10531000287F81E090E0283211F480E090E09195C0
:1053200081959109DF91CF911F910F910895CF3F02
:10533000DC0741F3812F902F0E945712C817D9071D
:1053400008F78EEF9FEFEECFA0E0B0E0E9EAF9E2D8
:10535000F0C0782EB62EA72E6A01E9010E944B12EA
:105360004C01C431D10510F1CF3FDC0719F1CE015A
:1053700064E170E0C5D0F62EE72E6F2D7E2D872DCF
:1053800059DF8C01892BC9F4EB2CFA2CCE0CDF1CD5
:10539000EC14FD0419F001151105C9F084E980939E
:1053A000BC00C801CDB7DEB7EDE0DFC0FF24F39449
:1053B000E12CE3CF85E0F82EFBCFCF3FDC07E9F20D
:1053C000C4010E945712C817D907B8F6DDCFBE0135
:1053D000F70181917F0188DF8C01DACFA0E0B0E096
:1053E000E3EFF9E2A6C0782EB62EA72E6A01890156
:1053F0000E944B124C010431110500F10F3F1007C0
:1054000001F1C80164E170E07BD0EB01BE01872DA2
:1054100011DF7C01892BB9F4CB2DDA2DCC0EDD1EEA
:10542000CC15DD0519F0E114F104B9F084E980939D
:10543000BC00C701CDB7DEB7EDE097C0C1E0D0E05A
:10544000E5CFC5E0FCCF0F3F100701F3C4010E9478
:10545000571208171907D0F6DFCFFE018491B80163
:1054600043DF7C012196DCCFA0E0B0E0E9E3FAE283
:105470005FC0682E962E5A01690178010E944B1276
:10548000782E892E0431110518F10F3F100719F1FC
:10549000C80164E170E034D0162F072F612F702F00
:1054A000862DC8DEEC01892BC1F0FFEFEF16FF0659
:1054B000A9F3872D982D0E945712E816F90670F768
:1054C00084E98093BC00CE01CDB7DEB7EEE04CC0DE
:1054D00011E000E0E3CF15E0FCCFB701892D04DF38
:1054E000EC018501CA0CDB1C0C151D0549F3209746
:1054F00039F7B701F80181918F01F6DEEC01F4CFA5
:10550000AA1BBB1B51E107C0AA1FBB1FA617B707E9
:1055100010F0A61BB70B881F991F5A95A9F7809505
:105520009095BC01CD0108952F923F924F925F92CA
:105530006F927F928F929F92AF92BF92CF92DF92A3
:10554000EF92FF920F931F93CF93DF93CDB7DEB708
:10555000CA1BDB0B0FB6F894DEBF0FBECDBF09949C
:105560002A88398848885F846E847D848C849B84F3
:10557000AA84B984C884DF80EE80FD800C811B8101
:10558000AA81B981CE0FD11D0FB6F894DEBF0FBE30
:10559000CDBFED010895992778E0880F991F9617E0
:1055A00008F0961B881F7A95C9F78095089597FB98
:1055B000072E16F4009406D077FD08D0A1DF07FC73
:1055C00005D03EF4909581959F4F08957095619513
:1055D0007F4F0895052E97FB16F400940FD057FDCA
:1055E00005D01AD007FC02D046F408C0509540956B
:1055F000309521953F4F4F4F5F4F0895909580957F
:10560000709561957F4F8F4F9F4F0895EE0FFF1F4D
:105610000590F491E02D0994A1E21A2EAA1BBB1B60
:10562000FD010DC0AA1FBB1FEE1FFF1FA217B3076E
:10563000E407F50720F0A21BB30BE40BF50B661F84
:10564000771F881F991F1A9469F760957095809548
:1056500090959B01AC01BD01CF010895FB01DC01D8
:1056600002C005900D9241505040D8F70895FB01BB
:10567000DC0104C08D910190801921F4415050400B
:10568000C8F7881B990B0895FB01DC0102C001904B
:105690000D9241505040D8F70895DC0101C06D9340
:1056A00041505040E0F70895AEE0B0E0E9E5FBE29C
:1056B00049CF0D891E898F89988D26E02C831A8306
:1056C000098397FF02C080E090E801979E838D8355
:1056D000AE01455E5F4F698D7A8DCE01019631D066
:1056E0004D815E8157FD0AC02F81388542175307CF
:1056F0000CF49A01020F131FF80110822E96E4E0B9
:105700003DCFAEE0B0E0E6E8FBE21CCF0D891E899C
:1057100086E08C831A8309838FEF9FE79E838D83B6
:10572000AE01475E5F4F6F89788DCE01019609D03B
:105730002F813885020F131FF80110822E96E4E0A6
:105740001DCFABE0B0E0E6EAFBE2EECE7C013B0130
:105750008A01FC0117821682838181FFABC19AE026
:10576000292ECE0101965C01F7019381F30193FD8F
:10577000859193FF81913F01882309F43CC18532D3
:1057800039F493FD859193FF81913F01853221F496
:10579000B70190E0A8D1E8CF912C412C512CFFE12A
:1057A000F51538F08B3209F188F4803201F183323B
:1057B00021F157FC3AC020ED280F2A3040F556FE63
:1057C0001FC0929C200D1124922E06C08D3291F0A4
:1057D000803379F7689450F8F30193FD859193FF36
:1057E00081913F018111DBCF20C0689451F868940A
:1057F00052F8F2CF689453F8EFCF689454F8ECCF96
:10580000429C200D1124422E689455F8E5CF8E322B
:1058100029F456FCF0C0689456F8DECF8C3619F4A3
:10582000689457F8D9CF8836B9F2982F9F7D955450
:105830009330B8F0833691F18337B1F1833509F0B5
:1058400056C0F801C190D1908F01692D70E056FCCF
:1058500002C06FEF7FEFC60130D14C01689457F85A
:105860000AC00C5F1F4F2FE3298388248394912C57
:105870006501E89457F853FC04C04814190409F072
:1058800008F5342C8114910419F5332009F46CCFF8
:10589000B70180E290E027D13A94F7CFF8018081F8
:1058A00089830E5F1F4FE1CFF801C190D1908F0126
:1058B000692D70E056FC02C06FEF7FEFC60108D182
:1058C0004C01D7CFB70180E290E00DD14A94D5CFFB
:1058D000F60157FC859157FE81916F01B70190E069
:1058E00002D131103A94F1E08F1A9108CBCF84366F
:1058F00019F0893609F070C0F80157FE66C0619151
:105900007191819191918F01252D2F76D22E97FF44
:1059100009C090958095709561957F4F8F4F9F4FEF
:105920006894D7F82AE030E0A5010DD1C82ECA1836
:105930008C2C5D2CD6FE0CC0E89450F8C91440F4B1
:10594000D4FE05C0D2FC03C0FD2DFE7E5F2E892C47
:1059500054FE8AC0FE01EC0DF11D8081803309F0F8
:105960007CC0252D297E522E852D8870382E53FC23
:1059700089C050FE83C09C2C841418F44C0C942CC9
:10598000981854FE85C0B70180E390E0ACD052FE79
:1059900008C088E790E051FE02C088E590E0B701BA
:1059A000A2D0C91408F480C0CA94D12C9FEFC91AA0
:1059B000D90ACA0CDB1CF60182916F01B70190E095
:1059C00092D0AC14BD04B9F760CF61917191072EEC
:1059D000000C880B990B97CFD52CE894D4F82AE0CB
:1059E00030E0853731F1952D997FD92E8F36F9F03A
:1059F00040F48835A1F0F701868197812B96E2E18A
:105A0000AFCD803749F08837B1F7D4FE02C0689433
:105A1000D2F820E130E00DC06894D4F8F6CF54FEFF
:105A200003C0E92FE660DE2E20E132E002C028E06C
:105A300030E0F801D7FE0CC0619171918191919194
:105A40008F01A50180D0C82ECA18E894D7F870CF6E
:105A50006191719190E080E0F3CF52FC02C0839499
:105A600083CF8394839480CF852D867809F47CCF6F
:105A7000F6CFB70180E290E036D083948414C8F367
:105A8000312C7FCF342C3818841408F47ACFF8CF17
:105A9000852D867809F485CF8BE251FE80E257FC94
:105AA0008DE2B70190E07CCFB70180E390E01BD09E
:105AB0009A9477CF8FEF9FEFA1CFFC0105906150B3
:105AC00070400110D8F7809590958E0F9F1F089514
:105AD000FC016150704001900110D8F780959095BD
