:100000005FC6000095C6000093C6000091C60000C0
:100010008FC600008DC600008BC6000089C6000098
:1000200087C6000085C600000C94592A0C94412B09
:100030000C94CE127DC600007BC6000079C600007D
:1000400077C600000C94C81273C6000071C6000089
:100050006FC600000C94352A6BC6000069C600000C
:1000600067C6000065C6000063C6000061C60000E8
:100070005FC600005DC600005BC6000059C60000F8
:1000800057C6000055C6000053C6000051C6000008
:100090004FC600004DC600004BC6000049C6000018
:1000A00047C6000045C6000043C60000933A000161
:1000B0008002400420041002080104030284043872
:1000C00040802E0003803100821CE2020104020104
:1000D0000104000280090082800002308200C00218
:1000E000C187C2040810204080030004800440043B
:1000F0002004100508050404020401330084807004
:100100000C030700030C880D010040A021221203FC
:10011000110109040802040208051082110F0201EE
:1001200036000580054005200510050805048202FB
:10013000030202060102020204050801073D009ABB
:10014000330002800500018002400420041083086F
:100150000402020185020C3040802E000380310031
:10016000821EE10200020102020101040002800974
:100170000082800002308200C002C187C2040810E1
:10018000204080030004800440042004100508057A
:10019000040402040133008480700C030700030C84
:1001A000880D010040A02122120311010904080258
:1001B000040208051082110F020136000580054077
:1001C000052005100508050482020302020601024B
:1001D000020204050801073D008C3B000280044038
:1001E000042083100804020284041860802F000396
:1001F000803100823CC2020102020204820201102C
:1002000000026082008102828684081020408004FF
:1002100000048004400420041005080504040204BE
:10022000013300848070190607000318881B03003F
:1002300040A02224140312010B0408020502090540
:100240001082110F020136000580054005200510BF
:1002500005080504820203020206010202020405E7
:100260000801073D00903A0001800240042005107B
:100270000208030484083040802E0003803100838C
:1002800018648205020101040002800900828000D6
:1002900002308200C002C187C204081020408003DF
:1002A000000480044004200410050805040402042E
:1002B00001330084C03804030700030C880D0100DB
:1002C00040A02122120311010904080204020805BA
:1002D0001082110F0201360005800540052005102F
:1002E0000508050482020302020601020202040557
:1002F0000801073D0099330002800500018002409B
:100300000420041083080402020185020C3040809E
:100310002E0003803100821EE10200020102020170
:1003200001040002800900828000023002008A017C
:10033000E11A06093135018A7C0200048004400478
:1003400020041005080504040204013300848070B1
:100350000C030A000201860040A0212212031101B1
:10036000090408060403020401360005800540055F
:1003700020051005080504820203027A04798239F7
:100380003102020204030802888287803C00B433F1
:10039000000280050001800240042004108308044C
:1003A00002020185020C304080070004F8050002BB
:1003B000801C0003803100821EE102000201020263
:1003C0000181028002000280090082800002300266
:1003D0000002018E02040810204387070100B8BC08
:1003E000BE9F025F824F4C042004100508050404E0
:1003F00002040133008480700C0302008818060593
:10040000989984437C0241024084202122120311E6
:100410000109040802040208051085110F013D7C42
:1004200005FC823C0C2E00058005400520051005CA
:1004300008050482020302020601240001010203EE
:10044000200000AF00AE07087F0807003E5B4F5B4F
:100450003E003E6B4F6B3E001C3E7C3E1C00183C39
:100460007E3C18001C577D571C001C5E7F5E1C00E4
:1004700000183C180000FFE7C3E7FF00001824182D
:100480000000FFE7DBE7FF0030483A060E002629B0
:1004900079292600407F05050700407F05253F009C
:1004A0005A3CE73C5A007F3E1C1C0800081C1C3EBE
:1004B0007F0014227F2214005F5F005F5F00060947
:1004C0007F017F00006689956A006060606060005F
:1004D00094A2FFA2940008047E04080010207E204D
:1004E000100008082A1C0800081C2A0808001E1012
:1004F000101010000C1E0C1E0C0030383E3830005E
:10050000060E3E0E060000000000000000005F0026
:100510000000000700070000147F147F1400242A45
:100520007F2A1200231308646200364956205000C7
:10053000000807030000001C224100000041221CAB
:1005400000002A1C7F1C2A0008083E0808000080C2
:100550007030000008080808080000006060000013
:100560002010080402003E5149453E0000427F40F1
:1005700000007249494946002141494D3300181491
:10058000127F10002745454539003C4A4949310052
:100590004121110907003649494936004649492990
:1005A0001E0000001400000000403400000000089D
:1005B00014224100141414141400004122140800E1
:1005C0000201590906003E415D594E007C1211128C
:1005D0007C007F49494936003E41414122007F412C
:1005E00041413E007F49494941007F090909010015
:1005F0003E41415173007F0808087F0000417F4160
:1006000000002040413F01007F08142241007F404C
:10061000404040007F021C027F007F0408107F00E2
:100620003E4141413E007F09090906003E415121FA
:100630005E007F0919294600264949493200030115
:100640007F0103003F4040403F001F2040201F002B
:100650003F4038403F0063140814630003047804EB
:1006600003006159494D4300007F414141000204AC
:1006700008102000004141417F00040201020400F3
:1006800040404040400000030708000020545478D8
:1006900040007F284444380038444444280038440B
:1006A00044287F0038545454180000087E09020082
:1006B00018A4A49C78007F080404780000447D40BE
:1006C00000002040403D00007F1028440000004111
:1006D0007F4000007C04780478007C0804047800E3
:1006E000384444443800FC182424180018242418E2
:1006F000FC007C08040408004854545424000404FA
:100700003F4424003C4040207C001C2040201C0032
:100710003C4030403C004428102844004C909090CD
:100720007C004464544C4400000836410000000042
:1007300077000000004136080000020102040200B8
:100740003C2623263C00000000000000404040F012
:10075000F8F8FF38FFF8F83FF8F8FF38FFF8F8F03E
:1007600040404000000000000080C0C0C080000089
:10077000C0C08000000080C0C000C0C0000080C0B9
:10078000C00000000000C0C0C0C0C000C0C0000069
:100790000000000000000000000000000000000059
:1007A0000000000000000000000000000000000049
:1007B0000000000000000000000000000000000039
:1007C0000000000000C0F0F8FC3E1E060100000022
:1007D0007F4141417F007F4141417F000080C0E077
:1007E0007E5B4F5BFEC00000C000DCD7DEDEDED7E4
:1007F000DC00C0000000000000000000000000005D
:10080000000000000000000000000000494949FF0E
:10081000FFFFFFE0DFBFBF00BFBFDFE0FFFFFFFF65
:1008200049494900000000001F3F6060E0BF1F0011
:100830007F7F071E381E077F7F007F7F0E1F3B7163
:100840006000000000007F7F0C0C0C007E7E007FAB
:100850007E0303007F7E03037E7E03037F7E000F03
:100860003E703C063C703E0F00327B49493F7E00A3
:100870007F7E0303001E3F69696F260000000000B1
:100880000000000000030F1F3F3C78706000000074
:100890007F4141417F007F4141417F00307B7F7834
:1008A00030202030787F3B0003000F7F0F0F0F7F39
:1008B0000F00030000000000000000000000000026
:1008C000000000000000000000000000010101071E
:1008D0000F0F7F0F7F0F0F7E0F0F7F0F7F0F0F0701
:1008E0000101010000000000000000000001010003
:1008F00000000000000000000000000000000000F8
:1009000000000000000000000000000000000000E7
:1009100000000000000000000000000000000000D7
:1009200000000000000000000000000000000000C7
:1009300000000000000000000000000000000000B7
:1009400000000000000000000000000000000000A7
:100950000000000000000000000000000000000097
:100960000000000000000000000000000000000087
:100970000000000000000000000000000000000077
:1009800000000000000005010902A1018502090123
:10099000A10005091901290815002501950875010F
:1009A00081020501093009311581257F95027508FD
:1009B000810609381581257F950175088106050C8A
:1009C0000A38021581257F950175088106C0C0058A
:1009D000010980A101850319012AB700150126B775
:1009E00000950175108100C0050C0901A101850465
:1009F00019012AA002150126A00295017510810097
:100A0000C005010906A101050719E029E715002520
:100A10000195087501810295017508810105071985
:100A20000029FF150026FF009506750881000508BE
:100A300019012905150025019505750191029501FA
:100A400075039101C009023B00020100A0FA0904EC
:100A500000000103010100092111010001224400ED
:100A600007058103080001090401000103000000DB
:100A7000092111010001227B0007058203200001EA
:100A80001201000200000008574B0233000201026D
:100A900000010A0362006500610072000000220389
:100AA0005400720061006E00200048006F00610079
:100AB0006E00670020004700690061006E0067005B
:100AC000000004030904963300028005000180023F
:100AD000400420041083080402020185020C304007
:100AE000802E0003803100821EE10200020102021A
:100AF000018102800200028009008280000230022F
:100B0000008A01E11A06093135018A7C020004805D
:100B10000440042004100508050404020401330005
:100B20008480700C03020088180605989984C37CA1
:100B30000241024084202122120311010904080607
:100B40000403020401360005800540052005100558
:100B5000080504820203020206014700204F4646B0
:100B60000A00204F4E0A0042504D200000010101B2
:100B7000010101010101020202020202020202035A
:100B8000030303030303030404040404040405052A
:100B900005050506060606060707070707080808ED
:100BA00008090909090A0A0A0B0B0B0C0C0C0D0D9C
:100BB0000D0E0E0E0F0F0F10101111111212131334
:100BC0001414151516161717181819191A1A1B1BAD
:100BD0001C1D1D1E1E1F2020212222232424252609
:100BE00026272829292A2B2C2D2D2E2F3031323241
:100BF000333435363738393A3B3C3D3E3F4041424D
:100C0000434445464748494A4C4D4E4F5051535432
:100C1000555658595A5B5D5E5F61626465666869E6
:100C20006B6C6D6F7072737577787A7B7D7E808266
:100C3000838587888A8C8E8F91939596989A9C9EAF
:100C4000A0A2A3A5A7A9ABADAFB1B3B5B7BABCBEBF
:100C5000C0C2C4C6C9CBCDCFD1D4D6D8DBDDDFE28C
:100C6000E4E7E9EBEEF0F3F5F8FAFDFF00DA0281D4
:100C7000FFD9F1DB20A4A62EAF00A0C0D30000A1B5
:100C8000C8D30000AED580A81F408D1420000000FE
:100C90000000417E000000002C005200407E000059
:100CA0000000500051004F00000000000000000054
:100CB0000000000000000000000000000000000034
:100CC00011241FBECFEFDAE0DEBFCDBF04B603FEB6
:100CD00018C08091EB059091EC05A091ED05B091C5
:100CE000EE058730904BA740B04B59F41092EB05BE
:100CF0001092EC051092ED051092EE05E0E0F8E39D
:100D0000099525E0A6E2B2E001C01D92AB3EB20714
:100D1000E1F712E0A0E0B1E0E4E4F7E602C00590FC
:100D20000D92A632B107D9F70E94A9240C942C3356
:100D300067C94F925F926F927F928F929F92AF920C
:100D4000BF92CF92DF92EF92FF92CF93DF9300D0CA
:100D500000D0CDB7DEB7F8941092800010928100D9
:100D600010928200109285001092840020918100E0
:100D70002860209381000E94133220E034E244E78F
:100D80005BE469837A838B839C8369817A818B811D
:100D90009C810E94C93220E034E244E75EE42B01EA
:100DA0003C01C301B2010E947A314B015C01C501D3
:100DB000B4010E94E7316B017C01C092E705D0923B
:100DC000E805E092E905F092EA058091E705909147
:100DD000E805A091E905B091EA050097A140B105A9
:100DE00060F08FEF9FEFA0E0B0E08093E705909375
:100DF000E805A093E905B093EA058091E705909195
:100E0000E805A091E905B091EA05909389008093E7
:100E1000880080916F00826080936F0078940F90BB
:100E20000F900F900F90DF91CF91FF90EF90DF9098
:100E3000CF90BF90AF909F908F907F906F905F907A
:100E40004F900895E1E8F0E0808185608083109202
:100E50008500109284001092E3051092E405109230
:100E6000E5051092E60581E08093E20508959093F0
:100E7000980580939705089590939A058093990516
:100E8000089521E030E002C0220F331F8A95E2F777
:100E90008091990590919A05822B932BEDCF21E0BB
:100EA00030E002C0220F331F8A95E2F7209530957B
:100EB0008091990590919A0582239323DDCF9530F7
:100EC00090F5853080F5E82FF0E085E0989FE00D03
:100ED000F11D11248E2F877041E001C0440F8A95C7
:100EE000EAF783E0F695E7958A95E1F7EE0FFF1FA5
:100EF000EE0FFF1FE958FA4F20E030E070E051910B
:100F0000DF01CB01022E02C0969587950A94E2F785
:100F1000817081958527842385278E932F5F3F4F8E
:100F20002430310561F70895953078F5853068F5FE
:100F3000E82FF0E085E0989FE00DF11D11249E2F31
:100F4000977083E0F695E7958A95E1F7EE0FFF1F1E
:100F5000EE0FFF1FE958FA4F40E050E080E021918A
:100F600030E0092E02C0369527950A94E2F72170E9
:100F70003327042E01C0220F0A94EAF7822B4F5F19
:100F80005F4F4430510559F7089580E008958091EE
:100F9000A00590919F05981301C008958F5F8770F9
:100FA000FACF90919B058095892380939B05282FEC
:100FB000277021110CC0891751F090919D0592FF67
:100FC00006C08695869586956ADF10929B050895E2
:100FD000982F909580919405892380939405089586
:100FE000753090F4653080F4811111C0E62FF0E087
:100FF00085E0789FE00DF11D1124EE0FFF1FE257F1
:10100000F34F85919491089580E090E0089581E0F8
:10101000FCCF9C01803E910509F448C0D8F481338F
:10102000910509F47DC048F48932910509F46DC039
:101030008A9709F47CC0C90108958933910551F15B
:101040008238910539F1C597B1F780919C0585FFEC
:10105000F2CF29C0843E910509F447C048F4823E8E
:10106000910599F1833E9105A9F121EE30E0E3CF9E
:10107000863E910509F444C0873E9105E1F68091D2
:101080009C0583FD61C090919D0591FF2BC024EECE
:1010900030E0D1CF80919C058370811152C0809146
:1010A0009D0583FFC8CF29E230E0C5CF80919C0524
:1010B00080FD33C090919D0590FFBDCF23EE30E0C1
:1010C00084FFB9CF20E030E0B6CF80919C0582FD4F
:1010D000F5CFB1CF80919C0582FD30C090919D05E8
:1010E00090FD2FC084FFA7CFEDCF80919D0581FF9C
:1010F000A2CF80919C0527EE30E084FDE3CF9BCF0B
:1011000080919C0583FDF7CF96CF80919C0585FD4E
:101110001EC080919D0583FF8ECF29E330E08BCFE9
:1011200080919C0586FF87CF2AE230E084CF8091B2
:101130009C0586FF80CF21E330E07DCF22EE30E0BA
:101140007ACF20EE30E077CF26EE30E074CF25E383
:1011500030E071CF90919C0592FF10C041E0282FA4
:101160002471243009F040E031E0282F2871283024
:1011700009F030E0431711F02CE0822793FF10C0F4
:1011800041E0282F2471243109F040E031E0282F7C
:101190002871283109F030E0431711F02CE0822744
:1011A00030919D0530FF10C051E0282F2171213072
:1011B00009F050E041E0282F2871283009F040E084
:1011C000541711F029E0822731FF10C041E0282F89
:1011D0002171213109F040E031E0282F28712831B8
:1011E00009F030E0431711F029E0822794FD877E53
:1011F00008951F93CF93DF930CDFEC01811522E557
:10120000920708F052C0811540E5940708F0CDC060
:10121000803E910520F58D3C910508F0A1C0883AEB
:10122000910570F4853A910508F097C081309105D9
:10123000B9F10497813A910598F1C0E0D0E030C04F
:10124000885A91094B97C8F7C85AD0E0CC0FDD1FD8
:10125000C754DE4F0990D881C02DD46421C08115B8
:1012600050E49507B0F4C11580E2D80708F0B3C088
:10127000C83ED105A8F0CE019A9581159F41E8F6A8
:101280008D2F68DF182FCE019927C3DEEC01D12BFB
:1012900007C09927BEDECC27DF70C82BD92BD06AB8
:1012A000CE01DF91CF911F910895803842E59407D8
:1012B000C8F5803652E5950708F05BC0C03482E57A
:1012C000D807D0F4C03292E5D90708F04BC08C2F74
:1012D0008695869520E2829FC0011124C37021E08B
:1012E00030E0A90102C0440F551FCA95E2F7EA0198
:1012F000C82BD92BDD68D4CF8C2F86958695877027
:1013000050E2859FC0011124C37021E030E0A901A3
:1013100002C0440F551FCA95E2F7EA01C82BD92B2A
:10132000DC68BECF803C52E5950758F48F71C03A17
:10133000D245A0F590E0982F8827EC01C46FD06AC1
:10134000AFCF805C9245809708F077CFDC2FCC2719
:10135000CC27DF71C06FD06AA3CFA497D064A0CF91
:10136000D0659ECFCF71D0E0DC2FCC27C16FD06A83
:1013700097CF86958695877020E2829FC0011124C1
:10138000C37021E030E0A90102C0440F551FCA9587
:10139000E2F7EA01C82BD92BDA6882CFDBDEC82F4F
:1013A000D0E0DC2FCC27D0627BCF8F71D3DE93E0EF
:1013B000CC0FDD1F9A95E1F7CC27DF70282F30E0A6
:1013C00084FF05C050E1859F900111243327C22B73
:1013D000D32BD06965CF8D2F8F71BCDE182FCE0136
:1013E000992717DEEC01D12BDECFA0E0B0E0EBEFC8
:1013F000F9E00C940F2D8C01E0909905F0909A057E
:101400008091970590919805E82AF92ACFE0D0E0DD
:10141000CC24C394D12CC6010C2E02C0880F991F76
:101420000A94E2F78E219F21892B49F4219798F79E
:10143000B12C8B2DCDB7DEB7E9E00C942B2DBC2E53
:10144000B8018C2FCDDDD5DE019781F3F2CF0F935C
:101450001F93CF93FC01858100811181811579F063
:10146000611569F0C801C1DFC82F682FC80127DDE9
:10147000B8018C2FB5DDCF911F910F910895C80150
:1014800053DDC82FF5CFCF93DF93D82FC92FADDF12
:101490006D2F7C2FA5DDADDEDF91CF910895FC018E
:1014A0008481811599F080819181EDDF282F9295BB
:1014B0009F70963099F060F4925F9F70923030F494
:1014C000203FB1F038F481E0283E38F080E0089504
:1014D0009A5FF3CF81E0243FC9F7089591E0213F5F
:1014E00009F090E081E0283E08F080E0892B089523
:1014F00081E0089580E00895F894E82FE295EF7078
:10150000F0E041A18F7021E030E0B90102C0660F28
:10151000771F8A95E2F7CB01962F9095942391A39C
:1015200092A1892B82A378940895CF92DF92EF92B3
:10153000FF921F93CF93DF93172FE82FF0E0E4592A
:10154000F44F71110CC0E4918E2F7E2F6E2FDF911E
:10155000CF911F91FF90EF90DF90CF900895E62EEE
:10156000F12CC72ED12CF491EF2F86E0689F9001CB
:101570001124CFEFD0E0C901BE010E94F22CAB01D3
:10158000EE0CFF1C65E5649FC001659F900D112462
:10159000E81AF90A6E2D660F6E0D7E01EC18FD0833
:1015A000FE9DD001FF9DB00D11248B2F169F700161
:1015B0001124EF2CFF246E01CE18DF087601FE9D6A
:1015C0006001FF9DD00C11247E01E61AF108B701DD
:1015D000169F7001179FF00C1124EF2CFF24CE19D9
:1015E000DF09FC9F7001FD9FF00C11247F2D43301B
:1015F0005105C1F02C3F334058F441305105B1F052
:101600004230510509F0A2CFEB2F8F2D7F2F9ECFB7
:101610004430510571F04630510509F497CF7B2FC6
:101620008D2D94CF7D2DEB2F8F2F90CF7F2FED2DF4
:101630008DCFEF2D7B2FF8CF282F269F020E20E095
:10164000211D1124822F08959C0180E090E0269FA7
:10165000020E811D369F800D911D1124830F911D57
:101660000895AC018230910508F408959FEF413E42
:101670008EE1580740F4CA0125E0969587952A9592
:10168000E1F798E0980F61E0E62FE90FFF27FF1FD1
:101690009F0135952795822F229FF001239FF00D02
:1016A000F00D11244E175F0738F49FEF920F961735
:1016B00058F78FEF860F08952F3FE9F361E0620F2F
:1016C000F6CFCF93DF93D62FC72F682F2695E22F23
:1016D00026FDE0959E2F9F7026FD9F5FE695E6957F
:1016E000E695E670F0E0E85BFE4F3181399F302DE2
:1016F000912D112432953F709295907F392B8081E6
:10170000830F27FD819587FD8195880F95DF6D2FCC
:101710007C2FDF91CF910895622F0895E42FF0E0A0
:10172000EE0FFF1FE65AFE4F618D621B0895E42FF6
:10173000F0E0EE0FFF1FEC58FE4F6081621B089532
:10174000CF93DF93D62FC72F682F842F809574DF18
:101750006D2F7C2FDF91CF9108951F93CF93DF934F
:10176000162FD72FC82F60E4842F809565DF682F50
:10177000610F7D2F8C2FDF91CF911F910895EF92F4
:10178000FF920F93E00EF11CF90137FF03C0F195B2
:10179000E195F10924E0EE0FFF1F2A95E1F7E1152D
:1017A00031E0F30714F0EFEFF0E0DA0157FF03C088
:1017B000B195A195B10994E0AA0FBB1F9A95E1F7E5
:1017C000AE17BF070CF4FD01EE0DFF1DE11591E012
:1017D000F90710F0EFEFF0E02E2F2095382F320FA1
:1017E00008F43FEF832F0F91FF90EF90089500C111
:1017F000089509C10895880F880F94E0980F9331D8
:1018000008F092E10895E1E2F5E0808191E0892716
:10181000808310921F0180919305816080939305CE
:101820000895809121058370811102C010921F01DB
:10183000809121058C7F81608093210580919305A3
:1018400081608093930508958091210583708111B3
:1018500010921F01809121058C7F809321050895AE
:10186000E1E2F5E0248130E1230F08F42FEF248337
:10187000809193058160809393050895E1E2F5E0FE
:10188000248130E1231B08F420E024838091930518
:1018900081608093930508959B016130724010F040
:1018A00020E032E0F901E354FD4F90819817C9F030
:1018B000808385E0369527958A95E1F781E090E071
:1018C000AC0102C0440F551F2A95E2F79A0180919E
:1018D000B9029091BA02842B932B9093BA02809311
:1018E000B9020895A0E0B0E0E8E7FCE00C940E2D0A
:1018F0007C01FC01C490DD24D39400E810E0DC14EA
:1019000028F0CDB7DEB7EAE00C942A2DF701ED0DF3
:10191000F11DD491C1E0CD0DD7FF15C0DF77DC2ECE
:10192000DD0EB801CD1103C00D0F111DE8CFF70179
:10193000EC0FF11D8491CF5F5B01FFEFAF1ABF0A7F
:10194000ABDFB501EFCFF701EC0FF11DC491D394DC
:10195000D394B801862F801B8D1730F75B018FEF72
:10196000A81AB80A8C2F98DFB501F4CF90E0611562
:10197000E9F08E5C9E4FFC0180818F3FB1F0E82F33
:10198000E295EF70F0E041A18F7021E030E0B90105
:1019900002C0660F771F8A95E2F7CB01962F9095CC
:1019A000942391A392A1892B82A30895805D9E4FD9
:1019B000E2CF90E06115A9F08E5C9E4FFC01208182
:1019C0002F3F91F0E22FE295EF70E05EF0E0808132
:1019D00090E02F7002C0959587952A95E2F7817067
:1019E0000895805D9E4FEACF80E00895279A08957C
:1019F000FC01EE0FFF1FE80FF91FE65AFD4F618350
:101A0000408322830895FF920F931F93CF93DF9318
:101A1000182F062FF42EC0E0D0E02F2D402F612F7D
:101A2000CE01E6DF2196C231D105B9F7CDB7DEB7D9
:101A3000E5E00C942F2D282F35EB2303C001112452
:101A400097FF04C080589109892F089580589F4FAF
:101A5000FBCF8091890580FD14C081FD14C082FDFB
:101A600016C080918805811581F08E3180F420E5C3
:101A7000829FC00111246EE170E00E94492D862FE3
:101A8000089584E1089588E2089588E0089580E546
:101A900008958091890580FD17C081FD17C082FDE2
:101AA00019C080918705811599F0883298F428E053
:101AB000829FC001112468E270E00E94492D6115E7
:101AC000710551F0862F089562E0FCCF64E0FACFF3
:101AD00061E0F8CF68E0F6CF81E00895E0916D0510
:101AE000F0916E05309739F00190F081E02D30973C
:101AF00011F00995089580E00895A3E0B0E0E3E8CF
:101B0000FDE00C94162D9C01809158029091590291
:101B100082179307B1F03093590220935802E09155
:101B20006D05F0916E05309761F00084F185E02D30
:101B3000309739F083E089833B832A83CE01019675
:101B400009952396E2E00C94322DA3E0B0E0EBEA95
:101B5000FDE00C94162D9C01809156029091570245
:101B600082179307B1F03093570220935602E09109
:101B70006D05F0916E05309761F00084F185E02DE0
:101B8000309739F084E089833B832A83CE01019624
:101B900009952396E2E00C94322D9C01FC013296CB
:101BA0008FEF90E04191461751F08F3F19F44111AA
:101BB00001C0892F9F5F9630A9F78F3F09F40895E0
:101BC000280F311D87FD3A95F901628308959C0124
:101BD000FC013296285F3F4F8191861302C0DF01DE
:101BE0001E92E217F307C1F708958091120108953C
:101BF0002FB7F89460915202709153028091540271
:101C0000909155022FBF08950895FC019B0180918A
:101C10004802909149028617970740F0672B29F4F4
:101C20008091E8008E778093E800C90140E000973A
:101C300041F4411106C08091E80082FF2FC080E08E
:101C40000895209102052115A9F12530A9F12091CF
:101C5000E80023FD2DC02091E80022FDECCF20916B
:101C6000E80020FFE4CF3091F3002091F2000097CC
:101C700019F02830310558F041E02830310509F0DD
:101C800040E02091E8002E772093E800D0CF4191EA
:101C90004093F10001972F5F3F4FE9CF80910205FC
:101CA000811541F0853041F08091E80083FFC3CF7A
:101CB00081E0089582E0089583E0089580914202D2
:101CC00087FF13C08091E80082FF06C08091E80082
:101CD0008B778093E8000895809102058111F2CFFF
:101CE0000895809102058115D9F38091E80080FF65
:101CF000F8CF8091E8008E77ECCF2091E40030910E
:101D0000E50095E6A9012091EC00822F817020FF6B
:101D100006C08091E80080FF06C080E00895209111
:101D2000E80022FD1AC080910205811589F08530F6
:101D300089F08091EB0085FD0FC02091E400309187
:101D4000E50042175307F9F29A95E1F684E0089509
:101D500082E0089583E0089581E00895E8EDF0E0E1
:101D600080818E7F80831092E2001092DA001092C0
:101D7000E100A0EEB0E08C9181608C9380818F7740
:101D8000808319BCA7EDB0E08C918E7F8C9380810D
:101D90008F7E8083109241020895EF92FF920F93FD
:101DA0001F93CF93DF937C0180910E0124DDC82F18
:101DB000192F609125056695669521E0620F08F45C
:101DC0006FEF8091C4049091C5043EDC082FD0E0F1
:101DD000C11748F081E0123108F080E0CDB7DEB7DE
:101DE000E6E00C942E2DFE01E65AFE4F85AD909153
:101DF0000F018923811579F06091220570912305E7
:101E000080912405202F4C2FF70109958EDB472F59
:101E1000282FCE01ECDC2196DBCFA0E0B0E0E3E19F
:101E2000FFE00C940D2D7C0180910E01E4DCC82FA5
:101E3000B92E2091250531E0230F08F42FEF30E073
:101E400040E050E06FEF7FEF80E090E00E94B43020
:101E50006901D0E0A22E9D2C2C2FCB1550F081E0F3
:101E6000F2E1BF1608F080E0CDB7DEB7EBE00C94EE
:101E7000292DFE01E65AFE4F85AD90910F01892371
:101E8000811501F18091CD048150082E000C990B31
:101E900087FF1AC00A2D192D6091250521E0620FD8
:101EA00008F46FEFC801D0DBAC016091220570919E
:101EB000230580912405F701099537DB472F282F4B
:101EC000CE0195DC2196C8CFFC01E353FB4F31894D
:101ED00032130AC0FC01EE0FFF1FE353FB4F018DCD
:101EE000128D0C151D05C0F20197D2CF90912105DE
:101EF0009370911591F08A3008F089E0880F880F6F
:101F0000909121059370892B8093210510921F01D8
:101F100080919305816080939305089580912105B8
:101F2000869586958F5F8A3008F081E0DFCF8091BB
:101F30002105869586958A9509F489E0D7CF9091F9
:101F400021059370911571F080932205609323050C
:101F5000413F08F040EF4093240580919305816054
:101F6000809393050895E1E2F5E0818190E043815B
:101F700062810896E4CFE1E2F5E0818143816281EC
:101F80008850990BDCCFE1E2F5E0628120E1620F3D
:101F900008F46FEF8181438190E0D1CFE1E2F5E079
:101FA000628120E1621B08F460E08181438190E05E
:101FB000C6CFE1E2F5E043812CE0420F08F44FEF99
:101FC0008181628190E0BBCFE1E2F5E043812CE0CA
:101FD000421B08F440E08181628190E0B0CF982FED
:101FE0009093E900891771F07091EC002091ED0059
:101FF0005091F00021FD09C09F5F973089F78093D1
:10200000E9000895762F242F50E03091EB003E7FB9
:102010003093EB003091ED003D7F3093ED00309137
:10202000EB0031603093EB007093EC002093ED00F7
:102030005093F0002091EE0027FDDECF0895A0E040
:10204000B0E0E5E2F0E10C94102DC8EDD0E088811D
:102050008F7E8883E7EDF0E080818160808384E07B
:1020600082BF81E08093410288818E7F888302EE67
:1020700010E0F80110821092DA0081EEC82ED12C07
:10208000F601108288818F778883888180688883B1
:1020900088818F7D888319BC1092020510924002BE
:1020A0001092010510923F0290EEE92EF12CF701FB
:1020B00080818B7F808388818160888342E060E0BB
:1020C00080E08DDFF60180818E7F8083F801808142
:1020D00081608083808188608083F70180818E7F2A
:1020E0008083888180618883CDB7DEB7E8E00C9477
:1020F0002C2DE091A00590919F0527E0E91302C0E7
:1021000080E00895AE2FB0E02E9FF0011124EF552E
:10211000FA4F3181361306C03081381303C0358140
:10212000341304C0FD013196E770E8CF81E00895D3
:1021300035B13F7725B120684FB7F8948AE592E032
:10214000FC010196508168E025B9000000C057FFEE
:1021500035B9550F000000C000C000C035B900C03F
:102160006A9591F752E08039950751F74FBF8FE597
:1021700094E00197F1F700C00000089581E080939A
:10218000E00080E28093D8001092C9008FE19EE4C5
:102190000197F1F700C0000087E090EBDC0180932D
:1021A000EB059093EC05A093ED05B093EE0588E167
:1021B0009CE00FB6F894A895809360000FBE9093B2
:1021C0006000FFCF0F931F93CF93DF938B01EA0142
:1021D00090910205943051F58093E9008FEF909132
:1021E000E80095FD06C095ED9A95F1F700008A95F7
:1021F000B1F78091E80085FF19C07FDD811111C022
:102200008091E80085FD06C08091E8008E7780937C
:10221000E800F3CFF80181918F018093F1002197BD
:1022200079F78091E8008E778093E800DF91CF9175
:102230001F910F910895CF93DF93D82FC92F48E0B6
:1022400050E0682F792F81E0BDDF88E0ED2FFC2F73
:10225000AAE4B2E001900D928A95E1F7DF91CF9167
:102260000895BC0146E050E082E0ACCFBC0143E001
:1022700050E082E0A7CF90919D0592FB222720F9A4
:10228000281779F080FB92F990939D0560919C0549
:1022900070919D0584E090E00E94B03082E00C9443
:1022A000D1070895EDEBF2E080E092E0DF019C01C0
:1022B0001D9221503040E1F7F093BC02E093BB0245
:1022C0008FEF9FEF9093BA028093B90208958091A7
:1022D000940590919E05892B40919505411589F0B3
:1022E00090E02AE232E0F90150812F5F3F4F511117
:1022F0009F5F52E020333507B1F791111092950599
:10230000842B8093280248E050E06FE675E088E275
:1023100092E00E94C02D892BB9F088E0E8E2F2E05B
:10232000AFE6B5E001900D928A95E1F7E0916D0579
:10233000F0916E05309741F00280F381E02D3097E7
:1023400019F088E292E009950895811531F0909195
:102350009405892B80939405BACF0895811519F0BF
:102360000E94E807B4CF089548E050E067E170E0CC
:1023700081E295E00E948730109293050895E1E292
:10238000F5E085E180838091270190912801A0915B
:10239000290181839283A3838FE784838FEF8583D1
:1023A000E3CFAB0124E630E0BC0188E70E94602C5B
:1023B0009C0181E0232B09F080E008958091F804CE
:1023C000811561F08091F704811541F062E070E0C1
:1023D00084E494E0E6DF81111092F704089580917F
:1023E000F8048115E9F004DCDC01CB01805A954149
:1023F000AF4FBF4F8093F9049093FA04A093FB046E
:10240000B093FC048091F70481110AC062E070E08F
:1024100082E494E0C6DF811519F081E08093F7042F
:102420000895CF93DF93682F8091BB029091BC02F7
:102430006A30B1F42091FD048D5B9240622F70E010
:102440000E94F22C281B822F66E00E943D2DC82F8F
:10245000C15018F4DF91CF91089580E2E2DFF8CF08
:102460006D30D9F49C012D5B32404091FD04642F06
:1024700070E0C9010E94F22C481BC901840F911D14
:10248000811522E0920710F080E090E083549D4F88
:102490009093BC028093BB02DDCF26E0FC01A9E350
:1024A000B2E001900D922A95E1F7603E08F458C021
:1024B00026E0FC0111922A95E9F7C091BB02D09168
:1024C000BC0246E050E0BE0189E392E00E94C02DCC
:1024D0009E012D5B3240892B41F1C90145E0969563
:1024E00087954A95E1F741E050E0BA0102C0660FD6
:1024F000771F8A95E2F7CB016091B9027091BA0219
:10250000862B972BB9016B5F7F4FE5E0769567953A
:10251000EA95E1F702C0440F551F6A95E2F7842B54
:10252000952B9093BA028093B9022A5F3F4F409156
:10253000FD04642F70E0C9010E94F22C481B463054
:1025400010F4240F311D211572E0370710F020E040
:1025500030E023543D4F3093BC022093BB027ACF2E
:10256000F6E06F9FB00111246A5B7B4F46E050E0BC
:102570000E94B72DA2CFCF93DF93EC01FE0184918F
:10258000811103C0DF91CF9108954BDF2196F6CFE3
:102590008F9381E08093E1058F9118951F921FB66C
:1025A0001F9211248F939F93AF93BF938091FF0449
:1025B000811113C08091520290915302A091540254
:1025C000B09155024196A11DB11D80935202909386
:1025D0005302A0935402B0935502BF91AF919F91C3
:1025E0008F911F901FBE1F9018952FB7F894809160
:1025F000520290915302A0915402B09155022FBF04
:102600000895CF93DF93EC01F0DF8C1B9D0BDF91DE
:10261000CF910895A8E0B0E0E0E1F3E10C94062D3D
:10262000182F80912101811321C090912105937071
:102630002091200130E081E09217130609F480E038
:10264000809310018091260590910F01981731F029
:1026500080930F0140E060E080E0CBD81A3080F436
:10266000E12FF0E0E25DFC4C0C945C2D81E0E8CFC2
:1026700080911001811521F040E060E080E0B9D840
:1026800080E036C080910E01B6D88983092F609111
:10269000220570912305809124050E94950AF62E4B
:1026A000E72ED82E3981232F30E03E832D839D8164
:1026B000091709F020F481E00231D0F0E1CFED817B
:1026C000FE81E65AFE4F85AD90910F018923811559
:1026D00031F02D2D4E2D6F2D8D819E8188D88D81CD
:1026E0009E8101969E838D83E2CF81E69BE055DB40
:1026F00090910E019F5F90930E0181110CC082E0BA
:1027000080931F0180911001811105C0111103C038
:1027100083E080931F012896E2E10C94222D8CE83F
:102720009BE0E5CF8EE89BE0E2CF87E99BE0DFCF3F
:1027300080910E0160D8382EC92E8091100181152C
:1027400059F040E060E080E054D8E8E0F5E089E14D
:10275000DF011D928A95E9F780910E01811119C060
:10276000E091C204F091C304FE83ED833EDF2D812E
:102770003E81821B930B21E08931910508F420E012
:102780002093C104499728F030DF9093C3048093CD
:10279000C204812C912C412C4AEA242E540135E0AC
:1027A000532EF501E65AFE4F30813983331508F474
:1027B0003FC03C1508F03CC0832F90E09E838D8382
:1027C000FC01E65AFE4F85AD90910F0189238115DA
:1027D00071F1D501A85FBA4F3D010C91202F35E56D
:1027E000231B08F420E0D22EF0902305222D200F89
:1027F00008F42FEF822F880F820F609124058E5FDF
:102800000E941C0B622D6D197F2D0E94950A472F87
:10281000282F8D819E810E94F70B8091C104811524
:1028200031F021E0021B08F400E0D3010C93439443
:102830005A94BFEFAB1ABB0A5110B3CFE4E18E1626
:10284000910421F481E032E1C31637CFF5E08F0E19
:10285000911C24E0421608F4A1CFF4CF80EA9BE05B
:10286000DCDA46CF8DEA9BE0FBCF5090CD0421E02F
:10287000352D321B08F430E0332E80910E010E947A
:10288000FB0B9B83A82FB0E0B887AF83CD01880FE7
:10289000991FFC01E65AFE4F6F01832D90E09C01C9
:1028A0002F5F3F4F3E832D83AF81BB81AB1718F065
:1028B00081E0B23102CFEF81F885E65AFE4F85AD57
:1028C00090910F018923811501F1309122053983FF
:1028D000809123058A83909124059C83AD81BE81DC
:1028E000A353BB4F3D01232C412C2514B8F06C8120
:1028F000842D0E941C0B69817A810E94950A472FC2
:10290000282F8F8198850E94F70B8F8198850196DB
:1029100098878F8392E0C90ED11CC6CFF3018191B5
:102920003F01D6015996AC905997A81ABB085A9600
:102930008C908781881A9908AA9C9001AB9C300DD5
:10294000300D1124889CC001899C900D900D11249C
:10295000820F931F0E94310B082F6091250521E003
:10296000620F08F46FEFF301EE0FFF1FED5CF44010
:10297000858996890E94240B7C019401A5016981B7
:102980007A81842D0E94BF0B69837A83482E239419
:10299000ACCF4F925F926F927F928F929F92AF9245
:1029A000BF92CF92DF92EF92FF92C090BD04D09081
:1029B000BE04E090BF04F090C0041AD92B013C0182
:1029C000530142018C189D08AE08BF0811D9282F69
:1029D0006093BD047093BE048093BF049093C004C1
:1029E000A0912905E9E2F5E08A2F30E04FEFC40E0F
:1029F000D41EE11CF11CC418D508E608F708A3137F
:102A00002DC08093290580910005811137C0309138
:102A10002105832F8370811519F0832F8695869564
:102A200030911F013230E9F158F5311138C0109260
:102A30000E016093C4047093C5042093C604909360
:102A4000C70489E2E9E2F5E0ADECB4E001900D9253
:102A50008A95E1F781E080931F0114C0418D528D6A
:102A6000C416D506E104F10420F481503F5F32968C
:102A7000C6CF480D591D528F418FF8CF80E0D0CF7F
:102A80003330C9F0FF90EF90DF90CF90BF90AF90C0
:102A90009F908F907F906F905F904F900895BADDD8
:102AA000F1CF8093210180912105837080932001D3
:102AB0003FDB83E0D0CF80919305811155DCC0903E
:102AC000C404D090C504E090C604F090C70490D828
:102AD0006C197D098E099F09603171058105910589
:102AE00088F210921F01CECFA0E1B0E0EAE7F5E155
:102AF0000C94072D8091F804811509F47BC08DEBAF
:102B000092E09093BC028093BB02809106018115F4
:102B100019F0C8DB109206016BD86B017C01809123
:102B2000950290919602A0919702B0919802A70108
:102B30009601281B390B4A0B5B0B243631054105E6
:102B4000510508F05BC0E0909302F09094024DDDD7
:102B50008E199F09893C910578F147DD8C0190938E
:102B6000940280939302E0919202E13009F4BDC097
:102B7000E23009F4D2C0E1111FC08091900283308D
:102B800010F4E1E0E80FE0939002F0E0EE0FFF1F99
:102B9000EC5CFE4F808191810E94720C26DD801BCF
:102BA000910B8132934040F081E0809392021DDDD1
:102BB00090939402809393028091B9029091BA020B
:102BC000892B09F0B8C08091F704811599F010D8CD
:102BD0000091F9041091FA042091FB043091FC0457
:102BE000601B710B820B930B6F3F7F4F8F4F9F4783
:102BF00008F4E4DB6096E1E10C94232DC092950289
:102C0000D0929602E0929702F09298028DEB92E0B9
:102C10009093BC028093BB0287E69BE0ACDCC09043
:102C20002201D0902301E0902401F0902501C701FA
:102C3000B6010E94E2314B015C01072E000C880BAB
:102C4000990B0E9415322B013C01A3019201C7018F
:102C5000B6010E94113120E030E040E251E4698782
:102C60007A878B879C8769857A858B859C850E946E
:102C7000C9326D877E878F87988B6D857E858F851E
:102C800098890E94E2317F936F939F928F928AE29C
:102C900091E09F938F931F9288E08F93AE014F5FD7
:102CA0005F4F7A015F934F930E94DD2DD7010D9006
:102CB0000020E9F7FD0131976F010FB6F894DEBFF0
:102CC0000FBECDBFEC14FD0440F08091900581153E
:102CD00049F082E69BE04FDC36CFD7018D917D0134
:102CE000A0DBF0CF8CE59BE0F6CFE0919102EF5FA7
:102CF000E170E0939102F0E0EE0FFF1FE45CFE4F05
:102D0000808191810E94720C70DC801B910B813953
:102D1000914008F451CF82E048CF86EC9AE00E94BF
:102D2000720C63DC801B910B8139914008F444CF15
:102D3000109292023CCF8091F804811509F443CFA0
:102D40008091F60481113FCF4ADB2091B902309186
:102D5000BA022115310509F436CF10E041E050E008
:102D6000812F90E07A01012E02C0EE0CFF1C0A9424
:102D7000E2F7B70162237323672B11F41F5FF0CFD3
:102D80002091FE0420FF9BC0912F990F990F990F5E
:102D900037E0390F80E023E09093090180930C0124
:102DA00030930A0120930D0124E630E047E050E023
:102DB00067E071E088E70E94162C892B09F003CFA9
:102DC00020E2129FA00111248091FE0480FF83C0A5
:102DD000E9E9F2E080E2DF011D928A95E9F7E4E497
:102DE000F1E0FA87E98700E411E088E4A82E81E0A9
:102DF000B82E97E0392E44244394A985BA858D9145
:102E0000BA87A987F80121918F01240F352F311D31
:102E100023543D4FE82FF0E0E756FD4F80E090E06F
:102E2000632C681A742C082E01C0770C0A94EAF7F8
:102E30006901812CD6019D906D019720662D68193E
:102E4000677070E0B92D062E01C0BB0F0A94EAF737
:102E50005B2E7195619571096770772701C0969413
:102E60006A95EAF759286081562A5082839468E06F
:102E70008612E0CF019631968830910589F68985D2
:102E80009A85A816B90609F0B8CF04E610E020E24A
:102E900030E049E952E060E488E70E94A62C892BE3
:102EA00009F091CEE094F0948091B9029091BA0229
:102EB0008E219F219093BA028093B90284CE969579
:102EC000879596958795282F912F9295990F9076B3
:102ED0003FE1390F61CF43545D4F04E610E020E23B
:102EE00030E0D9CF82DB20918C0530918D05232BEA
:102EF000211521F0809368059093690520918E0536
:102F000030918F05232B211521F080936605909336
:102F10006705E0916D05F0916E05309759F00680D8
:102F2000F781E02D309731F082E080938A058AE8BE
:102F300095E009950895611509F449C0E3E3E80FA8
:102F4000E33150F4F0E0E85CFC4C0C945C2D0E9402
:102F5000290D819580938D05C5CF0E94290DFACF4B
:102F60000E94290D819580938C05F6CF0E94290D32
:102F7000FACF0E94490D80938E05EECF0E94490D35
:102F80008195F9CF0E94490D819580938F05E4CFFB
:102F90000E94490DFACF815D990B21E030E001C01C
:102FA000220F8A95EAF780918B05822B80938B05FF
:102FB000D3CF80918905816080938905CDCF8091A1
:102FC00089058260F9CF809189058460F5CF4091B1
:102FD0008C058D3C59F480918D0587FF0DC01092B2
:102FE0008D05411559F41092880508C08E3C81F476
:102FF00080918D0518169CF3411581F080918E0506
:1030000090918F05892B8111A7CF10928705A4CFAE
:103010008F3C41F447FFF0CF10928C0580918D05D5
:103020008115E0CF803D19F41416B4F3E5CF9091EB
:103030008E05893D29F41916FCF610928E05DCCF19
:103040008A3D19F497FFD8CFF8CF90918F058B3D2B
:1030500029F497FFD1CF10928F05CECF8C3D19F474
:103060001916CCF3C9CF9FE2980F983090F4815D88
:10307000990B21E030E0B90102C0660F771F8A95F5
:10308000E2F7CB01809590918B05892380938B0586
:10309000B3CF8D3D31F4809189058E7F8093890572
:1030A000ABCF8E3D21F4809189058D7FF7CF8F3D89
:1030B00009F0A2CF809189058B7FF0CFCF93C82FE5
:1030C0008115A9F08CEF8C0F813A98F4EAE2F2E0D6
:1030D00080E392E02191C21709F43DC08E179F074B
:1030E000C9F76C2F88E292E00E94CD0DF0D8CF9105
:1030F000089580E28C0F883068F4C77021E030E0DA
:1031000001C0220FCA95EAF780919405822B809323
:103110009405ECCF8BE58C0F833038F42C2F2452A0
:10312000330BC9010E947D0DE2CFE8E5EC0FEB31D6
:1031300050F4F0E0EE0FFF1FE151FE4F80819181CE
:103140000E94A50DD4CF83E38C0F833180F661E01C
:103150008C2FF1DECCCF6C2F88E292E00E94E70D3D
:10316000B6D8BFCF811571F19CEF980F913A30F42A
:10317000682F88E292E00E94E70DA9C890E2980FBC
:10318000983050F4877091E001C0990F8A95EAF762
:10319000892F0E94E807F1CF9BE5980F933020F428
:1031A00080E090E00C947D0D98E5980F9B3120F421
:1031B00080E090E00C94A50D93E3980F933110F408
:1031C00060E0B9CE089580918100887F809381006E
:1031D00010928500109284001092E2051092E10591
:1031E0008091E005811521F08CE2BCDF1092E005B2
:1031F00008950F931F93CF93C82F8B015FDF0115A5
:10320000110531F48C2FAEDFCF911F910F910895EE
:103210008FE99FE00197F1F700C00000015011090C
:10322000EECFCF9310929405C6E0EAE2F2E0DF0120
:103230008C2F1D928A95E9F780E090E00E947D0D29
:1032400080E090E00E94A50D10929E0540D8EAE82B
:10325000F5E0DF011D92CA95E9F7109288051092FA
:103260008705109289053EDECF910895DADF2FEFB2
:1032700084E39CE0215080409040E1F700C00000D2
:1032800088E19CE00FB6F894A895809360000FBE8B
:1032900090936000FFCFAAE2B0E0E1E5F9E10C9481
:1032A000152D82E492E0FC0101962091F10020832B
:1032B00022E08A349207B9F780914302893009F4F9
:1032C00059C0C8F4823009F4B5C0833009F484C011
:1032D000813089F18091E80083FFE9C0809142024A
:1032E000909143029A3008F0E2C0E92FF0E0E55BEC
:1032F000FC4C0C945C2D8A3009F48BC08B3051F758
:1033000080914202813231F78091460290914702CA
:10331000892B01F78091E800877F8093E8000E9465
:103320005E0E81E090914402911101C080E0809393
:10333000130177DFCFCF80914202813A59F6809115
:10334000E800877F8093E8008091460290914702D1
:10335000892B61F060E080E090E070E00E94050E53
:103360008091E8008B778093E800B4CF68E08AE42E
:1033700092E0F3CF80914202813209F0ABCF80918D
:10338000460290914702029708F0A4CF8091E8008E
:10339000877F8093E8008091E80082FF18C09091B9
:1033A000F3008091F200029731F48091F1008130B6
:1033B00011F0863021F48091F10080931201809108
:1033C000E8008B778093E8000E945E0E83CF8091A7
:1033D00002058111E0CF7ECF80914202813A09F04F
:1033E00079CF8091460290914702892B09F072CFE4
:1033F0008091E800877F8093E8008091E80080FF5B
:10340000FCCF809113018093F1008091E8008E77CA
:10341000D9CF80914202813209F05CCF8091E800DF
:10342000877F8093E8000E945E0E80914502809322
:10343000110150CF80914202813A09F04BCF809127
:10344000E800877F8093E8008091E80080FFFCCF50
:1034500080911101D8CF803889F0823841F5809170
:1034600046028F70873018F58093E9008091EB0059
:1034700085FB882780F91092E90006C0809101053C
:10348000880F90913F02892B9091E800977F90934D
:10349000E8008093F1001092F1008091E8008E77AF
:1034A00023C0811116C080914402813011F18091B6
:1034B000E80083FF0AC08091E800877F8093E800DE
:1034C0008091EB0080628093EB00AA96E3E00C947D
:1034D000312D823061F780914402811589F010927C
:1034E000E9008091E800877F8093E8000E945E0EEB
:1034F000DECF81E0933009F080E080930105EFCFCB
:10350000809146028F702FEF280F263080F680932F
:10351000E9002091EB0020FFE2CF933031F480915D
:10352000EB0080628093EB00DACF9091EB0090612A
:103530009093EB0021E030E0A90102C0440F551F39
:103540008A95E2F74093EA001092EA008091EB003E
:103550008860E8CF8111ABCF109144021F77809132
:10356000E3008078812B8093E3008091E800877FDF
:103570008093E8000E945E0E8091E80080FFFCCFFF
:103580008091E30080688093E30083E0111101C023
:1035900082E0809302058BCF8058823008F087CF7D
:1035A00020914402309145022C3D53E0350799F5B6
:1035B00083E08A838AE289834FB7F894DE01139609
:1035C00020E03EE051E2E32FF0E050935700849179
:1035D00020FF03C082958F703F5F8F708A30C8F0E4
:1035E000895C90E08D939D932F5F243161F74FBFED
:1035F0008091E800877F8093E8006AE270E0CE0166
:1036000001960E94050E8091E8008B778093E80078
:103610004ECF805DE6CF832F99278330910529F126
:1036200060F48130910509F476C0029709F03FCF2C
:103630008BE390E0E5E4FAE02DC020914602309162
:1036400047028132910509F45AC0829709F02FCFC1
:103650002115310509F469C02130310509F027CF62
:103660008BE790E0E6E8F9E015C0C9019927213021
:10367000B1F18230910509F43AC0892B09F017CFD6
:10368000E2ECFAE0E4918E2F90E0E2ECFAE00097B1
:1036900009F40DCF2091E800277F2093E8002091C6
:1036A0004802309149028217930708F49C0140E0D8
:1036B0002115310509F03EC041113CC08091E80060
:1036C00082FDA1CF80910205811509F49CCF853040
:1036D00009F499CF8091E80083FFF0CF94CFEEE911
:1036E000FAE0E4918E2F90E0EEE9FAE0D0CFE2E943
:1036F000FAE0E4918E2F90E0E2E9FAE0C8CF2115DC
:10370000310571F02130310509F0D1CE89E090E02A
:10371000E0E7FAE0BFCF82E190E0E0E8FAE0BACF7C
:1037200089E090E0E7E5FAE0B5CF84E490E0E1E0FD
:10373000FAE0B0CF80910205811509F464CF85309D
:1037400009F461CF8091E80083FD5DCF8091E800AE
:1037500082FDB4CF8091E80080FFAACF9091F30062
:103760008091F2002115310519F08830910550F053
:1037700041E0089709F040E08091E8008E7780935F
:10378000E80096CF44914093F100319621503109E1
:103790000196E8CF803809F08ACE8091E800877FD3
:1037A0008093E800809140028093F10076CE8111F1
:1037B0007ECE10914402123008F079CE8091E8005C
:1037C000877F8093E800109340020E945E0E1115DF
:1037D000A9F084E08093020542E061EC81E00E9460
:1037E000EF0F42E261EC82E00E94EF0F8091020550
:1037F000843051F482E08093140159CE8091E3002B
:1038000087FDE7CF81E0E6CF81E0F5CFEF92FF9231
:103810000F931F93CF93DF93C62FD42F122F8115B1
:10382000A9F0609391050E94F5129093380280935D
:103830003702C77081E001C0880FCA95EAF70E947D
:10384000A511CDB7DEB7E6E00C942E2D8091910541
:10385000681333C0E0903702F09038020E94F512EE
:103860008E199F09883C910540F500E20D0FCD1798
:10387000A9F0C770FF24F3948F2D01C0880FCA955B
:10388000EAF70E94AE11083048F48D2F877001C00E
:10389000FF0C8A95EAF78F2D0E94A51160E070E079
:1038A000812FA7DC083068F6D77081E001C0880F4F
:1038B000DA95EAF70E94AE11C4CFC77081E001C06B
:1038C000880FCA95EAF7F6CFA6E0B0E0EAE6FCE199
:1038D0000C94082D8C01FC018481811509F4A2C08F
:1038E00061E0C8010E94270A8D839E83F8018581CB
:1038F000811509F4B3C02D813E8120344EE7340791
:1039000009F44EC021346EE7360709F49BC02C320F
:10391000310509F0A3C057DC209122013091230129
:10392000409124015091250160EC71EE84E69CE405
:103930000E947A3120E030E040E850E42B013C0165
:10394000C301B2010E94C9324B015C01C501B4013F
:103950000E94E7310E9499060E942207F801958192
:10396000911509F488C4109291052D813E8130573C
:103970002332310508F090C484E090E00E94823048
:1039800090939D0580939C05ED81FE81E150F04769
:10399000E232F10508F08AC0EB5AFC4C0C945C2D25
:1039A0008091900591E08927809390058115F1F130
:1039B0008091E205811126C02091220130912301DE
:1039C000409124015091250160EC71EE84E69CE465
:1039D0000E947A3120E030E040E850E46B017C0145
:1039E000C701B6010E94C93269837A838B839C83A5
:1039F00069817A818B819C810E94E7310E949906BE
:103A00000E94220780919B058770811559F0F8016B
:103A10008581811539F080919D0582FF03C082E088
:103A20000E94D1072696E0E10C94242D1092E10526
:103A30008091E005811531F38CE294DB1092E00572
:103A4000C2DBE0CF8091260191E089278093260197
:103A5000811509F419C10E94110CD4CFED81FE81AA
:103A6000E851FC47E730F10508F078CFE958FC4C05
:103A70000C945C2D26E241EE61EEC8DEC3CF27E256
:103A800045EE65EEFACF26E241EE60EEF6CF27E294
:103A900045EE64EEF2CF26E241EE62EEEECF27E293
:103AA00045EE66EEEACF28E241E0EBCF80919C053F
:103AB000816080939C0560919C0570919D0584E0D8
:103AC00090E00E94B030ADDB9DCF80919D05886075
:103AD00080939D05F0CF80919C058260EACF809114
:103AE0009C058460E6CF80919C058860E2CF809140
:103AF0009D058160EDCF80919D058260E9CF809129
:103B00009C058061D6CF80919C058062D2CF809148
:103B10009C058064CECF85DB80919C058068C9CFF1
:103B200080919C058C60C5CF80919D058360D0CF2E
:103B300080919C058E7FBDCF80919D05877FC8CFEA
:103B400080919C058D7FB5CF80919C058B7FB1CFF7
:103B500080919C05877FADCF80919D058E7FB8CFEA
:103B600080919D058D7FB4CF80919C058F7EA1CFE4
:103B700080919C058F7D9DCF80919C058F7B99CFF7
:103B800050DB80919C058F7794CF80919C05837F3B
:103B900090CF80919D058C7F9BCF80919C0599272C
:103BA00082FF939590FB82F990FB83F982CF8091FD
:103BB0009D05982F909590FB80F990FB81F988CF17
:103BC00090919C05892F8F7B96FF806472CF29DBB3
:103BD00090919C05892F97FB87F980586ACF61E007
:103BE0008EE090E00E94963066CF60E0F9CF909131
:103BF0009C05892F8F7E94FF80615BCF90919C05FF
:103C0000892F8E7F90FF816054CF90919D05892FE1
:103C1000877F93FF88605CCF8272ED81FE81E052E6
:103C2000F847EB30F10508F050C0E258FC4C0C941A
:103C30005C2D809194058272ED81FE81E054F847FD
:103C4000ED30F10508F041C0E757FC4C0C945C2DB9
:103C50000E94030CD7CE811509F10E94970FD2CE96
:103C6000811509F10E94BB0FCDCE811509F10E948B
:103C7000CE0FC8CE811509F10E94E40FC3CE811585
:103C800009F10E943E0CBECE0E94240C8091930547
:103C9000816080939305B6CE8115F9F20E948E0F54
:103CA000B1CE8115F9F20E94B30FACCE8115F9F2B5
:103CB0000E94C30FA7CE8115F9F20E94D90FA2CEA0
:103CC0008115F9F20E94300C9DCE2D813E81205E3F
:103CD000324520323105C0F491112FC0FD81FF71B2
:103CE00081E090E09C0102C0220F331FFA95E2F7B9
:103CF0003A832983698183E090E00E94963089812C
:103D00009A810E9437077ECE9115B9F08D819E81F0
:103D10008A35ECE79E0709F486C008F05EC0813062
:103D20002CE7920709F47EC083303CE7930709F43F
:103D300073C081159C4709F463C0F8018581E08058
:103D4000F180811509F473C0C7010E94F5098983C8
:103D5000682FC7010E945F07B70189810E94F007A1
:103D60000E94F9088D839983F801D580C680C2949A
:103D70002FE0C22280919B058770811509F1ED2CFF
:103D8000D114F9F0892F807F803469F08D81805EB5
:103D90008830B0F0892F807E803229F4FD81F230A6
:103DA00078F0C11469F080919D0582FF09C082E01E
:103DB0000E94D10780919B058770EE24E3948111C6
:103DC000E12CE981E295EF702981203C08F09CC04C
:103DD000F0E0EA56FC4C0C945C2D8D819E818B3575
:103DE000ECE79E0711F18C359C4709F0A6CF809136
:103DF0009D05002482FF0394802D0E943B119DCFDE
:103E000010DA2FEF34E34CE0215030404040E1F72E
:103E100000C000000E94BE106FEF7FEF80E090E0D6
:103E20000E94B03023DA81E0E8CF80E0E6CFC7011E
:103E30000E949407898390CF39813F70F32E498186
:103E4000403118F0F29490EFF922D114C1F0F1143E
:103E500071F08D81805E883018F06D81611109C02C
:103E6000809194058F29809394050E9467118D811C
:103E700045C080919E058F2980939E05F6CF8D8148
:103E800071D9F11409F440C08D81805E883018F03A
:103E90008D81811104C08F2D0E94E80706C0F09427
:103EA00080919E058F2180939E050E9467112CC0F2
:103EB00099819F70F92EE981E07FE03219F0F29448
:103EC00080EFF822FD81F11549F0F13009F465C069
:103ED000D11409F471C0C11499F1C9CF80919D0525
:103EE00082FD2AC0D11461F0F11439F0809194055B
:103EF0008F29809394050E94671180E0DFD804C069
:103F000080E030D9F110C7CFE11409F4C3C080912B
:103F10009B0580FDBFC0F801158286958695869524
:103F20000E944107C801D0DC80919B05869586954B
:103F300086950E944F07AEC0D11499F0C11004C0FD
:103F40008F2D0E94A511E0CF21E0C212DDCF80911C
:103F500095059F2D9823F916B9F28F298093950521
:103F6000D3CFC110D1CF8F2D0E94AE119091950566
:103F70008F2D8923811529F08F2D8095892380939A
:103F80009505809196059F2D9823911509F4BCCF36
:103F9000F094F822F0929605B7CFD11429F036E0CC
:103FA000C31608F0B1CFCCCF45E0C41608F0ACCFB3
:103FB0008F2D0E94AE11A8CFC114D1F36D8169334A
:103FC00049F48FEF97EEE3E081509040E040E1F755
:103FD00000C000008D81C6D897CF898186958695CF
:103FE0008370811569F0813009F08ECF8D819981C0
:103FF0009370D11002C080E090E00E94A50D84CFA4
:104000008D8199819370D11002C080E090E00E9470
:104010007D0D7ACF6D2D8D810E949B1775CF898183
:10402000837081114AC0D11033C04D8142954695AD
:104030004770440F440F2D812F7030E0042E02C0D2
:10404000220F331F0A94E2F7FD8180E090E0F4FF35
:1040500009C08FE090E002C0880F991F4A95E2F7EF
:1040600080959095498146954695437049834230A5
:10407000D9F04330B1F0409197055091980569818E
:10408000613069F0822B932B842395230E9437079C
:104090000E946E0D60E0C8010E94270AC3CC242B49
:1040A000352B822B932BF2CF822B932B20919705CC
:1040B0003091980582279327E9CFD11499F189810E
:1040C00080FFE6CF4D81429546954770440F440FDF
:1040D0002D812F7030E0042E02C0220F331F0A946E
:1040E000E2F79D8194FF22C08FE090E002C0880F2C
:1040F000991F4A95E2F780959095E981E695E695B6
:10410000E370E230D9F0E330B1F04091990550917D
:104110009A05E13071F0822B932B842395230E9422
:104120003C07B6CF823008F4B3CFCCCF80E090E02C
:10413000E4CF242B352B822B932BF1CF822B932B87
:104140002091990530919A0582279327E8CFF9812C
:10415000FF70F983D11439F08F2F0E9441078D81B0
:104160000E94A51195CF8D810E94AE1189810E9478
:104170004F078ECF2D81223FB9F170F4203FD1F04F
:10418000213F99F0D11409F461C0C11409F45BC056
:104190008D810E945E187CCF3D81333F61F1343FB9
:1041A00089F790919D0592FD35C089818F71D11459
:1041B000F1F21EC0D114A9F045E0C41608F068CF92
:1041C00069816F7181E090E0FC0102C0EE0FFF1F7A
:1041D0006A95E2F78091990590919A058E279F271D
:1041E0009ECFF6E0CF16EACF89818F71D110BFCF75
:1041F0000E9441074DCF80E090E0D11409F48FCFA9
:1042000029812F7181E090E002C0880F991F2A95C3
:10421000E2F785CFD11461F089818F7192FFE8CFE9
:10422000982F990F990F990F936090939B05E0CF6A
:1042300081E00E94D10732E0C31608F429CF82E062
:104240000E94D10725CF89818F71D2CFC11481F00F
:104250004D81493349F46FEF87EE93E06150804020
:104260009040E1F700C000008D810E94B21810CF8D
:1042700089818F717CCF2D813E8126313C4709F0A9
:10428000D8CC8091920565E3811101C069E288E292
:1042900092E00E94E70D17C080919405ED81FE81A8
:1042A000E631FC4709F0B8CC8A7A91E0811101C06F
:1042B00090E09093920565E3811101C069E288E284
:1042C00092E00E94CD0D0E9467119CCB8091DF058A
:1042D000803178F48091DE05811559F0E091A005D8
:1042E00020919F053091DA054091D90557E02E13B2
:1042F00001C008956E2F70E05E9FF0011124DF0170
:10430000AF55BA4F14968C911497811551F11196AF
:104310008C911197831325C08C91841322C015961C
:104320008C91159781111DC012968D919C91A09131
:10433000DB05B091DC058A1B9B0B883C910588F45A
:104340008091DF058F7080618093DF05E955FA4F1A
:1043500080818F708061808389ED95E0B5DA0C945F
:10436000C707FB013196E770C2CFADE0B0E0EBEBE1
:10437000F1E20C940B2D8C0186E0F801DE01189619
:1043800001900D928A95E1F7F801F580C48089EDDE
:10439000882E85E0982E7090DD0571101FC0C11425
:1043A000D1F0F11409F415C1C8010E944F0A81151A
:1043B00009F40FC187E0F801D40101900D928A95AC
:1043C000E1F7F1E0CF1206C08091D9059091DA05AE
:1043D0000E94430A7BDFFF24F39453C0E080A28055
:1043E000B380D090DE058091DB059091DC059501CE
:1043F000281B390BD11409F4B5C0283C310508F04D
:104400008DC0C11441F39091DA05C1808091DF0520
:10441000803108F056C0C91213C09091D9059E1181
:104420000FC0F11048C08F7080618093DF0589ED67
:1044300095E04ADA8091DF05F8018683F12C21C0EE
:10444000F11039C040E06C2D8E2D0E94791040E0B3
:104450006C2D8E2D0E947910F82E8111EFCF88855A
:1044600099850E94430A292F22952F70903470F469
:104470009F70223098F09115A9F0F8019681903143
:1044800088F48F2D2D96EDE00C94272D2A5F2F7048
:10449000223060F0C80118DAFD2CF3CF911511F02D
:1044A000811579F3805E883060F3F4CF803F48F364
:1044B000815F8330F9CF8091DF0581608093DF05D4
:1044C000BDCFC91207C09091D9059E1103C0F11448
:1044D00009F469C0C8010E944F0A811509F479C026
:1044E000F11409F476C08091DF05803270F02091DC
:1044F000D9053091DA053A832983BC82AB827D826B
:104500001E828F83CE010196DFD987E0F801A9EDE5
:10451000B5E001900D928A95E1F75CCF8091DF05BF
:10452000803148F489ED95E0CFD987E0F40111920C
:104530008A95E9F783CFC11409F44DCF2091DA05AC
:1045400091812913C7CF9091D9059E11C3CFF11046
:10455000C1CF8683C801B8D987E0F40111928A954A
:10456000E9F739CF283C310500F7C11409F433CFFE
:10457000F11479F19091DA058181981320C080912E
:10458000D9058E111CC08091DF0580FD0FC08031E0
:1045900068F08683807F803F39F08681982F907FF6
:1045A000905F8F70892B8683C8018ED987E0F801D0
:1045B000A9EDB5E001900D928A95E1F70CCFC80105
:1045C0000E944F0A8111A1CF8091DF058160809305
:1045D000DF05C80179D9FFCEABE1B0E0E2EFF2E24E
:1045E0000C94142D4E8B5F8B688F798F8A8F192FC7
:1045F0009B8F911110929E051D8A86E0FE01769692
:10460000DE011F9601900D928A95E1F70A8D011542
:1046100061F00B8B1C8B61E0CE010F960E94270A84
:1046200061E0CE010F960E94270A0B8B1C8B87E05E
:10463000FE013F96DE01189601900D928A95E1F7F2
:10464000CE01089692DE811128C020919F053091FD
:10465000A00587E0FE013896DE01119601900D92CB
:104660008A95E1F78C858115C1F0822F90E0019643
:104670008770992738171906D9F097E0929FD001D3
:104680001124AF55BA4FFE01319601900D929A95C3
:10469000E1F780939F050E94C70717E08091A0056E
:1046A00090919F05891312C06B96E4E00C94302D15
:1046B0000E94111910929F051092A00587E0E9ED64
:1046C000F5E0DF011D928A95E9F7E7CF189FC00159
:1046D00011248F559A4F49DE811531F38091A00541
:1046E00090E00196877099278093A005D7CFA6E028
:1046F000B0E0EDE7F3E20C94142D0E94F5128C016A
:1047000080916B0590916C058017910771F019826B
:104710001A820E94F512BC0149815A8180E090E022
:104720005BDF10936C0500936B052696E4E00C9418
:10473000302DA5E0B0E0EFE9F3E20C940B2DFE0183
:10474000319685E0DF011D928A95E9F780E5A82E74
:1047500081E0B82E8F014F01CC24C394D12CF501F8
:1047600081915F018F3F09F43FC0F894E82FE295F3
:10477000EF70F0E021A18F70A60102C0440F551F19
:104780008A95E2F7CA01922F982B91A392A1809566
:10479000892382A3789400C0E5E5F1E031E0712C33
:1047A00021912F3F79F0A22FA295AF70A05EB0E0CB
:1047B0008C9190E02F7002C0959587952A95E2F72D
:1047C00080FF9FC080E0782A330F51E0EA35F5077B
:1047D00039F7F50182918F3F11F00E947C0A80EA3F
:1047E0008A95F1F7D8017C920F5F1F4FB5E5AB16A4
:1047F000B1E0BB0609F0B3CF45E050E0B40188EC6E
:1048000094E00E94C02D892B09F47DC085E0F4015D
:10481000A8ECB4E001900D928A95E1F781E08093D5
:1048200036020E94F51290933502809334021FB72E
:10483000F89480919005811569F18091E1058115C9
:1048400049F18091E005811123C08CE20E945E183D
:1048500081E08093E0058091E3059091E405A091CB
:10486000E505B091E6050196A11DB11D8093E30514
:104870009093E405A093E505B093E6050E94F80D3A
:10488000609330027093310280933202909333022E
:104890001092E1051FBF8091E005811571F10E9422
:1048A000F80D0091300210913102209132023091C6
:1048B0003302601B710B820B930B2091040130912A
:1048C00005016217730781059105B8F08CE20E941B
:1048D000B2181092E0050E94F80D7B01CB010E94F6
:1048E000AC2D0E94A92D65E170E00E94F22C805C45
:1048F0009F4F90930501809304012596EDE00C9461
:10490000272D832F60CF80913602811509F48FCF38
:1049100000913402109135020E94F512801B910B18
:10492000059708F484CF45E050E068EC74E083E03C
:1049300095E00E94C02D892B49F085E0E8ECF4E079
:10494000A3E0B5E001900D928A95E1F7109236024E
:104950006ECFCDB7DEB7E6970FB6F894DEBF0FBEC9
:10496000CDBF85B7806885BF85B7806885BF84B7B0
:10497000877F84BF0FB6F894A89580916000886106
:1049800080936000109260000FBE80E890E00FB648
:10499000F89480936100909361000FBE81E0809352
:1049A00014018AE79AE090932702809326020E94DE
:1049B000AE0E0E941F108091E20084608093E2009E
:1049C000789480910205811599F08091E900109109
:1049D000EC008F70179511271795182B1092E9008E
:1049E0008091E80083FD0E944B191F701093E9002D
:1049F00082E084BD93E095BD9AEF97BD80936E00F1
:104A0000EDE5F5E098E0DF011D929A95E9F78093D6
:104A10005C0560E080E00E94B60C61E080E00E94EE
:104A2000B60C60E081E00E94B60C61E081E00E947B
:104A3000B60CEFE8F1E03197F1F700C0000010E0AC
:104A400080915C05181708F482C000E511E0D801D8
:104A50008D918D018F3F11F00E947C0AB1E00535E8
:104A60001B07A9F705E511E0F80181918F018F3F40
:104A700011F00E947C0AF1E00A351F07A9F785E0D2
:104A8000E3E0F5E0DF01282F1D922A95E9F7E8EC35
:104A9000F4E0DF011D928A95E9F780E090E00E9442
:104AA0008230833E9E4F71F163EE7EEF80E090E0B6
:104AB0000E94B03060E082E090E00E94963081E099
:104AC00090E0909398058093970561E083E090E0F3
:104AD0000E94963060E074E184E090E00E94B03083
:104AE0000E94BF1140E050E0BA018FE090E00E94C8
:104AF000A83040E050E0BA0183E190E00E94A83085
:104B00000E94B41182E090E00E947A3080935205B6
:104B100084E090E00E94823090939D0580939C05F4
:104B200008DEEFEFF6E721E0E150F0402040E1F74A
:104B300000C00000FEDD8091030580FF1AC06FEF0A
:104B40007FEF80E090E00E94B0300E94BE1060E0F5
:104B5000812F0E94D90C082F61E0812F0E94D90C6F
:104B6000E12FF0E0E65AFA4F880F802B80831F5F19
:104B700067CF83E090E00E947A3090E00E94370790
:104B80000E94F60C1092CD0440E150E06FEF70E00F
:104B900086EE94E00E94D62D1092290540E150E067
:104BA0006FEF70E082E495E00E94D62D81E0809363
:104BB000930548E050E067E170E081E295E00E94F3
:104BC0006A301092930580912105843010F40E9480
:104BD000BF111092FE0480E88093FD04F1D56BE0D4
:104BE00070E083E89CE00E94D111811569F1809109
:104BF000FE0465E070E081FD5EC18EE79CE00E94EE
:104C0000D111811509F16DE070E08CE69CE00E9405
:104C1000D1118115C9F00E94F80DDC01CB01805A39
:104C20009541AF4FBF4F8093F9049093FA04A0933E
:104C3000FB04B093FC040E94521181E08093F804BD
:104C40008093F7041092F604109290051092E205FA
:104C50001092E0051092E3051092E4051092E5052C
:104C60001092E6051092E1058091260181110E94C3
:104C7000110C85E191E090936E0580936D05CE0156
:104C8000019688AB99AB80910205853089F410E4D8
:104C900003E0B0E1FB2E82E1E82E80910205853031
:104CA00009F40CC10E9411190E946E0D10920005AA
:104CB00040DD83E595E09CA78BA7A3E0B5E0BFA707
:104CC000AEA7FC0191918D9125E0E835F20709F43A
:104CD00040C19817B9F3412C512CF12CAEA5BFA5BA
:104CE0007D90BFA7AEA7EBA5FCA58191FCA7EBA784
:104CF000871509F4D4C087258AAB6201E12C6624AC
:104D000063948AA98621811509F4BEC0872C862068
:104D1000E982FA820E94F5129C838B83F1E0FD8385
:104D200091E0811001C090E09E8349815A816B819E
:104D30007C818D8151DC811439F0F601E65AFE4FF9
:104D400080818F3F09F01BC1912C092D10E08091CB
:104D50002905890D9927991F09974CF1E8E0AE2E96
:104D6000B12CA01AB10AB801665D7A4FA5018AE29A
:104D700095E013D7B8016E5C7A4FA50182E395E008
:104D80000CD7A501440F551FB801660F771F6E5B46
:104D90007A4F82E495E001D7B801665C7A4FA501AD
:104DA0008AE395E0FAD688E0891980932905911461
:104DB00029F1409129052DA5822F90E0242F30E084
:104DC000F901E75DFA4FDC01AA0FBB1FA65ABE4FDF
:104DD00059965C915183880F991FDC01AC58BE4FE6
:104DE0008C9181875DA5518BF901EE0FFF1FE75D67
:104DF000FA4F128E118E4F5F40932905811409F4EA
:104E000043C0809121058C7F883109F03DC0F601B7
:104E1000E65AFE4F80818F3FB9F1A12CB12C212C95
:104E200090E09C01220F331FD901AD58BE4FBCAB9F
:104E3000ABABF901EC58FE4FFEABEDAB9601285F32
:104E40003A4F49018501312CF801E65AFE4F808125
:104E50008F3F61F02F1097C0E31095C0D4012C91C3
:104E600030E2230F08F42FEFF401208333940F5F17
:104E70001F4FF5E03F12E8CF239425E0A20EB11CAE
:104E800039E1A316B104F1F6E394660C4FEFC41AAE
:104E9000D40A55E0E51235CFEBA5FCA57292F39448
:104EA00085E0480E511C95E0F91218CF0E94F80DCC
:104EB000DD24D39452C089E79CE0A1CE8091020505
:104EC000843009F43BC00E94C9148091000581110F
:104ED0000DC00E940A131092210180912105837058
:104EE000809320010E94981000931F0131E03093BD
:104EF00000050E94DE111092FF0448E150E00FB659
:104F0000F894A895409360000FBE1093600083B79B
:104F1000817F846083BF83B7816083BF78948895E5
:104F200083B78E7F83BF0FB6F894A89580916000F9
:104F3000886180936000109260000FBEFADBE3E0AE
:104F4000F5E08191811176C255E0E830F507C9F7A7
:104F5000A4CE9813C0CECBDBD12C0E94C914809173
:104F60006505811551F080915F051092650580936C
:104F7000600580915D0580935E0500E088C08DA787
:104F800099249394E2CE90E0ABA9BCA94C91FC018A
:104F9000EE0FFF1FE65AFE4F218D421B550BEDA968
:104FA000FEA92081880F991FFC01EC58FE4F8081DB
:104FB000281B330B449FB001459F700D700D1124C9
:104FC000229FC001239F900D900D1124860F971FE3
:104FD0000E94310B382F893208F048CF28E2231B7A
:104FE00008F420E0F801E85FFA4F213108F020E1F1
:104FF0003081320F08F43FEF308338CF61E0802FEB
:105000000E94D90CF82E60E0802F0E94D90CFF0C72
:10501000F82A202F30E0D901A65ABA4FEC918E2FF2
:105020008370F81699F1EE0FEE0FEF29EC93EF7005
:10503000F0E0E755FE4F285A3A4F8081D9019C9104
:10504000890F8C9384300CF4B2C0412F50E0BA0128
:105050006F5F7F4F63707727E616170679F0435A24
:105060005A4F902F9F77FA0194831F5F137010930C
:105070005F0590915D059F5F90935D05082E000C84
:10508000990B64E070E005D5F90180830F5FE09033
:10509000600510915F0580915C05081708F4AECF9C
:1050A00090E08091600520915F05281709F4D0C039
:1050B000E82FF0E0EF59FA4F9081292F2F7797FBD7
:1050C000992790F98F5F83708093600580915E05CA
:1050D0008F5F80935E052111B2C0E0902201F090B5
:1050E00023010091240110912501911509F475C047
:1050F00020E030E046E953E4EF82F88609871A871A
:105100006F81788589859A850E94763187FF20C0D6
:1051100020E030E040E05FE3EB86FC860D871E87F1
:105120006B857C858D859E850E9412317B018C016B
:105130006F87F88A898B1A8B2F85388949895A8914
:1051400020932201309323014093240150932501A1
:10515000EF8EF8A209A31AA32F8D38A149A15AA155
:1051600060EC71EE84E69CE40E947A3120E030E04D
:1051700040E850E46BA37CA38DA39EA36BA17CA10C
:105180008DA19EA10E94C9326FA378A789A79AA773
:105190006FA178A589A59AA50E94E7310E9499067A
:1051A0008091E20581110E94220791E07ACF8D3F24
:1051B0000CF064CF412F50E0BA016F5F7F4F6370F6
:1051C0007727E616170609F459CF435A5A4F902FFE
:1051D0009068DA0114969C9348CF20E030E040E7D5
:1051E00052E4EB8AFC8A0D8B1E8B6B897C898D893E
:1051F0009E890E94C53218160CF0AACF20E030E03C
:1052000040E05FE3EF8AF88E098F1A8F6F89788DFF
:10521000898D9A8D0E9411317B018C016B8FFC8EE0
:105220008D8F1E8F8B8D9C8DAD8DBE8D80932201B9
:1052300090932301A0932401B093250189CF6AE0C4
:1052400070E089EA911101C08AEA0E94F918ADCF95
:10525000911539F00E94F80D0E9474150E94EF110B
:1052600004C00E947415D110F9CF86E0EAE8F5E099
:10527000A8A9B9A901900D928A95E1F7B0908B0584
:10528000D0908C0500918D05C0908E0510918F05F2
:1052900010928C0510928D0510928E0510928F053C
:1052A000802F8D29811509F441C0E0906805F090A8
:1052B00069050E94F5129C012E193F0990918805FD
:1052C000911509F4B2C02531310580F19F3F19F0E5
:1052D0009F5F90938805D11459F00E94290D91E0A9
:1052E0001D140CF09FEF899F802D112480938C0555
:1052F000011559F00E94290D91E010160CF09FEF56
:10530000899F802D112480938D0580918C058115B6
:1053100069F0F0908D05F11449F00E941B0D809307
:105320008C058F2D0E941B0D80938D05812F8C295C
:10533000811509F441C0E0906605F09067050E9470
:10534000F5129C012E193F0990918705911509F4DA
:1053500067C02135310580F19F3F19F09F5F909321
:105360008705C11459F00E94490D91E01C140CF0FE
:105370009FEF899F802D112480938E05111559F080
:105380000E94490D91E011160CF09FEF899F802D2E
:10539000112480938F0580918E05811569F0F0901E
:1053A0008F05F11449F00E941B0D80938E058F2DFF
:1053B0000E941B0D80938F0580918B058B1119C066
:1053C00080918C05811511F0D81213C020918D05A4
:1053D000211511F002130DC090918F05911511F058
:1053E000191307C030918E05311103C0822B892B10
:1053F00081110E94721786E0E8A9F9A9AAE8B5E030
:1054000001900D928A95E1F70E946E0D90916A05C8
:10541000891709F438CC80936A050E94F80D33CCC3
:105420002B30310508F09ACFC7CF2B30310508F06B
:105430004FCF7CCF80910105811509F42ECCF9BCAA
:10544000E9BC09B400FEFDCF8091D8008F7D809328
:10545000D8008091E00082608093E0008091E000BD
:1054600081FDFCCF0E94111918CC78941F921FB6B1
:105470001F9211248F939F93AF93BF9380915202F9
:1054800090915302A0915402B09155020196A11D32
:10549000B11D8093520290935302A0935402B09393
:1054A0005502BF91AF919F918F911F901FBE1F908A
:1054B00018951F920F920FB60F9211242F933F93BE
:1054C0004F935F936F937F938F939F93AF93BF930C
:1054D000EF93FF938091E10082FF09C08091E20089
:1054E00082FF05C08091E1008B7F8093E100809175
:1054F000DA0080FF24C08091D80080FF20C0809116
:10550000DA008E7F8093DA008091D90080FFA9C0F5
:1055100080E189BD82E189BD09B400FEFDCF81E053
:105520008093020580914102811109C00E94AE0E54
:105530000E941F108091E20084608093E2008091BD
:10554000E10080FF1AC08091E20080FF16C08091C8
:10555000E2008E7F8093E2008091E2008061809380
:10556000E2008091D80080628093D80019BC85E069
:105570008093020583E0809314018091E10084FF11
:105580002FC08091E20084FF2BC080E189BD82E1C1
:1055900089BD09B400FEFDCF8091D8008F7D809336
:1055A000D8008091E1008F7E8093E1008091E2003D
:1055B0008F7E8093E2008091E20081608093E20020
:1055C00080914002811509F452C084E08093020565
:1055D00080910205843009F052C082E0809314016A
:1055E0008091E10083FF2CC08091E20083FF28C0FE
:1055F0008091E100877F8093E10082E08093020543
:10560000109240028091E1008E7F8093E1008091B2
:10561000E2008E7F8093E2008091E20080618093BF
:10562000E20042E060E080E00E94EF0F8091F00035
:1056300088608093F00081E08093140180931301CF
:10564000FF91EF91BF91AF919F918F917F916F915A
:105650005F914F913F912F910F900FBE0F901F9030
:10566000189519BC109202051092410268CF8091E2
:10567000E30087FF02C083E0A9CF81E0A7CF81E0EC
:10568000ADCF1F920F920FB60F921124EF92FF929F
:105690000F931F932F933F934F935F936F937F933A
:1056A0008F939F93AF93BF93CF93EF93FF9309EEA5
:1056B00010E0F8018081C091EC008F70C795CC2775
:1056C000C795C82B108280EFE82EF12CF70180815E
:1056D000877F808378940E944B19F8011082F7012C
:1056E000808188608083CF70F801C083FF91EF9143
:1056F000CF91BF91AF919F918F917F916F915F916A
:105700004F913F912F911F910F91FF90EF900F902C
:105710000FBE0F901F901895FF920F931F93CF937A
:10572000DF93182FEB011092BC0084EA8093BC0039
:105730000E94F512082FF92E8091BC0087FF28C027
:105740008091B900887F883029F08091B900887FE6
:10575000803199F51093BB0084E88093BC000E94CF
:10576000F512182F092F8091BC0087FF1EC02091D1
:10577000B900287F80E090E0283199F081E090E046
:10578000203411F480E090E091958195910909C051
:10579000802F9F2D0E940113C817D90768F68EEF3E
:1057A0009FEFCDB7DEB7E5E05AC1812F902F0E9461
:1057B0000113C817D907B8F6F2CF8FEF9FEFF1CFDB
:1057C0001092B9008CE08093B80008950F931F9356
:1057D000CF93DF93EB018093BB0084E88093BC0000
:1057E0000E94F512182F092F8091BC0087FF11C06D
:1057F0002091B900287F81E090E0283211F480E008
:1058000090E0919581959109DF91CF911F910F9132
:105810000895CF3FDC0741F3812F902F0E940113A1
:10582000C817D90708F78EEF9FEFEECFA0E0B0E0E2
:10583000EBE1FCE2F0C0782EB62EA72E6A01E9015A
:105840000E94F5124C01C431D10510F1CF3FDC07A5
:1058500019F1CE0164E170E0C5D0F62EE72E6F2D70
:105860007E2D872D59DF8C01892BC9F4EB2CFA2C66
:10587000CE0CDF1CEC14FD0419F001151105C9F064
:1058800084E98093BC00C801CDB7DEB7EDE0DFC08E
:10589000FF24F394E12CE3CF85E0F82EFBCFCF3F3C
:1058A000DC07E9F2C4010E940113C817D907B8F652
:1058B000DDCFBE01F70181917F0188DF8C01DACF56
:1058C000A0E0B0E0E5E6FCE2A6C0782EB62EA72E5A
:1058D0006A0189010E94F5124C010431110500F1A1
:1058E0000F3F100701F1C80164E170E07BD0EB01CC
:1058F000BE01872D11DF7C01892BB9F4CB2DDA2D68
:10590000CC0EDD1ECC15DD0519F0E114F104B9F063
:1059100084E98093BC00C701CDB7DEB7EDE097C046
:10592000C1E0D0E0E5CFC5E0FCCF0F3F100701F3A9
:10593000C4010E94011308171907D0F6DFCFFE013A
:105940008491B80143DF7C012196DCCFA0E0B0E078
:10595000EBEAFCE25FC0682E962E5A0169017801DD
:105960000E94F512782E892E0431110518F10F3F8F
:10597000100719F1C80164E170E034D0162F072F29
:10598000612F702F862DC8DEEC01892BC1F0FFEF4F
:10599000EF16FF06A9F3872D982D0E940113E81634
:1059A000F90670F784E98093BC00CE01CDB7DEB76D
:1059B000EEE04CC011E000E0E3CF15E0FCCFB70112
:1059C000892D04DFEC018501CA0CDB1C0C151D05BB
:1059D00049F3209739F7B701F80181918F01F6DE7D
:1059E000EC01F4CFAA1BBB1B51E107C0AA1FBB1FD0
:1059F000A617B70710F0A61BB70B881F991F5A955B
:105A0000A9F780959095BC01CD0108952F923F9202
:105A10004F925F926F927F928F929F92AF92BF92BE
:105A2000CF92DF92EF92FF920F931F93CF93DF936A
:105A3000CDB7DEB7CA1BDB0B0FB6F894DEBF0FBEC7
:105A4000CDBF09942A88398848885F846E847D8414
:105A50008C849B84AA84B984C884DF80EE80FD8016
:105A60000C811B81AA81B981CE0FD11D0FB6F8948C
:105A7000DEBF0FBECDBFED010895992778E0880FF6
:105A8000991F961708F0961B881F7A95C9F780957D
:105A9000089597FB072E16F4009406D077FD08D0E2
:105AA000A1DF07FC05D03EF4909581959F4F0895A6
:105AB000709561957F4F0895EE0FFF1F0590F4914B
:105AC000E02D09948F929F92AF92BF92CF92DF9276
:105AD000EF92FF92CF93DF93EC01688179818A8105
