:100000005FC6000095C6000093C6000091C60000C0
:100010008FC600008DC600008BC6000089C6000098
:1000200087C6000085C600000C94102B0C94F82B9A
:100030000C94D3127DC600007BC6000079C6000078
:1000400077C600000C94CD1273C6000071C6000084
:100050006FC600000C94EC2A6BC6000069C6000055
:1000600067C6000065C6000063C6000061C60000E8
:100070005FC600005DC600005BC6000059C60000F8
:1000800057C6000055C6000053C6000051C6000008
:100090004FC600004DC600004BC6000049C6000018
:1000A00047C6000045C6000043C60000933A000161
:1000B0008002400420041002080104030284043872
:1000C00040802E0003803100821CE2020104020104
:1000D0000104000280090082800002308200C00218
:1000E000C187C2040810204080030004800440043B
:1000F0002004100508050404020401330084807004
:100100000C030700030C880D010040A021221203FC
:10011000110109040802040208051082110F0201EE
:1001200036000580054005200510050805048202FB
:10013000030202060102020204050801073D009ABB
:10014000330002800500018002400420041083086F
:100150000402020185020C3040802E000380310031
:10016000821EE10200020102020101040002800974
:100170000082800002308200C002C187C2040810E1
:10018000204080030004800440042004100508057A
:10019000040402040133008480700C030700030C84
:1001A000880D010040A02122120311010904080258
:1001B000040208051082110F020136000580054077
:1001C000052005100508050482020302020601024B
:1001D000020204050801073D008C3B000280044038
:1001E000042083100804020284041860802F000396
:1001F000803100823CC2020102020204820201102C
:1002000000026082008102828684081020408004FF
:1002100000048004400420041005080504040204BE
:10022000013300848070190607000318881B03003F
:1002300040A02224140312010B0408020502090540
:100240001082110F020136000580054005200510BF
:1002500005080504820203020206010202020405E7
:100260000801073D00903A0001800240042005107B
:100270000208030484083040802E0003803100838C
:1002800018648205020101040002800900828000D6
:1002900002308200C002C187C204081020408003DF
:1002A000000480044004200410050805040402042E
:1002B00001330084C03804030700030C880D0100DB
:1002C00040A02122120311010904080204020805BA
:1002D0001082110F0201360005800540052005102F
:1002E0000508050482020302020601020202040557
:1002F0000801073D0099330002800500018002409B
:100300000420041083080402020185020C3040809E
:100310002E0003803100821EE10200020102020170
:1003200001040002800900828000023002008A017C
:10033000E11A06093135018A7C0200048004400478
:1003400020041005080504040204013300848070B1
:100350000C030A000201860040A0212212031101B1
:10036000090408060403020401360005800540055F
:1003700020051005080504820203027A04798239F7
:100380003102020204030802888287803C00B433F1
:10039000000280050001800240042004108308044C
:1003A00002020185020C304080070004F8050002BB
:1003B000801C0003803100821EE102000201020263
:1003C0000181028002000280090082800002300266
:1003D0000002018E02040810204387070100B8BC08
:1003E000BE9F025F824F4C042004100508050404E0
:1003F00002040133008480700C0302008818060593
:10040000989984437C0241024084202122120311E6
:100410000109040802040208051085110F013D7C42
:1004200005FC823C0C2E00058005400520051005CA
:1004300008050482020302020601240001010203EE
:10044000200000AF00AE07087F0807003E5B4F5B4F
:100450003E003E6B4F6B3E001C3E7C3E1C00183C39
:100460007E3C18001C577D571C001C5E7F5E1C00E4
:1004700000183C180000FFE7C3E7FF00001824182D
:100480000000FFE7DBE7FF0030483A060E002629B0
:1004900079292600407F05050700407F05253F009C
:1004A0005A3CE73C5A007F3E1C1C0800081C1C3EBE
:1004B0007F0014227F2214005F5F005F5F00060947
:1004C0007F017F00006689956A006060606060005F
:1004D00094A2FFA2940008047E04080010207E204D
:1004E000100008082A1C0800081C2A0808001E1012
:1004F000101010000C1E0C1E0C0030383E3830005E
:10050000060E3E0E060000000000000000005F0026
:100510000000000700070000147F147F1400242A45
:100520007F2A1200231308646200364956205000C7
:10053000000807030000001C224100000041221CAB
:1005400000002A1C7F1C2A0008083E0808000080C2
:100550007030000008080808080000006060000013
:100560002010080402003E5149453E0000427F40F1
:1005700000007249494946002141494D3300181491
:10058000127F10002745454539003C4A4949310052
:100590004121110907003649494936004649492990
:1005A0001E0000001400000000403400000000089D
:1005B00014224100141414141400004122140800E1
:1005C0000201590906003E415D594E007C1211128C
:1005D0007C007F49494936003E41414122007F412C
:1005E00041413E007F49494941007F090909010015
:1005F0003E41415173007F0808087F0000417F4160
:1006000000002040413F01007F08142241007F404C
:10061000404040007F021C027F007F0408107F00E2
:100620003E4141413E007F09090906003E415121FA
:100630005E007F0919294600264949493200030115
:100640007F0103003F4040403F001F2040201F002B
:100650003F4038403F0063140814630003047804EB
:1006600003006159494D4300007F414141000204AC
:1006700008102000004141417F00040201020400F3
:1006800040404040400000030708000020545478D8
:1006900040007F284444380038444444280038440B
:1006A00044287F0038545454180000087E09020082
:1006B00018A4A49C78007F080404780000447D40BE
:1006C00000002040403D00007F1028440000004111
:1006D0007F4000007C04780478007C0804047800E3
:1006E000384444443800FC182424180018242418E2
:1006F000FC007C08040408004854545424000404FA
:100700003F4424003C4040207C001C2040201C0032
:100710003C4030403C004428102844004C909090CD
:100720007C004464544C4400000836410000000042
:1007300077000000004136080000020102040200B8
:100740003C2623263C00000000000000404040F012
:10075000F8F8FF38FFF8F83FF8F8FF38FFF8F8F03E
:1007600040404000000000000080C0C0C080000089
:10077000C0C08000000080C0C000C0C0000080C0B9
:10078000C00000000000C0C0C0C0C000C0C0000069
:100790000000000000000000000000000000000059
:1007A0000000000000000000000000000000000049
:1007B0000000000000000000000000000000000039
:1007C0000000000000C0F0F8FC3E1E060100000022
:1007D0007F4141417F007F4141417F000080C0E077
:1007E0007E5B4F5BFEC00000C000DCD7DEDEDED7E4
:1007F000DC00C0000000000000000000000000005D
:10080000000000000000000000000000494949FF0E
:10081000FFFFFFE0DFBFBF00BFBFDFE0FFFFFFFF65
:1008200049494900000000001F3F6060E0BF1F0011
:100830007F7F071E381E077F7F007F7F0E1F3B7163
:100840006000000000007F7F0C0C0C007E7E007FAB
:100850007E0303007F7E03037E7E03037F7E000F03
:100860003E703C063C703E0F00327B49493F7E00A3
:100870007F7E0303001E3F69696F260000000000B1
:100880000000000000030F1F3F3C78706000000074
:100890007F4141417F007F4141417F00307B7F7834
:1008A00030202030787F3B0003000F7F0F0F0F7F39
:1008B0000F00030000000000000000000000000026
:1008C000000000000000000000000000010101071E
:1008D0000F0F7F0F7F0F0F7E0F0F7F0F7F0F0F0701
:1008E0000101010000000000000000000001010003
:1008F00000000000000000000000000000000000F8
:1009000000000000000000000000000000000000E7
:1009100000000000000000000000000000000000D7
:1009200000000000000000000000000000000000C7
:1009300000000000000000000000000000000000B7
:1009400000000000000000000000000000000000A7
:100950000000000000000000000000000000000097
:100960000000000000000000000000000000000087
:100970000000000000000000000000000000000077
:1009800000000000000005010902A1018502090123
:10099000A10005091901290815002501950875010F
:1009A00081020501093009311581257F95027508FD
:1009B000810609381581257F950175088106050C8A
:1009C0000A38021581257F950175088106C0C0058A
:1009D000010980A101850319012AB700150126B775
:1009E00000950175108100C0050C0901A101850465
:1009F00019012AA002150126A00295017510810097
:100A0000C005010906A101050719E029E715002520
:100A10000195087501810295017508810105071985
:100A20000029FF150026FF009506750881000508BE
:100A300019012905150025019505750191029501FA
:100A400075039101C009023B00020100A0FA0904EC
:100A500000000103010100092111010001224400ED
:100A600007058103080001090401000103000000DB
:100A7000092111010001227B0007058203200001EA
:100A80001201000200000008574B0233000201026D
:100A900000010A0362006500610072000000220389
:100AA0005400720061006E00200048006F00610079
:100AB0006E00670020004700690061006E0067005B
:100AC000000004030904963300028005000180023F
:100AD000400420041083080402020185020C304007
:100AE000802E0003803100821EE10200020102021A
:100AF000018102800200028009008280000230022F
:100B0000008A01E11A06093135018A7C020004805D
:100B10000440042004100508050404020401330005
:100B20008480700C03020088180605989984C37CA1
:100B30000241024084202122120311010904080607
:100B40000403020401360005800540052005100558
:100B5000080504820203020206014700204F4646B0
:100B60000A00204F4E0A0042504D200000010101B2
:100B7000010101010101020202020202020202035A
:100B8000030303030303030404040404040405052A
:100B900005050506060606060707070707080808ED
:100BA00008090909090A0A0A0B0B0B0C0C0C0D0D9C
:100BB0000D0E0E0E0F0F0F10101111111212131334
:100BC0001414151516161717181819191A1A1B1BAD
:100BD0001C1D1D1E1E1F2020212222232424252609
:100BE00026272829292A2B2C2D2D2E2F3031323241
:100BF000333435363738393A3B3C3D3E3F4041424D
:100C0000434445464748494A4C4D4E4F5051535432
:100C1000555658595A5B5D5E5F61626465666869E6
:100C20006B6C6D6F7072737577787A7B7D7E808266
:100C3000838587888A8C8E8F91939596989A9C9EAF
:100C4000A0A2A3A5A7A9ABADAFB1B3B5B7BABCBEBF
:100C5000C0C2C4C6C9CBCDCFD1D4D6D8DBDDDFE28C
:100C6000E4E7E9EBEEF0F3F5F8FAFDFF00DA0281D4
:100C7000FFD9F1DB20A4A62EAF00A0C0D30000A1B5
:100C8000C8D30000AED580A81F408D1420000000FE
:100C90000000417E000000002C005200407E000059
:100CA0000000500051004F00000000000000000054
:100CB0000000427E00000000000000000000000074
:100CC00011241FBECFEFDAE0DEBFCDBF04B603FEB6
:100CD00018C08091EF059091F005A091F105B091B9
:100CE000F2058730904BA740B04B59F41092EF05B6
:100CF0001092F0051092F1051092F205E0E0F8E391
:100D0000099525E0A6E2B2E001C01D92AF3EB20710
:100D1000E1F712E0A0E0B1E0E2EBF8E602C00590F6
:100D20000D92A632B107D9F70E9442250C94E33305
:100D300067C94F925F926F927F928F929F92AF920C
:100D4000BF92CF92DF92EF92FF92CF93DF9300D0CA
:100D500000D0CDB7DEB7F8941092800010928100D9
:100D600010928200109285001092840020918100E0
:100D70002860209381000E94CA3220E034E244E7D8
:100D80005BE469837A838B839C8369817A818B811D
:100D90009C810E94803320E034E244E75EE42B0132
:100DA0003C01C301B2010E9431324B015C01C5011B
:100DB000B4010E949E326B017C01C092EB05D0927F
:100DC000EC05E092ED05F092EE058091EB05909137
:100DD000EC05A091ED05B091EE050097A140B1059D
:100DE00060F08FEF9FEFA0E0B0E08093EB05909371
:100DF000EC05A093ED05B093EE058091EB05909185
:100E0000EC05A091ED05B091EE05909389008093DB
:100E1000880080916F00826080936F0078940F90BB
:100E20000F900F900F90DF91CF91FF90EF90DF9098
:100E3000CF90BF90AF909F908F907F906F905F907A
:100E40004F900895E1E8F0E0808185608083109202
:100E50008500109284001092E7051092E805109228
:100E6000E9051092EA0581E08093E60508959093E4
:100E70009C0580939B05089590939E0580939D0506
:100E8000089521E030E002C0220F331F8A95E2F777
:100E900080919D0590919E05822B932BEDCF21E0B3
:100EA00030E002C0220F331F8A95E2F7209530957B
:100EB00080919D0590919E0582239323DDCF9530EF
:100EC00090F5853080F5E82FF0E085E0989FE00D03
:100ED000F11D11248E2F877041E001C0440F8A95C7
:100EE000EAF783E0F695E7958A95E1F7EE0FFF1FA5
:100EF000EE0FFF1FE858FA4F20E030E070E051910C
:100F0000DF01CB01022E02C0969587950A94E2F785
:100F1000817081958527842385278E932F5F3F4F8E
:100F20002430310561F70895953078F5853068F5FE
:100F3000E82FF0E085E0989FE00DF11D11249E2F31
:100F4000977083E0F695E7958A95E1F7EE0FFF1F1E
:100F5000EE0FFF1FE858FA4F40E050E080E021918B
:100F600030E0092E02C0369527950A94E2F72170E9
:100F70003327042E01C0220F0A94EAF7822B4F5F19
:100F80005F4F4430510559F7089580E008958091EE
:100F9000A4059091A305981301C008958F5F8770F1
:100FA000FACF90919F058095892380939F05282FE4
:100FB000277021110CC0891751F09091A10592FF63
:100FC00006C08695869586956ADF10929F050895DE
:100FD000982F90958091980589238093980508957E
:100FE000753090F4653080F4811111C0E62FF0E087
:100FF00085E0789FE00DF11D1124EE0FFF1FE257F1
:10100000F34F85919491089580E090E0089581E0F8
:10101000FCCF9C01803E910509F448C0D8F481338F
:10102000910509F47DC048F48932910509F46DC039
:101030008A9709F47CC0C90108958933910551F15B
:101040008238910539F1C597B1F78091A00585FFE8
:10105000F2CF29C0843E910509F447C048F4823E8E
:10106000910599F1833E9105A9F121EE30E0E3CF9E
:10107000863E910509F444C0873E9105E1F68091D2
:10108000A00583FD61C09091A10591FF2BC024EEC6
:1010900030E0D1CF8091A0058370811152C0809142
:1010A000A10583FFC8CF29E230E0C5CF8091A0051C
:1010B00080FD33C09091A10590FFBDCF23EE30E0BD
:1010C00084FFB9CF20E030E0B6CF8091A00582FD4B
:1010D000F5CFB1CF8091A00582FD30C09091A105E0
:1010E00090FD2FC084FFA7CFEDCF8091A10581FF98
:1010F000A2CF8091A00527EE30E084FDE3CF9BCF07
:101100008091A00583FDF7CF96CF8091A00585FD46
:101110001EC08091A10583FF8ECF29E330E08BCFE5
:101120008091A00586FF87CF2AE230E084CF8091AE
:10113000A00586FF80CF21E330E07DCF22EE30E0B6
:101140007ACF20EE30E077CF26EE30E074CF25E383
:1011500030E071CF9091A00592FF10C041E0282FA0
:101160002471243009F040E031E0282F2871283024
:1011700009F030E0431711F02CE0822793FF10C0F4
:1011800041E0282F2471243109F040E031E0282F7C
:101190002871283109F030E0431711F02CE0822744
:1011A0003091A10530FF10C051E0282F217121306E
:1011B00009F050E041E0282F2871283009F040E084
:1011C000541711F029E0822731FF10C041E0282F89
:1011D0002171213109F040E031E0282F28712831B8
:1011E00009F030E0431711F029E0822794FD877E53
:1011F00008951F93CF93DF930CDFEC01811522E557
:10120000920708F052C0811540E5940708F0CDC060
:10121000803E910520F58D3C910508F0A1C0883AEB
:10122000910570F4853A910508F097C081309105D9
:10123000B9F10497813A910598F1C0E0D0E030C04F
:10124000885A91094B97C8F7C85AD0E0CC0FDD1FD8
:10125000C654DE4F0990D881C02DD46421C08115B9
:1012600050E49507B0F4C11580E2D80708F0B3C088
:10127000C83ED105A8F0CE019A9581159F41E8F6A8
:101280008D2F68DF182FCE019927C3DEEC01D12BFB
:1012900007C09927BEDECC27DF70C82BD92BD06AB8
:1012A000CE01DF91CF911F910895803842E59407D8
:1012B000C8F5803652E5950708F05BC0C03482E57A
:1012C000D807D0F4C03292E5D90708F04BC08C2F74
:1012D0008695869520E2829FC0011124C37021E08B
:1012E00030E0A90102C0440F551FCA95E2F7EA0198
:1012F000C82BD92BDD68D4CF8C2F86958695877027
:1013000050E2859FC0011124C37021E030E0A901A3
:1013100002C0440F551FCA95E2F7EA01C82BD92B2A
:10132000DC68BECF803C52E5950758F48F71C03A17
:10133000D245A0F590E0982F8827EC01C46FD06AC1
:10134000AFCF805C9245809708F077CFDC2FCC2719
:10135000CC27DF71C06FD06AA3CFA497D064A0CF91
:10136000D0659ECFCF71D0E0DC2FCC27C16FD06A83
:1013700097CF86958695877020E2829FC0011124C1
:10138000C37021E030E0A90102C0440F551FCA9587
:10139000E2F7EA01C82BD92BDA6882CFDBDEC82F4F
:1013A000D0E0DC2FCC27D0627BCF8F71D3DE93E0EF
:1013B000CC0FDD1F9A95E1F7CC27DF70282F30E0A6
:1013C00084FF05C050E1859F900111243327C22B73
:1013D000D32BD06965CF8D2F8F71BCDE182FCE0136
:1013E000992717DEEC01D12BDECFA0E0B0E0EBEFC8
:1013F000F9E00C94C62D8C01E0909D05F0909E05BF
:1014000080919B0590919C05E82AF92ACFE0D0E0D5
:10141000CC24C394D12CC6010C2E02C0880F991F76
:101420000A94E2F78E219F21892B49F4219798F79E
:10143000B12C8B2DCDB7DEB7E9E00C94E22DBC2E9C
:10144000B8018C2FCDDDD5DE019781F3F2CF0F935C
:101450001F93CF93FC01858100811181811579F063
:10146000611569F0C801C1DFC82F682FC80127DDE9
:10147000B8018C2FB5DDCF911F910F910895C80150
:1014800053DDC82FF5CFCF93DF93D82FC92FADDF12
:101490006D2F7C2FA5DDADDEDF91CF910895FC018E
:1014A0008481811599F080819181EDDF282F9295BB
:1014B0009F70963099F060F4925F9F70923030F494
:1014C000203FB1F038F481E0283E38F080E0089504
:1014D0009A5FF3CF81E0243FC9F7089591E0213F5F
:1014E00009F090E081E0283E08F080E0892B089523
:1014F00081E0089580E00895F894E82FE295EF7078
:10150000F0E041A18F7021E030E0B90102C0660F28
:10151000771F8A95E2F7CB01962F9095942391A39C
:1015200092A1892B82A378940895CF92DF92EF92B3
:10153000FF921F93CF93DF93172FE82FF0E0E4592A
:10154000F44F71110CC0E4918E2F7E2F6E2FDF911E
:10155000CF911F91FF90EF90DF90CF900895E62EEE
:10156000F12CC72ED12CF491EF2F86E0689F9001CB
:101570001124CFEFD0E0C901BE010E94A92DAB011B
:10158000EE0CFF1C65E5649FC001659F900D112462
:10159000E81AF90A6E2D660F6E0D7E01EC18FD0833
:1015A000FE9DD001FF9DB00D11248B2F169F700161
:1015B0001124EF2CFF246E01CE18DF087601FE9D6A
:1015C0006001FF9DD00C11247E01E61AF108B701DD
:1015D000169F7001179FF00C1124EF2CFF24CE19D9
:1015E000DF09FC9F7001FD9FF00C11247F2D43301B
:1015F0005105C1F02C3F334058F441305105B1F052
:101600004230510509F0A2CFEB2F8F2D7F2F9ECFB7
:101610004430510571F04630510509F497CF7B2FC6
:101620008D2D94CF7D2DEB2F8F2F90CF7F2FED2DF4
:101630008DCFEF2D7B2FF8CF282F269F020E20E095
:10164000211D1124822F08959C0180E090E0269FA7
:10165000020E811D369F800D911D1124830F911D57
:101660000895AC018230910508F408959FEF413E42
:101670008EE1580740F4CA0125E0969587952A9592
:10168000E1F798E0980F61E0E62FE90FFF27FF1FD1
:101690009F0135952795822F229FF001239FF00D02
:1016A000F00D11244E175F0738F49FEF920F961735
:1016B00058F78FEF860F08952F3FE9F361E0620F2F
:1016C000F6CFCF93DF93D62FC72F682F2695E22F23
:1016D00026FDE0959E2F9F7026FD9F5FE695E6957F
:1016E000E695E670F0E0E75BFE4F3181399F302DE3
:1016F000912D112432953F709295907F392B8081E6
:10170000830F27FD819587FD8195880F95DF6D2FCC
:101710007C2FDF91CF910895622F0895E42FF0E0A0
:10172000EE0FFF1FE55AFE4F618D621B0895E42FF7
:10173000F0E0EE0FFF1FEB58FE4F6081621B089533
:10174000CF93DF93D62FC72F682F842F809574DF18
:101750006D2F7C2FDF91CF9108951F93CF93DF934F
:10176000162FD72FC82F60E4842F809565DF682F50
:10177000610F7D2F8C2FDF91CF911F910895EF92F4
:10178000FF920F93E00EF11CF90137FF03C0F195B2
:10179000E195F10924E0EE0FFF1F2A95E1F7E1152D
:1017A00031E0F30714F0EFEFF0E0DA0157FF03C088
:1017B000B195A195B10994E0AA0FBB1F9A95E1F7E5
:1017C000AE17BF070CF4FD01EE0DFF1DE11591E012
:1017D000F90710F0EFEFF0E02E2F2095382F320FA1
:1017E00008F43FEF832F0F91FF90EF90089505C10C
:1017F00008950EC10895880F880F94E0980F9331D3
:1018000008F092E10895E2E2F5E0808191E0892715
:10181000808310921F018091CD0481608093CD045C
:101820000895809122058370811102C010921F01DA
:10183000809122058C7F8160809322058091CD0468
:1018400081608093CD040895809122058370811179
:1018500010921F01809122058C7F80932205809138
:10186000CD0481608093CD040895E2E2F5E0248107
:1018700030E1230F08F42FEF24838091CD048160A1
:101880008093CD040895E2E2F5E0248130E1231B4A
:1018900008F420E024838091CD0481608093CD04FE
:1018A00008959B016130724010F020E032E0F901B0
:1018B000E354FD4F90819817C9F0808385E03695F9
:1018C00027958A95E1F781E090E0AC0102C0440FD2
:1018D000551F2A95E2F79A018091B9029091BA02B8
:1018E000842B932B9093BA028093B9020895A0E0C1
:1018F000B0E0EDE7FCE00C94C52D7C01FC01C49048
:10190000DD24D39400E810E0DC1428F0CDB7DEB776
:10191000EAE00C94E12DF701ED0DF11DD491C1E049
:10192000CD0DD7FF15C0DF77DC2EDD0EB801CD1150
:1019300003C00D0F111DE8CFF701EC0FF11D8491CD
:10194000CF5F5B01FFEFAF1ABF0AABDFB501EFCF8F
:10195000F701EC0FF11DC491D394D394B801862FF5
:10196000801B8D1730F75B018FEFA81AB80A8C2FF8
:1019700098DFB501F4CF90E06115E9F08D5C9E4FE2
:10198000FC0180818F3FB1F0E82FE295EF70F0E02D
:1019900041A18F7021E030E0B90102C0660F771FCE
:1019A0008A95E2F7CB01962F9095942391A392A16B
:1019B000892B82A308958F5C9E4FE2CF90E0611542
:1019C000A9F08D5C9E4FFC0120812F3F91F0E22F0A
:1019D000E295EF70E05EF0E0808190E02F7002C051
:1019E000959587952A95E2F7817008958F5C9E4FB3
:1019F000EACF80E00895279A0895FC01EE0FFF1FBB
:101A0000E80FF91FE65AFD4F618340832283089552
:101A1000FF920F931F93CF93DF93182F062FF42E6F
:101A2000C0E0D0E02F2D402F612FCE01E6DF2196C0
:101A3000C231D105B9F7CDB7DEB7E5E00C94E62D9C
:101A4000282F35EB2303C001112497FF04C08058D1
:101A50009109892F089580589F4FFBCF80918A0567
:101A600080FD14C081FD14C082FD16C080918905DF
:101A7000811581F08E3180F420E5829FC001112410
:101A80006EE170E00E94002E862F089584E1089593
:101A900088E2089588E0089580E5089580918A0598
:101AA00080FD17C081FD17C082FD19C08091880597
:101AB000811599F0883298F428E0829FC0011124A2
:101AC00068E270E00E94002E6115710551F0862FCA
:101AD000089562E0FCCF64E0FACF61E0F8CF68E0FF
:101AE000F6CF81E00895E0916E05F0916F05309793
:101AF00039F00190F081E02D309711F009950895AB
:101B000080E00895A3E0B0E0E8E8FDE00C94CD2D7E
:101B10009C01809158029091590282179307B1F06D
:101B20003093590220935802E0916E05F0916F05B1
:101B3000309761F00084F185E02D309739F083E033
:101B400089833B832A83CE01019609952396E2E09F
:101B50000C94E92DA3E0B0E0E0EBFDE00C94CD2D7A
:101B60009C01809156029091570282179307B1F021
:101B70003093570220935602E0916E05F0916F0565
:101B8000309761F00084F185E02D309739F084E0E2
:101B900089833B832A83CE01019609952396E2E04F
:101BA0000C94E92D9C01FC0132968FEF90E041915D
:101BB000461751F08F3F19F4411101C0892F9F5FE3
:101BC0009630A9F78F3F09F40895280F311D87FD3E
:101BD0003A95F901628308959C01FC013296285FD1
:101BE0003F4F8191861302C0DF011E92E217F30777
:101BF000C1F708958091120108952FB7F89460916C
:101C000052027091530280915402909155022FBF5D
:101C100008950895FC019B0180914802909149022A
:101C20008617970740F0672B29F48091E8008E779C
:101C30008093E800C90140E0009741F4411106C0DB
:101C40008091E80082FF2FC080E008952091030575
:101C50002115A9F12530A9F12091E80023FD2DC01F
:101C60002091E80022FDECCF2091E80020FFE4CF96
:101C70003091F3002091F200009719F028303105DF
:101C800058F041E02830310509F040E02091E800AB
:101C90002E772093E800D0CF41914093F100019737
:101CA0002F5F3F4FE9CF80910305811541F08530CB
:101CB00041F08091E80083FFC3CF81E0089582E086
:101CC000089583E008958091420287FF13C08091B8
:101CD000E80082FF06C08091E8008B778093E800DF
:101CE0000895809103058111F2CF08958091030535
:101CF0008115D9F38091E80080FFF8CF8091E8004A
:101D00008E77ECCF2091E4003091E50095E6A901B3
:101D10002091EC00822F817020FF06C08091E800A6
:101D200080FF06C080E008952091E80022FD1AC0DF
:101D300080910305811589F0853089F08091EB0051
:101D400085FD0FC02091E4003091E5004217530754
:101D5000F9F29A95E1F684E0089582E0089583E02F
:101D6000089581E00895E8EDF0E080818E7F808322
:101D70001092E2001092DA001092E100A0EEB0E0C2
:101D80008C9181608C9380818F77808319BCA7EDC3
:101D9000B0E08C918E7F8C9380818F7E80831092B7
:101DA00041020895EF92FF920F931F93CF93DF9319
:101DB0007C0180910E011FDDC82F192F609126052F
:101DC0006695669521E0620F08F46FEF8091C40478
:101DD0009091C50439DC082FD0E0C11748F081E0AC
:101DE000123108F080E0CDB7DEB7E6E00C94E52DC7
:101DF000FE01E55AFE4F85AD90910F0189238115B3
:101E000079F0609123057091240580912505202F9C
:101E10004C2FF701099589DB472F282FCE01E7DCEE
:101E20002196DBCFA0E0B0E0E8E1FFE00C94C42D08
:101E30007C0180910E01DFDCC82FB92E2091260590
:101E400031E0230F08F42FEF30E040E050E06FEF77
:101E50007FEF80E090E00E946B316901D0E0A22E1C
:101E60009D2C2C2FCB1550F081E0F2E1BF1608F02D
:101E700080E0CDB7DEB7EBE00C94E02DFE01E55A33
:101E8000FE4F85AD90910F018923811501F180915D
:101E9000CE048150082E000C990B87FF1AC00A2D22
:101EA000192D6091260521E0620F08F46FEFC8013B
:101EB000CBDBAC0160912305709124058091250551
:101EC000F701099532DB472F282FCE0190DC2196B0
:101ED000C8CFFC01E253FB4F318932130AC0FC0129
:101EE000EE0FFF1FE253FB4F018D128D0C151D05E8
:101EF000C0F20197D2CF909122059370911591F085
:101F00008A3008F089E0880F880F9091220593703D
:101F1000892B8093220510921F018091CD0481604E
:101F20008093CD04089580912205869586958F5FD4
:101F30008A3008F081E0DFCF809122058695869572
:101F40008A9509F489E0D7CF909122059370911575
:101F500071F08093230560932405413F08F040EF22
:101F6000409325058091CD0481608093CD04089530
:101F7000E2E2F5E0818190E0438162810896E4CF5E
:101F8000E2E2F5E08181438162818850990BDCCFE8
:101F9000E2E2F5E0628120E1620F08F46FEF8181F7
:101FA000438190E0D1CFE2E2F5E0628120E1621B63
:101FB00008F460E08181438190E0C6CFE2E2F5E081
:101FC00043812CE0420F08F44FEF8181628190E061
:101FD000BBCFE2E2F5E043812CE0421B08F440E095
:101FE0008181628190E0B0CF982F9093E9008917AA
:101FF00071F07091EC002091ED005091F00021FD06
:1020000009C09F5F973089F78093E9000895762F84
:10201000242F50E03091EB003E7F3093EB00309165
:10202000ED003D7F3093ED003091EB003160309357
:10203000EB007093EC002093ED005093F0002091A2
:10204000EE0027FDDECF0895A0E0B0E0EAE2F0E187
:102050000C94C72DC8EDD0E088818F7E8883E7ED92
:10206000F0E080818160808384E082BF81E08093A2
:10207000410288818E7F888302EE10E0F801108291
:102080001092DA0081EEC82ED12CF60110828881E0
:102090008F77888388818068888388818F7D888313
:1020A00019BC109203051092400210920205109282
:1020B0003F0290EEE92EF12CF70180818B7F808327
:1020C00088818160888342E060E080E08DDFF601F6
:1020D00080818E7F8083F801808181608083808110
:1020E00088608083F70180818E7F80838881806112
:1020F0008883CDB7DEB7E8E00C94E32DE091A4052A
:102100009091A30527E0E91302C080E00895AE2F67
:10211000B0E02E9FF0011124EB55FA4F31813613B8
:1021200006C03081381303C03581341304C0FD016B
:102130003196E770E8CF81E0089535B13F7725B15A
:1021400020684FB7F8948AE592E0FC01019650812F
:1021500068E025B9000000C057FF35B9550F0000F1
:1021600000C000C000C035B900C06A9591F752E0C8
:102170008039950751F74FBF8FE594E00197F1F74C
:1021800000C00000089581E08093E00080E2809329
:10219000D8001092C9008FE19EE40197F1F700C0CA
:1021A000000087E090EBDC018093EF059093F00551
:1021B000A093F105B093F20588E19CE00FB6F89486
:1021C000A895809360000FBE90936000FFCF0F939F
:1021D0001F93CF93DF938B01EA0190910305943015
:1021E00051F58093E9008FEF9091E80095FD06C0CE
:1021F00095ED9A95F1F700008A95B1F78091E80086
:1022000085FF19C07FDD811111C08091E80085FD37
:1022100006C08091E8008E778093E800F3CFF80144
:1022200081918F018093F100219779F78091E800E7
:102230008E778093E800DF91CF911F910F910895E1
:10224000CF93DF93D82FC92F48E050E0682F792F24
:1022500081E0BDDF88E0ED2FFC2FAAE4B2E0019021
:102260000D928A95E1F7DF91CF910895BC0146E088
:1022700050E082E0ACCFBC0143E050E082E0A7CF69
:102280009091A10592FB222720F9281779F080FB75
:1022900092F99093A1056091A0057091A10584E049
:1022A00090E00E94673182E00C94D1070895EDEB35
:1022B000F2E080E092E0DF019C011D92215030406D
:1022C000E1F7F093BC02E093BB028FEF9FEF909396
:1022D000BA028093B9020895809198059091A20561
:1022E000892B40919905411589F090E02AE232E06E
:1022F000F90150812F5F3F4F51119F5F52E0203312
:102300003507B1F7911110929905842B809328021B
:1023100048E050E060E775E088E292E00E94772EA6
:10232000892BB9F088E0E8E2F2E0A0E7B5E001909F
:102330000D928A95E1F7E0916E05F0916F05309767
:1023400041F00280F381E02D309719F088E292E0AD
:1023500009950895811531F090919805892B809306
:102360009805BACF0895811519F00E94E807B4CFF7
:10237000089548E050E067E170E082E295E00E9455
:102380003E311092CD040895E2E2F5E085E18083CC
:102390008091280190912901A0912A018183928343
:1023A000A3838FE784838FEF8583E3CFAB0124E69C
:1023B00030E0BC0188E70E94172D9C0181E0232BAF
:1023C00009F080E008958091F904811561F0809111
:1023D000F804811541F062E070E084E494E0E6DF07
:1023E00081111092F80408958091F9048115E9F0A3
:1023F00004DCDC01CB01805A9541AF4FBF4F809385
:10240000FA049093FB04A093FC04B093FD04809124
:10241000F80481110AC062E070E082E494E0C6DF53
:10242000811519F081E08093F8040895CF93DF932C
:10243000682F8091BB029091BC026A30B1F4209168
:10244000FE048D5B9240622F70E00E94A92D281B34
:10245000822F66E00E94F42DC82FC15018F4DF913E
:10246000CF91089580E2E2DFF8CF6D30D9F49C017E
:102470002D5B32404091FE04642F70E0C9010E9440
:10248000A92D481BC901840F911D811522E09207D7
:1024900010F080E090E083549D4F9093BC028093B5
:1024A000BB02DDCF26E0FC01A9E3B2E001900D9272
:1024B0002A95E1F7603E08F458C026E0FC0111922D
:1024C0002A95E9F7C091BB02D091BC0246E050E0EA
:1024D000BE0189E392E00E94772E9E012D5B32407F
:1024E000892B41F1C90145E0969587954A95E1F719
:1024F00041E050E0BA0102C0660F771F8A95E2F70B
:10250000CB016091B9027091BA02862B972BB90169
:102510006B5F7F4FE5E076956795EA95E1F702C03E
:10252000440F551F6A95E2F7842B952B9093BA02BE
:102530008093B9022A5F3F4F4091FE04642F70E000
:10254000C9010E94A92D481B463010F4240F311DEB
:10255000211572E0370710F020E030E023543D4FA2
:102560003093BC022093BB027ACFF6E06F9FB0019C
:1025700011246A5B7B4F46E050E00E946E2EA2CF92
:10258000CF93DF93EC01FE018491811103C0DF91B1
:10259000CF9108954BDF2196F6CF8F9381E0809302
:1025A000E5058F9118951F921FB61F9211248F93E6
:1025B0009F93AF93BF9380910005811113C08091C9
:1025C000520290915302A0915402B091550241964B
:1025D000A11DB11D8093520290935302A093540207
:1025E000B0935502BF91AF919F918F911F901FBEE5
:1025F0001F9018952FB7F894809152029091530232
:10260000A0915402B09155022FBF0895CF93DF934C
:10261000EC01F0DF8C1B9D0BDF91CF910895A8E0BA
:10262000B0E0E5E1F3E10C94BD2D182F809121017C
:10263000811321C09091220593702091200130E0F8
:1026400081E09217130609F480E0809310018091D5
:10265000270590910F01981731F080930F0140E00A
:1026600060E080E0C6D81A3080F4E12FF0E0EB5152
:10267000FC4C0C94132E81E0E8CF80911001811561
:1026800021F040E060E080E0B4D880E036C0809186
:102690000E01B1D88983092F60912305709124051B
:1026A000809125050E94950AF62EE72ED82E3981B5
:1026B000232F30E03E832D839D81091709F020F4FC
:1026C00081E00231D0F0E1CFED81FE81E55AFE4F8D
:1026D00085AD90910F018923811531F02D2D4E2D5F
:1026E0006F2D8D819E8183D88D819E8101969E83E1
:1026F0008D83E2CF81E69BE055DB90910E019F5FD9
:1027000090930E0181110CC082E080931F01809193
:102710001001811105C0111103C083E080931F01D6
:102720002896E2E10C94D92D8CE89BE0E5CF8EE869
:102730009BE0E2CF87E99BE0DFCF80910E015BD881
:10274000382EC92E80911001811559F040E060E0CB
:1027500080E04FD8E9E0F5E089E1DF011D928A953C
:10276000E9F780910E01811119C0E091C204F09146
:10277000C304FE83ED833EDF2D813E81821B930BDC
:1027800021E08931910508F420E02093C1044997A4
:1027900028F030DF9093C3048093C204812C912CE5
:1027A000412C4AEA242E540135E0532EF501E55A16
:1027B000FE4F30813983331508F43FC03C1508F0D3
:1027C0003CC0832F90E09E838D83FC01E55AFE4F31
:1027D00085AD90910F018923811571F1D501A75F16
:1027E000BA4F3D010C91202F35E5231B08F420E062
:1027F000D22EF0902405222D200F08F42FEF822FE7
:10280000880F820F609125058E5F0E941C0B622D40
:102810006D197F2D0E94950A472F282F8D819E814B
:102820000E94F70B8091C104811531F021E0021B59
:1028300008F400E0D3010C9343945A94BFEFAB1A11
:10284000BB0A5110B3CFE4E18E16910421F481E06C
:1028500032E1C31637CFF5E08F0E911C24E042160B
:1028600008F4A1CFF4CF80EA9BE0DCDA46CF8DEA12
:102870009BE0FBCF5090CE0421E0352D321B08F4B5
:1028800030E0332E80910E010E94FB0B9B83A82F1A
:10289000B0E0B887AF83CD01880F991FFC01E55ADE
:1028A000FE4F6F01832D90E09C012F5F3F4F3E83D1
:1028B0002D83AF81BB81AB1718F081E0B23102CF1D
:1028C000EF81F885E55AFE4F85AD90910F01892380
:1028D000811501F1309123053983809124058A8384
:1028E000909125059C83AD81BE81A253BB4F3D01D4
:1028F000232C412C2514B8F06C81842D0E941C0BD4
:1029000069817A810E94950A472F282F8F819885A7
:102910000E94F70B8F819885019698878F8392E0AC
:10292000C90ED11CC6CFF30181913F01D601599642
:10293000AC905997A81ABB085A968C908781881A30
:102940009908AA9C9001AB9C300D300D1124889CF5
:10295000C001899C900D900D1124820F931F0E943D
:10296000310B082F6091260521E0620F08F46FEF0C
:10297000F301EE0FFF1FEE5CF440858996890E94FB
:10298000240B7C019401A50169817A81842D0E9428
:10299000BF0B69837A83482E2394ACCF4F925F920A
:1029A0006F927F928F929F92AF92BF92CF92DF925F
:1029B000EF92FF92C090BD04D090BE04E090BF049F
:1029C000F090C0041AD92B013C01530142018C182C
:1029D0009D08AE08BF0811D9282F6093BD047093DD
:1029E000BE048093BF049093C004A0912A05EAE23C
:1029F000F5E08A2F30E04FEFC40ED41EE11CF11C2D
:102A0000C418D508E608F708A3132DC080932A053B
:102A100080910105811137C030912205832F837089
:102A2000811519F0832F8695869530911F013230DC
:102A3000E9F158F5311138C010920E016093C404C9
:102A40007093C5042093C6049093C70489E2EAE218
:102A5000F5E0AEECB4E001900D928A95E1F781E0EB
:102A600080931F0114C0418D528DC416D506E10418
:102A7000F10420F481503F5F3296C6CF480D591DB6
:102A8000528F418FF8CF80E0D0CF3330C9F0FF9024
:102A9000EF90DF90CF90BF90AF909F908F907F90FE
:102AA0006F905F904F900895BADDF1CF8093210130
:102AB000809122058370809320013FDB83E0D0CF9B
:102AC0008091CD04811155DCC090C404D090C50420
:102AD000E090C604F090C70490D86C197D098E0967
:102AE0009F09603171058105910588F210921F01DF
:102AF000CECFA0E1B0E0EFE7F5E10C94BE2D8091E0
:102B0000F904811509F481C08DEB92E09093BC0229
:102B10008093BB028091270190910601911509F4E1
:102B200078C0811509F477C0C2DB1092060165D820
:102B30006B017C018091950290919602A091970281
:102B4000B0919802A7019601281B390B4A0B5B0B29
:102B5000243631054105510508F069C0E090930223
:102B6000F090940247DD8E199F09893C910578F118
:102B700041DD8C019093940280939302E091920244
:102B8000E13009F4CBC0E23009F4E0C0E1111FC02C
:102B900080919002833010F4E1E0E80FE09390021E
:102BA000F0E0EE0FFF1FEB5CFE4F808191810E94F1
:102BB000770C20DD801B910B8132934040F081E047
:102BC0008093920217DD90939402809393028091F8
:102BD000B9029091BA02892B09F0C6C08091F8041D
:102BE000811599F00AD80091FA041091FB04209104
:102BF000FC043091FD04601B710B820B930B6F3F43
:102C00007F4F8F4F9F4708F4DEDB6096E1E10C9425
:102C1000DA2D81118CCF4BDB8FE19EE40197F1F728
:102C200000C00000D0DB81E080930601D0CFC092CD
:102C30009502D0929602E0929702F09298028DEB64
:102C400092E09093BC028093BB0287E69BE098DC05
:102C5000C0902201D0902301E0902401F090250142
:102C6000C701B6010E9499324B015C01072E000C8E
:102C7000880B990B0E94CC322B013C01A3019201DD
:102C8000C701B6010E94C83120E030E040E251E4C3
:102C900069877A878B879C8769857A858B859C85F0
:102CA0000E9480336D877E878F87988B6D857E85A8
:102CB0008F8598890E9499327F936F939F928F920C
:102CC0008BE291E09F938F931F9288E08F93AE01E8
:102CD0004F5F5F4F7A015F934F930E94942ED7010D
:102CE0000D900020E9F7FD0131976F010FB6F894C0
:102CF000DEBF0FBECDBFEC14FD0440F08091910506
:102D0000811549F082E69BE03BDC28CFD7018D910D
:102D10007D018CDBF0CF8CE59BE0F6CFE09191025A
:102D2000EF5FE170E0939102F0E0EE0FFF1FE35CD4
:102D3000FE4F808191810E94770C5CDC801B910B9F
:102D40008139914008F443CF82E03ACF86EC9AE093
:102D50000E94770C4FDC801B910B8139914008F465
:102D600036CF109292022ECF8091F904811509F48A
:102D700035CF8091F704811131CF36DB2091B90234
:102D80003091BA022115310509F428CF10E041E055
:102D900050E0812F90E07A01012E02C0EE0CFF1C62
:102DA0000A94E2F7B70162237323672B11F41F5FC4
:102DB000F0CF2091FF0420FF9BC0912F990F990F16
:102DC000990F37E0390F80E023E090930901809359
:102DD0000C0130930A0120930D0124E630E047E016
:102DE00050E067E071E088E70E94CD2C892B09F064
:102DF000F5CE90E2199FA00111248091FF0480FF7D
:102E000083C0E9E9F2E080E2DF011D928A95E9F7EB
:102E1000E5E4F1E0FA87E98701E411E089E4A82E0E
:102E200081E0B82E97E0392E44244394A985BA85D1
:102E30008D91BA87A987F80121918F01240F352F31
:102E4000311D23543D4FE82FF0E0E756FD4F80E061
:102E500090E0632C681A742C082E01C0770C0A9439
:102E6000EAF76901812CD6019D906D019720662DAE
:102E70006819677070E0B92D062E01C0BB0F0A9467
:102E8000EAF75B2E7195619571096770772701C02C
:102E900096946A95EAF759286081562A508283945D
:102EA00068E08612E0CF019631968830910589F668
:102EB00089859A85A816B90609F0B8CF04E610E00E
:102EC00020E230E049E952E060E488E70E945D2DAD
:102ED000892B09F083CEE094F0948091B90290910F
:102EE000BA028E219F219093BA028093B90276CEC6
:102EF0009695879596958795282F912F9295990F5E
:102F000090763FE1390F61CF43545D4F04E610E006
:102F100020E230E0D9CF6EDB20918D0530918E0517
:102F2000232B211521F08093690590936A05209148
:102F30008F0530919005232B211521F08093670593
:102F400090936805E0916E05F0916F05309759F008
:102F50000680F781E02D309731F082E080938B0579
:102F60008BE895E009950895611509F449C0E3E3FC
:102F7000E80FE33150F4F0E0E151FC4C0C94132ED7
:102F80000E942E0D819580938E05C5CF0E942E0D37
:102F9000FACF0E942E0D819580938D05F6CF0E9469
:102FA0002E0DFACF0E944E0D80938F05EECF0E941A
:102FB0004E0D8195F9CF0E944E0D8195809390051D
:102FC000E4CF0E944E0DFACF815D990B21E030E0F5
:102FD00001C0220F8A95EAF780918C05822B80939D
:102FE0008C05D3CF80918A05816080938A05CDCFEF
:102FF00080918A058260F9CF80918A058460F5CF3F
:1030000040918D058D3C59F480918E0587FF0DC050
:1030100010928E05411559F41092890508C08E3C16
:1030200081F480918E0518169CF3411581F08091F2
:103030008F0590919005892B8111A7CF109288055B
:10304000A4CF8F3C41F447FFF0CF10928D058091C3
:103050008E058115E0CF803D19F41416B4F3E5CF49
:1030600090918F05893D29F41916FCF610928F0571
:10307000DCCF8A3D19F497FFD8CFF8CF9091900517
:103080008B3D29F497FFD1CF10929005CECF8C3D88
:1030900019F41916CCF3C9CF9FE2980F983090F429
:1030A000815D990B21E030E0B90102C0660F771F06
:1030B0008A95E2F7CB01809590918C0589238093C6
:1030C0008C05B3CF8D3D31F480918A058E7F80933E
:1030D0008A05ABCF8E3D21F480918A058D7FF7CF95
:1030E0008F3D09F0A2CF80918A058B7FF0CFCF93DF
:1030F000C82F8115A9F08CEF8C0F813A98F4EAE281
:10310000F2E080E392E02191C21709F43DC08E17EE
:103110009F07C9F76C2F88E292E00E94D20DDCD89D
:10312000CF91089580E28C0F883068F4C77021E059
:1031300030E001C0220FCA95EAF780919805822BF2
:1031400080939805ECCF8BE58C0F833038F42C2FCF
:103150002452330BC9010E94820DE2CFE8E5EC0F47
:10316000EB3150F4F0E0EE0FFF1FE051FE4F808195
:1031700091810E94AA0DD4CF83E38C0F833180F616
:1031800061E08C2FF1DECCCF6C2F88E292E00E94C0
:10319000EC0DA2D8BFCF811571F19CEF980F913A39
:1031A00030F4682F88E292E00E94EC0D95C890E21E
:1031B000980F983050F4877091E001C0990F8A956C
:1031C000EAF7892F0E94E807F1CF9BE5980F93302B
:1031D00020F480E090E00C94820D98E5980F9B31EC
:1031E00020F480E090E00C94AA0D93E3980F9331C3
:1031F00010F460E0B9CE089580918100887F8093BB
:10320000810010928500109284001092E6051092C1
:10321000E5058091E405811521F08CE2BCDF109278
:10322000E40508950F931F93CF93C82F8B015FDFA1
:103230000115110531F48C2FAEDFCF911F910F9145
:1032400008958FE99FE00197F1F700C00000015059
:103250001109EECFCF9310929805C6E0EAE2F2E0B2
:10326000DF018C2F1D928A95E9F780E090E00E94A3
:10327000820D80E090E00E94AA0D1092A2052CD849
:10328000EBE8F5E0DF011D92CA95E9F71092890598
:103290001092880510928A053EDECF910895DADFFC
:1032A0002FEF84E39CE0215080409040E1F700C084
:1032B000000088E19CE00FB6F894A8958093600028
:1032C0000FBE90936000FFCFAAE2B0E0EAE6F9E11A
:1032D0000C94CC2D82E492E0FC0101962091F10047
:1032E000208322E08A349207B9F780914302893023
:1032F00009F459C0C8F4823009F4B5C0833009F428
:1033000084C0813089F18091E80083FFE9C0809119
:103310004202909143029A3008F0E2C0E92FF0E0B7
:10332000EE5FFB4C0C94132E8A3009F48BC08B306B
:1033300051F780914202813231F78091460290919B
:103340004702892B01F78091E800877F8093E8008E
:103350000E94630E81E090914402911101C080E0CF
:103360008093130177DFCFCF80914202813A59F6E3
:103370008091E800877F8093E800809146029091D9
:103380004702892B61F060E080E090E070E00E94ED
:103390000A0E8091E8008B778093E800B4CF68E054
:1033A0008AE492E0F3CF80914202813209F0ABCF00
:1033B0008091460290914702029708F0A4CF809135
:1033C000E800877F8093E8008091E80082FF18C0C2
:1033D0009091F3008091F200029731F48091F10016
:1033E000813011F0863021F48091F1008093120138
:1033F0008091E8008B778093E8000E94630E83CF72
:10340000809103058111E0CF7ECF80914202813A05
:1034100009F079CF8091460290914702892B09F0FB
:1034200072CF8091E800877F8093E8008091E80068
:1034300080FFFCCF809113018093F1008091E80020
:103440008E77D9CF80914202813209F05CCF809192
:10345000E800877F8093E8000E94630E8091450218
:103460008093110150CF80914202813A09F04BCFF5
:103470008091E800877F8093E8008091E80080FFDA
:10348000FCCF80911101D8CF803889F0823841F586
:10349000809146028F70873018F58093E900809103
:1034A000EB0085FB882780F91092E90006C0809127
:1034B0000205880F90913F02892B9091E800977F39
:1034C0009093E8008093F1001092F1008091E80061
:1034D0008E7723C0811116C080914402813011F192
:1034E0008091E80083FF0AC08091E800877F809385
:1034F000E8008091EB0080628093EB00AA96E3E005
:103500000C94E82D823061F780914402811589F096
:103510001092E9008091E800877F8093E8000E9484
:10352000630EDECF81E0933009F080E080930205E6
:10353000EFCF809146028F702FEF280F263080F654
:103540008093E9002091EB0020FFE2CF933031F42B
:103550008091EB0080628093EB00DACF9091EB00DA
:1035600090619093EB0021E030E0A90102C0440F8C
:10357000551F8A95E2F74093EA001092EA00809185
:10358000EB008860E8CF8111ABCF109144021F7728
:103590008091E3008078812B8093E3008091E800A4
:1035A000877F8093E8000E94630E8091E80080FF8F
:1035B000FCCF8091E30080688093E30083E01111E9
:1035C00001C082E0809303058BCF8058823008F0E1
:1035D00087CF20914402309145022C3D53E03507BE
:1035E00099F583E08A838AE289834FB7F894DE01F4
:1035F000139620E03EE051E2E32FF0E050935700B5
:10360000849120FF03C082958F703F5F8F708A3056
:10361000C8F0895C90E08D939D932F5F243161F712
:103620004FBF8091E800877F8093E8006AE270E0F6
:10363000CE0101960E940A0E8091E8008B7780935C
:10364000E8004ECF805DE6CF832F99278330910528
:1036500029F160F48130910509F476C0029709F0F0
:103660003FCF8BE390E0E5E4FAE02DC020914602E5
:10367000309147028132910509F45AC0829709F0CE
:103680002FCF2115310509F469C02130310509F02A
:1036900027CF8BE790E0E6E8F9E015C0C90199274C
:1036A0002130B1F18230910509F43AC0892B09F03B
:1036B00017CFE2ECFAE0E4918E2F90E0E2ECFAE032
:1036C000009709F40DCF2091E800277F2093E800B0
:1036D00020914802309149028217930708F49C0117
:1036E00040E02115310509F03EC041113CC08091F8
:1036F000E80082FDA1CF80910305811509F49CCFDC
:10370000853009F499CF8091E80083FFF0CF94CF02
:10371000EEE9FAE0E4918E2F90E0EEE9FAE0D0CF06
:10372000E2E9FAE0E4918E2F90E0E2E9FAE0C8CF16
:103730002115310571F02130310509F0D1CE89E034
:1037400090E0E0E7FAE0BFCF82E190E0E0E8FAE065
:10375000BACF89E090E0E7E5FAE0B5CF84E490E005
:10376000E1E0FAE0B0CF80910305811509F464CF60
:10377000853009F461CF8091E80083FD5DCF8091B1
:10378000E80082FDB4CF8091E80080FFAACF90913D
:10379000F3008091F2002115310519F08830910570
:1037A00050F041E0089709F040E08091E8008E7702
:1037B0008093E80096CF44914093F10031962150D8
:1037C00031090196E8CF803809F08ACE8091E8006F
:1037D000877F8093E800809140028093F10076CE4D
:1037E00081117ECE10914402123008F079CE809182
:1037F000E800877F8093E800109340020E94630EE8
:103800001115A9F084E08093030542E061EC81E0AA
:103810000E94F40F42E261EC82E00E94F40F80917A
:103820000305843051F482E08093140159CE8091D5
:10383000E30087FDE7CF81E0E6CF81E0F5CFEF92AF
:10384000FF920F931F93CF93DF93C62FD42F122F86
:103850008115A9F0609396050E94FA1290933802A0
:1038600080933702C77081E001C0880FCA95EAF7DC
:103870000E94AA11CDB7DEB7E6E00C94E52D809149
:103880009605681333C0E0903702F09038020E942A
:10389000FA128E199F09883C910540F500E20D0F40
:1038A000CD17A9F0C770FF24F3948F2D01C0880FA6
:1038B000CA95EAF70E94B311083048F48D2F87703B
:1038C00001C0FF0C8A95EAF78F2D0E94AA1160E0D3
:1038D00070E0812FA7DC083068F6D77081E001C066
:1038E000880FDA95EAF70E94B311C4CFC77081E060
:1038F00001C0880FCA95EAF7F6CFA6E0B0E0E3E88A
:10390000FCE10C94BE2D8C01FC018481811509F42D
:1039100051C061E0C8010E94270A8D839E833090C8
:103920002701F8018581811509F4EAC00E94FD0D87
:1039300060939205709393058093940590939505F9
:1039400031100AC081E08093270180912601811106
:103950000E94110C0E94F411809127012D813E815B
:1039600022343E4759F591E0892780932701811140
:1039700011C00E94240C40DC109291051092E405C5
:103980000E9457118FE19EE40197F1F700C00000FB
:103990000E94E31180919F058770811559F0F8010D
:1039A0008581811539F08091A10582FF03C082E0F5
:1039B0000E94D1072696E1E10C94DA2D811551F38E
:1039C000ED81FE81E0342EE7F20709F44DC0E134C9
:1039D0003EE7F30709F488C0BC9709F094C00CDCFB
:1039E0002091220130912301409124015091250121
:1039F00060EC71EE84E69CE40E94313220E030E01D
:103A000040E850E42B013C01C301B2010E94803325
:103A10004B015C01C501B4010E949E320E949906CF
:103A20000E942207F8019581911509F475C410923E
:103A300096052D813E8130572332310508F07DC433
:103A400084E090E00E9439319093A1058093A00515
:103A5000ED81FE81E150F047E232F10508F07DC0D2
:103A6000E45FFB4C0C94132E8091910591E0892723
:103A700080939105811559F18091E60581118ACFD6
:103A80002091220130912301409124015091250180
:103A900060EC71EE84E69CE40E94313220E030E07C
:103AA00040E850E46B017C01C701B6010E948033FD
:103AB00069837A838B839C8369817A818B819C81E2
:103AC0000E949E320E9499060E94220763CF1092A4
:103AD000E5058091E405811509F45CCF8CE25BDBA0
:103AE0001092E40589DB56CF8091260191E0892769
:103AF00080932601811509F41DC10E94110C4ACF43
:103B0000311409F447CFF8018581ED81FE81E85138
:103B1000FC47E730F10508F085CFE25DFB4C0C94E3
:103B2000132E26E241EE61EE8ADE34CF27E245EE27
:103B300065EEFACF26E241EE60EEF6CF27E245EEE3
:103B400064EEF2CF26E241EE62EEEECF27E245EEE2
:103B500066EEEACF28E241E0EBCF8091A0058160DC
:103B60008093A0056091A0057091A10584E090E08C
:103B70000E9467316FDB0ECF8091A1058860809332
:103B8000A105F0CF8091A0058260EACF8091A005C9
:103B90008460E6CF8091A0058860E2CF8091A10586
:103BA0008160EDCF8091A1058260E9CF8091A00571
:103BB0008061D6CF8091A0058062D2CF8091A00590
:103BC0008064CECF47DB8091A0058068C9CF80910B
:103BD000A0058C60C5CF8091A1058360D0CF809176
:103BE000A0058E7FBDCF8091A105877FC8CF809132
:103BF000A0058D7FB5CF8091A0058B7FB1CF80913F
:103C0000A005877FADCF8091A1058E7FB8CF809131
:103C1000A1058D7FB4CF8091A0058F7EA1CF80912B
:103C2000A0058F7D9DCF8091A0058F7B99CF12DB62
:103C30008091A0058F7794CF8091A005837F90CF4E
:103C40008091A1058C7F9BCF8091A005992782FF51
:103C5000939590FB82F990FB83F982CF8091A10527
:103C6000982F909590FB80F990FB81F988CF9091E7
:103C7000A005892F8F7B96FF806472CFEBDA90913D
:103C8000A005892F97FB87F980586ACF61E08EE005
:103C900090E00E944D3166CF60E0F9CF9091A00591
:103CA000892F8F7E94FF80615BCF9091A005892F33
:103CB0008E7F90FF816054CF9091A105892F877FDF
:103CC00093FF88605CCF8272ED81FE81E052F847FD
:103CD000EB30F10508F04AC0EB5CFB4C0C94132E62
:103CE000809198058272ED81FE81E054F847ED30B5
:103CF000F105E0F5E05CFB4C0C94132E0E94030CE4
:103D000049CE8115E1F00E949C0F44CE8115E1F06F
:103D10000E94C00F3FCE8115E1F00E94D30F3ACE32
:103D20008115E1F00E94E90F35CE8115E1F00E9486
:103D3000430C30CE0E94240C2DCE811521F30E941D
:103D4000930F28CE811521F30E94B80F23CE811541
:103D500021F30E94C80F1ECE811521F30E94DE0FB1
:103D600019CE811521F30E94350C14CE2D813E8190
:103D7000205E324520323105C0F491112FC0FD8103
:103D8000FF7181E090E09C0102C0220F331FFA9581
:103D9000E2F73A832983698183E090E00E944D3104
:103DA00089819A810E943707F5CD9115B9F08D81EF
:103DB0009E818A35ECE79E0709F486C008F05EC054
:103DC00081302CE7920709F47EC083303CE79307EB
:103DD00009F473C081159C4709F463C0F80185811B
:103DE000E080F180811509F473C0C7010E94F509D4
:103DF0008983682FC7010E945F07B70189810E94EC
:103E0000F0070E94F9088D839983F801D580C68058
:103E1000C2942FE0C22280919F058770811509F11D
:103E2000ED2CD114F9F0892F807F803469F08D81D9
:103E3000805E8830B0F0892F807E803229F4FD8149
:103E4000F23078F0C11469F08091A10582FF09C0B9
:103E500082E00E94D10780919F058770EE24E39451
:103E60008111E12CE981E295EF702981203C08F075
:103E70009CC0F0E0E35BFB4C0C94132E8D819E8183
:103E80008B35ECE79E0711F18C359C4709F0A6CFE6
:103E90008091A105002482FF0394802D0E9440118F
:103EA0009DCFD8D92FEF34E34CE021503040404033
:103EB000E1F700C000000E94C3106FEF7FEF80E0C9
:103EC00090E00E946731EBD981E0E8CF80E0E6CF57
:103ED000C7010E949407898390CF39813F70F32EE8
:103EE0004981403118F0F29490EFF922D114C1F0D9
:103EF000F11471F08D81805E883018F06D81611150
:103F000009C0809198058F29809398050E946C11B3
:103F10008D8145C08091A2058F298093A205F6CF9F
:103F20008D8139D9F11409F440C08D81805E8830CB
:103F300018F08D81811104C08F2D0E94E80706C002
:103F4000F0948091A2058F218093A2050E946C11AC
:103F50002CC099819F70F92EE981E07FE03219F041
:103F6000F29480EFF822FD81F11549F0F13009F467
:103F700065C0D11409F471C0C11499F1C9CF809101
:103F8000A10582FD2AC0D11461F0F11439F08091AD
:103F900098058F29809398050E946C1180E0A7D81E
:103FA00004C080E0F8D8F110C7CFE11409F4C3C011
:103FB00080919F0580FDBFC0F8011582869586958A
:103FC00086950E944107C80198DC80919F058695DF
:103FD000869586950E944F07AEC0D11499F0C11006
:103FE00004C08F2D0E94AA11E0CF21E0C212DDCFC4
:103FF000809199059F2D9823F916B9F28F29809306
:104000009905D3CFC110D1CF8F2D0E94B3119091BC
:1040100099058F2D8923811529F08F2D809589236E
:104020008093990580919A059F2D9823911509F405
:10403000BCCFF094F822F0929A05B7CFD11429F0B2
:1040400036E0C31608F0B1CFCCCF45E0C41608F077
:10405000ACCF8F2D0E94B311A8CFC114D1F36D81C5
:10406000693349F48FEF97EEE3E081509040E040F0
:10407000E1F700C000008D818ED897CF89818695A9
:1040800086958370811569F0813009F08ECF8D811E
:1040900099819370D11002C080E090E00E94AA0D37
:1040A00084CF8D8199819370D11002C080E090E01F
:1040B0000E94820D7ACF6D2D8D810E94B41775CF2D
:1040C0008981837081114AC0D11033C04D814295DE
:1040D00046954770440F440F2D812F7030E0042E19
:1040E00002C0220F331F0A94E2F7FD8180E090E0C6
:1040F000F4FF09C08FE090E002C0880F991F4A9535
:10410000E2F780959095498146954695437049839D
:104110004230D9F04330B1F040919B0550919C055D
:104120006981613069F0822B932B842395230E944F
:1041300037070E94730D60E0C8010E94270A3ACC3D
:10414000242B352B822B932BF2CF822B932B209178
:104150009B0530919C0582279327E9CFD11499F1D3
:10416000898180FFE6CF4D81429546954770440F87
:10417000440F2D812F7030E0042E02C0220F331F18
:104180000A94E2F79D8194FF22C08FE090E002C084
:10419000880F991F4A95E2F780959095E981E695F9
:1041A000E695E370E230D9F0E330B1F040919D053F
:1041B00050919E05E13071F0822B932B842395233F
:1041C0000E943C07B6CF823008F4B3CFCCCF80E05A
:1041D00090E0E4CF242B352B822B932BF1CF822B35
:1041E000932B20919D0530919E0582279327E8CF40
:1041F000F981FF70F983D11439F08F2F0E944107A4
:104200008D810E94AA1195CF8D810E94B311898161
:104210000E944F078ECF2D81223FB9F170F4203FCD
:10422000D1F0213F99F0D11409F461C0C11409F40F
:104230005BC08D810E9477187CCF3D81333F61F157
:10424000343F89F79091A10592FD35C089818F7126
:10425000D114F1F21EC0D114A9F045E0C41608F043
:1042600068CF69816F7181E090E0FC0102C0EE0FC0
:10427000FF1F6A95E2F780919D0590919E058E271C
:104280009F279ECFF6E0CF16EACF89818F71D1109C
:10429000BFCF0E9441074DCF80E090E0D11409F4D8
:1042A0008FCF29812F7181E090E002C0880F991F84
:1042B0002A95E2F785CFD11461F089818F7192FF41
:1042C000E8CF982F990F990F990F936090939F05BE
:1042D000E0CF81E00E94D10732E0C31608F429CF75
:1042E00082E00E94D10725CF89818F71D2CFC1147E
:1042F00081F04D81493349F46FEF87EE93E06150CF
:1043000080409040E1F700C000008D810E94CB18F2
:1043100010CF89818F717CCF2D813E8126313C4722
:1043200009F0DECC8091970565E3811101C069E257
:1043300088E292E00E94EC0D17C080919805ED8113
:10434000FE81E631FC4709F0BECC8A7A91E081110A
:1043500001C090E09093970565E3811101C069E287
:1043600088E292E00E94D20D0E946C1113CB8091E2
:10437000E305803178F48091E205811559F0E091F0
:10438000A4052091A3053091DE054091DD0557E09D
:104390002E1301C008956E2F70E05E9FF00111246E
:1043A000DF01AB55BA4F14968C911497811551F1DA
:1043B00011968C911197831325C08C91841322C080
:1043C00015968C91159781111DC012968D919C9117
:1043D000A091DF05B091E0058A1B9B0B883C9105FD
:1043E00088F48091E3058F7080618093E305E55543
:1043F000FA4F80818F70806180838DED95E07DDA4A
:104400000C94C707FB013196E770C2CFADE0B0E076
:10441000ECE0F2E20C94C22D8C0186E0F801DE01A2
:10442000189601900D928A95E1F7F801F580C48005
:104430008DED882E85E0982E7090E10571101FC0DB
:10444000C114D1F0F11409F415C1C8010E944F0A3A
:10445000811509F40FC187E0F801D40101900D9294
:104460008A95E1F7F1E0CF1206C08091DD059091C9
:10447000DE050E94430A7BDFFF24F39453C0E080F3
:10448000A280B380D090E2058091DF059091E00595
:104490009501281B390BD11409F4B5C0283C31050E
:1044A00008F08DC0C11441F39091DE05C180809168
:1044B000E305803108F056C0C91213C09091DD05A4
:1044C0009E110FC0F11048C08F7080618093E3058A
:1044D0008DED95E012DA8091E305F8018683F12CE9
:1044E00021C0F11039C040E06C2D8E2D0E947E104D
:1044F00040E06C2D8E2D0E947E10F82E8111EFCFA2
:10450000888599850E94430A292F22952F7090341F
:1045100070F49F70223098F09115A9F0F8019681FF
:10452000903188F48F2D2D96EDE00C94DE2D2A5FCE
:104530002F70223060F0C801E0D9FD2CF3CF911527
:1045400011F0811579F3805E883060F3F4CF803FFD
:1045500048F3815F8330F9CF8091E30581608093D8
:10456000E305BDCFC91207C09091DD059E1103C0C0
:10457000F11409F469C0C8010E944F0A811509F4B9
:1045800079C0F11409F476C08091E305803270F0AF
:104590002091DD053091DE053A832983BC82AB8210
:1045A0007D821E828F83CE010196A7D987E0F80114
:1045B000ADEDB5E001900D928A95E1F75CCF809169
:1045C000E305803148F48DED95E097D987E0F4015B
:1045D00011928A95E9F783CFC11409F44DCF209148
:1045E000DE0591812913C7CF9091DD059E11C3CFC0
:1045F000F110C1CF8683C80180D987E0F401119200
:104600008A95E9F739CF283C310500F7C11409F440
:1046100033CFF11479F19091DE058181981320C098
:104620008091DD058E111CC08091E30580FD0FC0D7
:10463000803168F08683807F803F39F08681982FB3
:10464000907F905F8F70892B8683C80156D987E051
:10465000F801ADEDB5E001900D928A95E1F70CCF30
:10466000C8010E944F0A8111A1CF8091E3058160AA
:104670008093E305C80141D9FFCEABE1B0E0E3E4AC
:10468000F3E20C94CB2D4E8B5F8B688F798F8A8FE2
:10469000192F9B8F91111092A2051D8A86E0FE01B1
:1046A0007696DE011F9601900D928A95E1F70A8DAC
:1046B000011561F00B8B1C8B61E0CE010F960E94FF
:1046C000270A61E0CE010F960E94270A0B8B1C8BF4
:1046D00087E0FE013F96DE01189601900D928A95C3
:1046E000E1F7CE01089692DE811128C02091A30542
:1046F0003091A40587E0FE013896DE011196019005
:104700000D928A95E1F78C858115C1F0822F90E09A
:1047100001968770992738171906D9F097E0929F6C
:10472000D0011124AB55BA4FFE01319601900D9284
:104730009A95E1F78093A3050E94C70717E080913F
:10474000A4059091A305891312C06B96E4E00C9424
:10475000E72D0E942A191092A3051092A40587E064
:10476000EDEDF5E0DF011D928A95E9F7E7CF189F9F
:10477000C00111248B559A4F49DE811531F3809188
:10478000A40590E00196877099278093A405D7CF60
:10479000A6E0B0E0EEECF3E20C94CB2D0E94FA120E
:1047A0008C0180916C0590916D058017910771F0D7
:1047B00019821A820E94FA12BC0149815A8180E052
:1047C00090E05BDF10936D0500936C052696E4E0A6
:1047D0000C94E72DA5E0B0E0E0EFF3E20C94C02DDF
:1047E000FE01319685E0DF011D928A95E9F781E5AA
:1047F000C82E81E0D82E8F013F0188248394912C0C
:10480000F60181916F018F3F09F43FC0F894E82FC2
:10481000E295EF70F0E021A18F70A40102C0440F77
:10482000551F8A95E2F7CA01922F982B91A392A166
:104830008095892382A3789400C0E6E5F1E031E019
:10484000512C21912F3F79F0A22FA295AF70A05E3D
:10485000B0E08C9190E02F7002C0959587952A95D5
:10486000E2F780FF64C080E0582A330F51E0EB3557
:10487000F50739F7F60182918F3F11F00E947C0A0B
:1048800080EA8A95F1F7D8015C920F5F1F4FB6E579
:10489000CB16B1E0DB0609F0B3CF45E050E0B30141
:1048A00088EC94E00E94772E892B09F442C085E0C1
:1048B000F301A8ECB4E001900D928A95E1F781E054
:1048C000809336020E94FA1290933502809334024C
:1048D00080912701811539F10E94FD0D009192050B
:1048E000109193052091940530919505601B710BF3
:1048F000820B930B61387F4482419105F0F1109255
:1049000027010E94240C0E94FC181092910510921D
:10491000E4050E9457118FE19EE40197F1F700C072
:1049200000000E94E3112596EFE00C94DC2D832F0C
:104930009BCF80913602811559F20091340210917B
:1049400035020E94FA12801B910B059708F245E090
:1049500050E068EC74E084E095E00E94772E892BAB
:1049600049F085E0E8ECF4E0A4E0B5E001900D92B8
:104970008A95E1F710923602ABCF1FB7F894809179
:104980009105811569F18091E505811549F18091C5
:10499000E405811123C08CE20E94771881E08093A6
:1049A000E4058091E7059091E805A091E905B091B3
:1049B000EA050196A11DB11D8093E7059093E805D6
:1049C000A093E905B093EA050E94FD0D60933002C3
:1049D0007093310280933202909333021092E50576
:1049E0001FBF8091E405811509F49DCF0E94FD0D44
:1049F0000091300210913102209132023091330245
:104A0000601B710B820B930B209104013091050107
:104A1000621773078105910508F485CF8CE20E9427
:104A2000CB181092E4050E94FD0D5B01CB010E94A2
:104A3000632E609122017091230180912401909155
:104A400025010E949E327B010E94602EFC01C7015D
:104A500064E170E00E94A92D26E430E0261B370BAC
:104A6000CF0165E170E00E94A92D820F931F8A306B
:104A7000910528F0909305018093040154CF8AE0BA
:104A800090E0F8CFCDB7DEB7E6970FB6F894DEBF6B
:104A90000FBECDBF85B7806885BF85B7806885BFED
:104AA00084B7877F84BF0FB6F894A8958091600083
:104AB000886180936000109260000FBE80E890E0F3
:104AC0000FB6F89480936100909361000FBE81E06F
:104AD000809314018AE79AE090932702809326023C
:104AE0000E94B30E0E9424108091E20084608093A3
:104AF000E200789480910305811599F08091E90096
:104B00001091EC008F70179511271795182B1092A4
:104B1000E9008091E80083FD0E9464191F701093E2
:104B2000E90082E084BD93E095BD9AEF97BD809344
:104B30006E00EEE5F5E098E0DF011D929A95E9F749
:104B400080935D0560E080E00E94BB0C61E080E046
:104B50000E94BB0C60E081E00E94BB0C61E081E040
:104B60000E94BB0CEFE8F1E03197F1F700C00000C4
:104B700010E080915D05181708F485C001E511E08B
:104B8000D8018D918D018F3F11F00E947C0AB1E018
:104B900006351B07A9F706E511E09BE5E92E91E034
:104BA000F92EF80181918F018F3F11F00E947C0A4C
:104BB000E016F106B1F785E0E4E0F5E0DF01282F2B
:104BC0001D922A95E9F7E8ECF4E0DF011D928A9541
:104BD000E9F780E090E00E943931833E9E4F71F109
:104BE00063EE7EEF80E090E00E94673160E082E05B
:104BF00090E00E944D3181E090E090939C0580937D
:104C00009B0561E083E090E00E944D3160E074E13B
:104C100084E090E00E9467310E94C41140E050E0BF
:104C2000BA018FE090E00E945F3140E050E0BA01AD
:104C300083E190E00E945F310E94B91182E090E030
:104C40000E9431318093530584E090E00E94393115
:104C50009093A1058093A005BDDDEFEFF6E721E07D
:104C6000E150F0402040E1F700C00000B3DD80914A
:104C7000040580FF1AC06FEF7FEF80E090E00E9494
:104C800067310E94C31060E0812F0E94DE0C082F64
:104C900061E0812F0E94DE0CE12FF0E0E55AFA4F2F
:104CA000880F802B80831F5F64CF83E090E00E9499
:104CB000313190E00E9437070E94FB0C1092CE0425
:104CC00040E150E06FEF70E087EE94E00E948D2E9F
:104CD00010922A0540E150E06FEF70E083E495E028
:104CE0000E948D2E81E08093CD0448E050E067E182
:104CF00070E082E295E00E9421311092CD04809113
:104D00002205843010F40E94C4111092FF0480E840
:104D10008093FE040CD66BE070E083E89CE00E9478
:104D2000D611811569F18091FF0465E070E081FD85
:104D30006DC18EE79CE00E94D611811509F16DE0EE
:104D400070E08CE69CE00E94D6118115C9F00E94AB
:104D5000FD0DDC01CB01805A9541AF4FBF4F8093D1
:104D6000FA049093FB04A093FC04B093FD040E940A
:104D7000571181E08093F9048093F8041092F704AE
:104D800081E080932701109291051092E605109220
:104D9000E4051092E7051092E8051092E9051092DB
:104DA000EA051092E5050E94FD0D6093920570934F
:104DB0009305809394059093950580912601811128
:104DC0000E94110C0E94F41185E191E090936F050F
:104DD00080936E05CE01019688AB99AB8091030557
:104DE000853089F410E403E0B0E1FB2E82E1E82E87
:104DF00080910305853009F40CC10E942A190E9494
:104E0000730D10920105E6DC84E595E09CA78BA765
:104E1000A4E0B5E0BFA7AEA7FC0191918D9125E07C
:104E2000E935F20709F440C19817B9F3412C512C28
:104E3000F12CAEA5BFA57D90BFA7AEA7EBA5FCA5A5
:104E40008191FCA7EBA7871509F4D4C087258AAB0D
:104E50006201E12C662463948AA98621811509F4F4
:104E6000BEC0872C8620E982FA820E94FA129C83B7
:104E70008B83F1E0FD8391E0811001C090E09E837F
:104E800049815A816B817C818D81F7DB811439F0F6
:104E9000F601E55AFE4F80818F3F09F01BC1912C2E
:104EA000092D10E080912A05890D9927991F0997EE
:104EB0004CF1E8E0AE2EB12CA01AB10AB801655D44
:104EC0007A4FA5018BE295E01FD7B8016D5C7A4F50
:104ED000A50183E395E018D7A501440F551FB8013C
:104EE000660F771F6D5B7A4F83E495E00DD7B801AD
:104EF000655C7A4FA5018BE395E006D788E08919B8
:104F000080932A05911429F140912A052DA5822F1D
:104F100090E0242F30E0F901E65DFA4FDC01AA0FA2
:104F2000BB1FA55ABE4F59965C915183880F991F9C
:104F3000DC01AB58BE4F8C9181875DA5518BF90187
:104F4000EE0FFF1FE65DFA4F128E118E4F5F4093FA
:104F50002A05811409F443C0809122058C7F883191
:104F600009F03DC0F601E55AFE4F80818F3FB9F14F
:104F7000A12CB12C212C90E09C01220F331FD901D0
:104F8000AC58BE4FBCABABABF901EB58FE4FFEAB20
:104F9000EDAB9601275F3A4F49018501312CF801AD
:104FA000E55AFE4F80818F3F61F0F21097C0E31009
:104FB00095C0D4012C9130E2230F08F42FEFF401B7
:104FC000208333940F5F1F4FF5E03F12E8CF239407
:104FD00025E0A20EB11C39E1A316B104F1F6E39469
:104FE000660C4FEFC41AD40A55E0E51235CFEBA595
:104FF000FCA57292F39485E0480E511C95E0F912DD
:1050000018CF0E94FD0DDD24D39452C089E79CE0A7
:1050100092CE80910305843009F43BC00E94CE14E7
:105020008091010581110DC00E940F131092210182
:10503000809122058370809320010E949D1000932F
:105040001F0131E0309301050E94E3111092000529
:1050500048E150E00FB6F894A895409360000FBE69
:105060001093600083B7817F846083BF83B78160C2
:1050700083BF7894889583B78E7F83BF0FB6F894EB
:10508000A895809160008861809360001092600014
:105090000FBEA0DBE4E0F5E08191811182C255E012
:1050A000E930F507C9F7A4CE9813C0CE71DBD12C37
:1050B0000E94CE1480916605811551F080916005A3
:1050C000109266058093610580915E0580935F056F
:1050D00000E088C08DA799249394E2CE90E0ABA91C
:1050E000BCA94C91FC01EE0FFF1FE55AFE4F218D2C
:1050F000421B550BEDA9FEA92081880F991FFC01C9
:10510000EB58FE4F8081281B330B449FB001459F15
:10511000700D700D1124229FC001239F900D900DE2
:105120001124860F971F0E94310B382F893208F007
:1051300048CF28E2231B08F420E0F801E75FFA4F8C
:10514000213108F020E13081320F08F43FEF308345
:1051500038CF61E0802F0E94DE0CF82E60E0802FB7
:105160000E94DE0CFF0CF82A202F30E0D901A55A4E
:10517000BA4FEC918E2F8370F81699F1EE0FEE0F67
:10518000EF29EC93EF70F0E0E655FE4F275A3A4FC7
:105190008081D9019C91890F8C9384300CF440C09C
:1051A000412F50E0BA016F5F7F4F63707727E6169B
:1051B000170679F0425A5A4F902F9F77FA0194833D
:1051C0001F5F13701093600590915E059F5F909331
:1051D0005E05082E000C990B64E070E011D5F90112
:1051E00080830F5FE09061051091600580915D05FF
:1051F000081708F4AECF80E030916005E0916105BA
:1052000090915F05C09027013E1709F4D4C021E0BA
:105210002E0F23709F5F81E0C11016C0E22FF4CFE4
:105220008D3FBCF6412F50E0BA016F5F7F4F637036
:105230007727E616170669F2425A5A4F902F906860
:10524000DA0114969C93BCCFF0E0EE59FA4F8081BE
:10525000382F3F7787FB882780F990935F0520934D
:105260006105311531F08111A0C06AE070E08AEA71
:105270009FC0E0902201F090230100912401109141
:105280002501811509F45FC020E030E046E953E4D0
:10529000EF82F88609871A876F81788589859A85D4
:1052A0000E942D3287FF20C020E030E040E05FE325
:1052B000EB86FC860D871E876B857C858D859E859C
:1052C0000E94C9317B018C016F87F88A898B1A8B08
:1052D0002F85388949895A892093220130932301E7
:1052E0004093240150932501EF8EF8A209A31AA33D
:1052F0002F8D38A149A15AA160EC71EE84E69CE49F
:105300000E94313220E030E040E850E46BA37CA3FF
:105310008DA39EA36BA17CA18DA19EA10E94803331
:105320006FA378A789A79AA76FA178A589A59AA541
:105330000E949E320E9499068091E60581110E948A
:1053400022078C2D59CF20E030E040E752E4EB8A71
:10535000FC8A0D8B1E8B6B897C898D899E890E94AE
:105360007C3318160CF0C0CF20E030E040E05FE363
:10537000EF8AF88E098F1A8F6F89788D898D9A8DB3
:105380000E94C8317B018C016B8FFC8E8D8F1E8F2C
:105390008B8D9C8DAD8DBE8D8093220190932301CA
:1053A000A0932401B09325019FCF6AE070E089EAC1
:1053B0000E941219C6CF90935F0530936105811545
:1053C00039F00E94FD0D0E9479150E94F41104C06D
:1053D0000E947915D110F9CF86E0EBE8F5E0A8A995
:1053E000B9A901900D928A95E1F7B0908C05D09003
:1053F0008D0500918E05C0908F051091900510923B
:105400008D0510928E0510928F0510929005802FB9
:105410008D29811509F441C0E0906905F0906A0575
:105420000E94FA129C012E193F099091890591154D
:1054300009F4B2C02531310580F19F3F19F09F5F1B
:1054400090938905D11459F00E942E0D91E01D14FE
:105450000CF09FEF899F802D112480938D050115FD
:1054600059F00E942E0D91E010160CF09FEF899FCD
:10547000802D112480938E0580918D05811569F012
:10548000F0908E05F11449F00E94200D80938D0557
:105490008F2D0E94200D80938E05812F8C298115E0
:1054A00009F441C0E0906705F09068050E94FA1287
:1054B0009C012E193F0990918805911509F467C048
:1054C0002135310580F19F3F19F09F5F909388054A
:1054D000C11459F00E944E0D91E01C140CF09FEF86
:1054E000899F802D112480938F05111559F00E94FA
:1054F0004E0D91E011160CF09FEF899F802D112425
:105500008093900580918F05811569F0F09090054A
:10551000F11449F00E94200D80938F058F2D0E9479
:10552000200D8093900580918C058B1119C080917E
:105530008D05811511F0D81213C020918E0521150B
:1055400011F002130DC090919005911511F01913EF
:1055500007C030918F05311103C0822B892B811137
:105560000E948B1786E0E8A9F9A9ABE8B5E00190A5
:105570000D928A95E1F70E94730D90916B05891742
:1055800009F42CCC80936B050E94FD0D27CC2B30A9
:10559000310508F09ACFC7CF2B30310508F04FCF37
:1055A0007CCF80910205811509F422CCF9BCE9BCBD
:1055B00009B400FEFDCF8091D8008F7D8093D80084
:1055C0008091E00082608093E0008091E00081FDA6
:1055D000FCCF0E942A190CCC78941F921FB61F9200
:1055E00011248F939F93AF93BF9380915202909118
:1055F0005302A0915402B09155020196A11DB11D14
:105600008093520290935302A0935402B093550298
:10561000BF91AF919F918F911F901FBE1F901895C2
:105620001F920F920FB60F9211242F933F934F9317
:105630005F936F937F938F939F93AF93BF93EF93FA
:10564000FF938091E10082FF09C08091E20082FF18
:1056500005C08091E1008B7F8093E1008091DA00AA
:1056600080FF24C08091D80080FF20C08091DA00A4
:105670008E7F8093DA008091D90080FFA9C080E1FD
:1056800089BD82E189BD09B400FEFDCF81E0809330
:10569000030580914102811109C00E94B30E0E944E
:1056A00024108091E20084608093E2008091E10008
:1056B00080FF1AC08091E20080FF16C08091E20056
:1056C0008E7F8093E2008091E20080618093E2000F
:1056D0008091D80080628093D80019BC85E08093C7
:1056E000030583E0809314018091E10084FF2FC0C3
:1056F0008091E20084FF2BC080E189BD82E189BDF9
:1057000009B400FEFDCF8091D8008F7D8093D80032
:105710008091E1008F7E8093E1008091E2008F7E96
:105720008093E2008091E20081608093E2008091AA
:105730004002811509F452C084E0809303058091F2
:105740000305843009F052C082E0809314018091F7
:10575000E10083FF2CC08091E20083FF28C080918C
:10576000E100877F8093E10082E08093030510923F
:1057700040028091E1008E7F8093E1008091E20001
:105780008E7F8093E2008091E20080618093E2004E
:1057900042E060E080E00E94F40F8091F0008860B9
:1057A0008093F00081E08093140180931301FF91B6
:1057B000EF91BF91AF919F918F917F916F915F9189
:1057C0004F913F912F910F900FBE0F901F90189502
:1057D00019BC109203051092410268CF8091E3003A
:1057E00087FF02C083E0A9CF81E0A7CF81E0ADCFE2
:1057F0001F920F920FB60F921124EF92FF920F9308
:105800001F932F933F934F935F936F937F938F9348
:105810009F93AF93BF93CF93EF93FF9309EE10E065
:10582000F8018081C091EC008F70C795CC27C79597
:10583000C82B108280EFE82EF12CF7018081877F42
:10584000808378940E946419F8011082F7018081A6
:1058500088608083CF70F801C083FF91EF91CF9172
:10586000BF91AF919F918F917F916F915F914F9178
:105870003F912F911F910F91FF90EF900F900FBECE
:105880000F901F901895FF920F931F93CF93DF9364
:10589000182FEB011092BC0084EA8093BC000E9498
:1058A000FA12082FF92E8091BC0087FF28C0809142
:1058B000B900887F883029F08091B900887F8031D5
:1058C00099F51093BB0084E88093BC000E94FA1203
:1058D000182F092F8091BC0087FF1EC02091B900AE
:1058E000287F80E090E0283199F081E090E020343A
:1058F00011F480E090E091958195910909C0802F85
:105900009F2D0E940613C817D90768F68EEF9FEFE8
:10591000CDB7DEB7E5E05AC1812F902F0E94061364
:10592000C817D907B8F6F2CF8FEF9FEFF1CF1092DB
:10593000B9008CE08093B80008950F931F93CF9324
:10594000DF93EB018093BB0084E88093BC000E944E
:10595000FA12182F092F8091BC0087FF11C02091E7
:10596000B900287F81E090E0283211F480E090E0D7
:10597000919581959109DF91CF911F910F91089594
:10598000CF3FDC0741F3812F902F0E940613C817E9
:10599000D90708F78EEF9FEFEECFA0E0B0E0E2ED81
:1059A000FCE2F0C0782EB62EA72E6A01E9010E9413
:1059B000FA124C01C431D10510F1CF3FDC0719F1C7
:1059C000CE0164E170E0C5D0F62EE72E6F2D7E2D5E
:1059D000872D59DF8C01892BC9F4EB2CFA2CCE0CC6
:1059E000DF1CEC14FD0419F001151105C9F084E960
:1059F0008093BC00C801CDB7DEB7EDE0DFC0FF2467
:105A0000F394E12CE3CF85E0F82EFBCFCF3FDC070A
:105A1000E9F2C4010E940613C817D907B8F6DDCF12
:105A2000BE01F70181917F0188DF8C01DACFA0E010
:105A3000B0E0ECE1FDE2A6C0782EB62EA72E6A01FA
:105A400089010E94FA124C010431110500F10F3F47
:105A5000100701F1C80164E170E07BD0EB01BE01E9
:105A6000872D11DF7C01892BB9F4CB2DDA2DCC0EDB
:105A7000DD1ECC15DD0519F0E114F104B9F084E95F
:105A80008093BC00C701CDB7DEB7EDE097C0C1E0A1
:105A9000D0E0E5CFC5E0FCCF0F3F100701F3C40114
:105AA0000E94061308171907D0F6DFCFFE01849174
:105AB000B80143DF7C012196DCCFA0E0B0E0E2E654
:105AC000FDE25FC0682E962E5A01690178010E949E
:105AD000FA12782E892E0431110518F10F3F1007A4
