:020000040800F2
:10000000000400201D8100081F8100081F810008D6
:100010001F8100081F8100081F8100081F81000840
:100020001F8100081F8100081F810008E1390108B5
:100030001F8100081F8100081F8100081F81000820
:100040001F8100081F810008AD5C0108155D0108D3
:100050001F8100081F8100087D460108A546010890
:10006000CD460108F54601081D4701086D4C010801
:10007000954C0108C14C0108ED4C0108194D0108CF
:10008000414D01086D4D01081F8100081F810008C6
:100090001F8100081F8100081F81000845470108D3
:1000A0001F8100081F8100081F8100081F810008B0
:1000B000194801081F8100081F8100081F810008DE
:1000C0001F8100081F8100081F8100081F81000890
:1000D0001F8100081F8100081F8100081F81000880
:1000E000A94701084D5D01081F8100081F81000814
:1000F0001F8100081F8100081F810008994D010819
:100100001F8100081F8100081F8100081F8100084F
:100110001F8100081F8100081F8100081F8100083F
:10012000C54D0108ED4D0108194E0108454E010865
:10013000714E01081F8100081F8100081F810008FF
:100140001F8100081F8100081F8100081559010840
:10015000994E0108C54E0108F14E01081F810008A3
:100160001F8100081F8100081F8100081F810008EF
:100170001F8100081F8100081F8100081F810008DF
:100180001F8100081F8100081F8100081F810008CF
:100190001F8100081F8100081F8100081F810008BF
:1001A0001F8100081F8100081F8100081F810008AF
:1001B0001F8100081F8100081F8100081F8100089F
:1001C0001F8100081F8100081F8100081F8100088F
:1001D0001F8100081F8100081F8100081F8100087F
:1080000072B6374880F30888364880F309883648C6
:108010003649086040F20000CCF200004EF63471A0
:10802000CEF200010860BFF34F8FBFF36F8F40F2B5
:108030000000C0F2F0004EF68851CEF20001086058
:10804000BFF34F8FBFF36F8F4FF00000E1EE100AC8
:108050004EF63C71CEF200010860062080F31488D1
:10806000BFF36F8F0BF02EF90AF0DCFC4FF05530A8
:108070001F491B4A91423CBF41F8040BFAE71D49D6
:10808000184A91423CBF41F8040BFAE71A491B4ACF
:108090001B4B9A423EBF51F8040B42F8040BF8E721
:1080A00000201849184A91423CBF41F8040BFAE7F6
:1080B0000BF00CF90BF007F9144C154DAC4203DA38
:1080C00054F8041B8847F9E706F099FE114C124D4D
:1080D000AC4203DA54F8041B8847F9E70BF0F4B814
:1080E00000040020000C00200000000808ED00E063
:1080F0000000002000040020A0760108000C0020F1
:108100002C14002030140020284D0020008000088E
:1081100000800008008000080080000870E700F080
:1081200000F8FEE72DE9F04F2DED108AC1F80CD0D4
:10813000C3689D46BDEC108ABDE8F08F002383F331
:1081400011882846A04700200BF078FBFEE70BF0D3
:10815000D1FA00DFFEE7000053B94AB9002908BF91
:1081600000281CBF4FF0FF314FF0FF3000F00CB87B
:10817000ADF1080C6DE904CE0EF09FF9DDF804E0D6
:10818000DDE9022304B07047704700BF08B5062040
:1081900000F016FA01200EF07DF900BF931E222B8D
:1081A00010B50C460CD80A2A03D000F0A3F82046DC
:1081B00010BD0028F9DA2D2301F8013B4042F4E715
:1081C00000230B70184610BD931E222B10B50C46D1
:1081D0000CD80A2A03D000F08DF8204610BD0028E4
:1081E000F9DA2D2301F8013B4042F4E700230B703C
:1081F000184610BD0000000038B5124B1D682A6BF0
:1082000004461AB10023C2E9044338BD182000F027
:10821000C9FB0246286378B101200021C2E90401AC
:10822000094B0A480A499160C2E900030B23938174
:108230000023C2E9044338BD064B0748462100F03D
:108240008BFB00BF000C002034126DE60E33CDAB6B
:10825000ECDE0500A0750108B87501081C4B10B5CF
:108260001C68226B8AB113691A4954691A4803FBC6
:1082700001F100FB0411A3FB0030013341EB0001CD
:10828000C2E9043121F0004010BD182000F08AFB43
:108290000246206388B1114C114B0E481149916080
:1082A0009FED097BC2E900430B2393810E4B0146EE
:1082B00082ED047BC2E9043110BD0C4B0C48522105
:1082C00000F04AFBAFF30080010000000000000056
:1082D000000C00202DF451582D7F954C0E33CDAB62
:1082E00034126DE6ECDE05002E7F954CA07501087A
:1082F000B8750108F0B5254FA2F1020E16460546E5
:108300000C460FCF8BB0EC46ACE80F000FCFACE8BB
:108310000F0097E803004CF8040BBEF1220F8CF815
:1083200000102ED804F1FF3E70464FF0000CB5FB54
:10833000F6F206FB125328336B44614613F828CC3F
:1083400000F801CF2B469E4201F1010C1546EED9F3
:10835000002304F80C3089B1A44472461EF8010FC2
:108360001CF8015D8EF80050A4EB0E030232013BB5
:10837000121B0B449A428CF80000EEDB20460BB037
:10838000F0BD0023184623700BB0F0BDF475010852
:10839000FFF7B0BF032A70B511D940EA01039B076C
:1083A0001FD104460B4602E0043A032A1DD91946A0
:1083B000204653F8045B54F8046BAE42F4D0541ECC
:1083C000B2B1421E013901E0C3180CD012F801EF1E
:1083D00011F801CFE645A4EB0203F5D0AEEB0C009B
:1083E00070BD541EEDE7184670BD20461946E6E7FD
:1083F000104670BD830730B547D0541E002A3ED0CA
:10840000CAB2034601E0013C39D303F8012B9D07B2
:10841000F9D1032C2CD9CDB205EB05250F2C05EB9A
:10842000054535D9A4F1100222F00F0C03F1100E0E
:10843000E6444FEA121C1A46156055609560D560F7
:1084400010327245F8D10CF1010214F00C0F03EB5D
:10845000021204F00F0C13D0ACF1040323F0030359
:108460000433134442F8045B9A42FBD10CF003043A
:108470002CB1C9B21C4403F8011B9C42FBD130BD96
:1084800064461346002CF4D1F9E703461446C0E7CE
:108490001A46A446E0E700BF38B5C46B0CB1002013
:1084A00038BD8021054600F0B1FA0246E86330B1DC
:1084B000031F7C3243F8044F9342FBD1EFE74FF0A8
:1084C000FF3038BD30B51F2983B0054608D8C36BCF
:1084D0000C4653B153F8240043F8242003B030BDB8
:1084E000162303604FF0FF30F8E78021019200F07F
:1084F0008DFA019AE86303460028F3D0011F00F1CA
:108500007C05002041F8040FA942FBD1E2E700BF3F
:108510001F2938B505461ED8C26B0C466AB152F801
:10852000213053B1012B06D0591C10D0002142F844
:10853000241020469847002038BD284600F0F2F865
:10854000224601462846BDE8384000F0D5B816233B
:108550000360012038BD162303604FF0FF3038BDA3
:108560001F292AD838B5C36B0C460546A3B153F86A
:10857000242003EB84034AB1511C0BD0012A07D0FD
:10858000002520461D609047284638BD012038BD93
:10859000032038BD022038BD802100F037FA0346A1
:1085A000E86338B1021F00217C3042F8041F90427A
:1085B000FBD1DCE74FF0FF3038BD4FF0FF307047A4
:1085C00038B5134B1F281D681DD8EA6B044662B1ED
:1085D00052F820304BB1012B05D0591C0FD000218F
:1085E00042F820109847002038BD284600F09AF83D
:1085F000224601462846BDE8384000F07DB81623E3
:108600002B60012038BD16232B604FF0FF3038BDA2
:10861000000C0020114B1F2870B51E6808D8F36BA2
:1086200004460D464BB153F8240043F8245070BD66
:10863000162333604FF0FF3070BD8021304600F0CC
:10864000E5F90346F0630028F4D0021F00217C30D6
:1086500042F8041F9042FBD1E5E700BF000C002068
:1086600038B50B4B1D68EC6B0CB1002038BD802178
:10867000284600F0CBF9E86338B1031F00F17C0213
:1086800043F8044F9342FBD1EFE74FF0FF3038BD82
:10869000000C002038B5174B1F281D6826D804464B
:1086A000E86BA0B150F8243000EB84004BB15A1CA9
:1086B0000BD0012B07D0002505602046984728469F
:1086C00038BD012038BD032038BD022038BD8021CF
:1086D000284600F09BF9E86340B1031F00F17C01DC
:1086E000002243F8042F9942FBD1DBE74FF0FF3023
:1086F00038BD00BF000C002070B50C46084D034685
:108700000026204611461C462E600DF0CBFE431C71
:1087100000D070BD2B68002BFBD0236070BD00BF64
:10872000381400200DF0C6BE844641EA000313F061
:1087300003036DD1403A41D351F8043B40F8043B68
:1087400051F8043B40F8043B51F8043B40F8043B2B
:1087500051F8043B40F8043B51F8043B40F8043B1B
:1087600051F8043B40F8043B51F8043B40F8043B0B
:1087700051F8043B40F8043B51F8043B40F8043BFB
:1087800051F8043B40F8043B51F8043B40F8043BEB
:1087900051F8043B40F8043B51F8043B40F8043BDB
:1087A00051F8043B40F8043B51F8043B40F8043BCB
:1087B00051F8043B40F8043B403ABDD2303211D36B
:1087C00051F8043B40F8043B51F8043B40F8043BAB
:1087D00051F8043B40F8043B51F8043B40F8043B9B
:1087E000103AEDD20C3205D351F8043B40F8043B6B
:1087F000043AF9D2043208D0D2071CBF11F8013B69
:1088000000F8013B01D30B8803806046704700BF2E
:10881000082A13D38B078DD010F003038AD0C3F13D
:108820000403D21ADB071CBF11F8013B00F8013B1F
:1088300080D331F8023B20F8023B7BE7043AD9D3DE
:10884000013A11F8013B00F8013BF9D20B780370B3
:108850004B7843708B78837060467047000000004F
:108860000000000000000000000000000000000008
:1088700000000000000000000000000000000000F8
:1088800030B490F800F020F007016FF0000C10F009
:10889000070491F820F040F048804FF000046FF09A
:1088A0000700D1E9002391F840F000F1080082FAB6
:1088B0004CF2A4FA8CF283FA4CF3A2FA8CF34BBB81
:1088C000D1E9022382FA4CF200F10800A4FA8CF2FA
:1088D00083FA4CF3A2FA8CF3E3B9D1E9042382FAC8
:1088E0004CF200F10800A4FA8CF283FA4CF3A2FADD
:1088F0008CF37BB9D1E9062301F1200182FA4CF215
:1089000000F10800A4FA8CF283FA4CF3A2FA8CF37B
:10891000002BC6D0002A04BF04301A4612BAB2FA9D
:1089200082F200EBD20030BC7047D1E9002304F0A2
:108930000305C4F100004FEAC50514F0040F91F8D7
:1089400040F00CFA05F562EA05021CBF63EA050374
:1089500062464FF00004AAE700B50B4C25681446A8
:10896000EE681A4685B003460D464CB1074900959E
:10897000CDE901143046064900F0DEF8FFF706FCA9
:1089800004490C46F3E700BF000C00201C760108E8
:108990002C7601082876010808B513460022FFF757
:1089A000DBFF00BF024B0146186800F02FB800BF84
:1089B000000C0020024B0146186800F0E5B800BF2B
:1089C000000C002070B5104E336805460C46B3B15C
:1089D000214628460DF042FD431C0CD0C41C24F057
:1089E0000304A04205D0211A28460DF037FD0130BE
:1089F00001D0204670BD4FF0FF34204670BD1946AF
:108A00000DF02CFD3060E3E7301400202DE9F0413B
:108A1000CD1C25F0030508350C2D38BF0C25002D85
:108A200082B0064616DBA94214D8354F00F06AF82A
:108A30007A68AAB1144603E06368224683B11C46F3
:108A400023685B1BF8D40B2B21D8A242636855D056
:108A500053600DE00C233360002002B0BDE8F081CC
:108A600029463046FFF7AEFF431C044619D0056087
:108A7000304600F04DF804F10B00231D20F00700F4
:108A8000C21A1CBF1B1AA35002B0BDE8F0816119C5
:108A9000A242256014BF51607960635163684B60E6
:108AA000E6E77B6823B31C465B68002BFBD122689A
:108AB00001931946304604EB02080DF0CFFC8045C7
:108AC00016D12268AD1A29463046FFF77BFF0130E8
:108AD0000ED022687868019B2A442260426812B94D
:108AE0000CE010465268A242FBD100234360BFE76E
:108AF0000C233360304600F00BF8ADE77B60B7E73E
:108B000030140020014800F035B800BF4C1400209C
:108B1000014800F037B800BF4C1400200CB400B579
:108B200083B004AB53F8042B019300F0D1F803B0E9
:108B30005DF804EB02B070470EB410B583B005AB1E
:108B4000064C53F8042B01930146206800F0C0F84E
:108B500003B0BDE8104003B0704700BF000C002018
:108B6000704700BF704700BF704700BF704700BF2D
:108B7000704700BF704700BF012070470120704759
:108B8000704700BF704700BF002950D038B551F87A
:108B9000043C0C1F002BB8BFE4180546FFF7B2FFDA
:108BA000274A13682BB1A3420CD92168601883426D
:108BB0002CD0636028461460BDE83840FFF7A8BF9A
:108BC000A3420FD81A465B68002BF9D111685018E0
:108BD000844217D02CD3636054602846BDE83840E7
:108BE000FFF796BF11685018A04214D020D8216812
:108BF00060188342EFD118685B680844C4E9000339
:108C00005460EAE723680B441360E6E718685B6882
:108C100008442060CDE72068014450188342116069
:108C2000DBD1D3E900040144C2E90014D5E7704761
:108C30000C232B602846BDE83840FFF769BF00BF12
:108C4000341400209368013B002B936011DA10B4B8
:108C50009469A34209DB0A2907D01368581C1060E5
:108C6000197008465DF8044B70475DF8044B00F03E
:108C7000CBBE1368581C106019700846704700BFBF
:108C80009BB1F8B5134406460F46541E5D1E01E025
:108C9000AC4208D014F8011F3A463046FFF7D2FF25
:108CA000431CF5D1F8BD0020F8BD0020704700BF7F
:108CB000936810B514461BB918460023636010BDB5
:108CC00000F0B4FC0023A3600023636010BD00BF6C
:108CD0002DE9F04FA1B08B4691461C46049018B187
:108CE000036A002B00F04781DBF86420BBF90C30ED
:108CF000D20702D49F0540F137811E0740F19E80C4
:108D0000DBF81030002B00F099800023CA460D9349
:108D100043F22003ADF839309AF80030974E0794AB
:108D20000127002B7AD0D14604E019F8013F002B2F
:108D300000F09A80252BF8D1B9EB0A0840F0978013
:108D400099F80030002B69D000234FF0FF32CDE9B5
:108D5000092309F1010908930B938DF863301E93E1
:108D600005E0089A07FA03F31A430892A1464C4615
:108D7000052214F8011B304600F07AFFA246831B3F
:108D80000028EED1089BD80644BF20228DF863202E
:108D9000190799F8001044BF2B228DF863202A2967
:108DA0007BD1079A1168043200290792C0F2B08083
:108DB0000B9199F801102E2900F08680704C032247
:108DC000204600F055FF38B1089B001B402282402E
:108DD00013430AF1010A08931AF8011B69488DF838
:108DE0003810062200F044FF002800F09780664B00
:108DF000002B7ED007AA0092644B04985A4608A91B
:108E0000AFF300800390039B013307D00D9B039ABF
:108E100013440D939AF80030002B84D1DBF86430B2
:108E200013F0010FBBF80C3002D19A0540F1958088
:108E30005B0616D40D9821B0BDE8F08F0498594612
:108E400000F032FE00283FF460AFDBF86430DD074D
:108E500007D4BBF80C309C0503D4DBF85800FFF7AF
:108E600091FE4FF0FF30E6E7B9EB0A08D6D00AF1E1
:108E7000FF35CDF81490A946049D01E0A0453FD9E7
:108E80004C465A4619F8011F2846FFF7DBFE02340C
:108E90000130A4EB0A04F1D1C0E7A1F13002092AA4
:108EA00088BFCA4687D80B9B00E00134217803EBCA
:108EB000830302EB4303A1F13002092AF5D92E29DD
:108EC0000B93A2467FF47AAF9AF801102A292FD18A
:108ED000079B9AF802101A6809920433002A0AF1D3
:108EE00002000793B8BF4FF0FF338246B8BF099323
:108EF00064E7079B073323F007030833079385E7ED
:108F00000D99DDF81490414499F800300D9119E75E
:108F1000494243F002030B9108934AE707AA0092E3
:108F20001A4B04985A4608A900F0D2F803906AE751
:108F3000A1F130020023092A09930AF1010A3FF640
:108F40003DAF1AF8011F03EB830302EB4303A1F1CA
:108F50003002092AF5D9099330E7DBF85800FFF70A
:108F600011FEBBF80C3063E7DBF85800FFF702FE98
:108F7000BBF90C30C1E600F009FBB5E65C760108F0
:108F8000647601086876010800000000818C000802
:108F900010B4054C8446134620685DF8044B0A461D
:108FA0006146FFF795BE00BF000C00202DE9F84F89
:108FB00092461F460A698B68DDF828909A42B8BF2E
:108FC0001A46CAF8002091F843300C46064613B101
:108FD0000132CAF80020226891065FD5DAF8003025
:108FE0000233CAF80030226812F0060F11461DD174
:108FF000E1689942D8BF114618DD04F1190B4FF012
:10900000000805E0E568DAF80030ED1A45450CDDAA
:1090100001235A4639463046C847013008F1010855
:10902000F0D14FF0FF30BDE8F88F216894F843305D
:10903000003B18BF01238A060AD5E1185A1C3020CC
:1090400081F84300224494F8451082F8431002331B
:1090500004F1430239463046C8470130E1D0236865
:10906000DAF80050216903F00603042BD4E902204A
:109070001BD08A4220DD4FF00008521A90441A3467
:10908000002501E0454517DA0123224639463046DE
:10909000C847013005F10105F4D1C2E712F0060F0F
:1090A0000DD0003B18BF0123D2E7401B8A4220EAC3
:1090B000E078E2DC0028E2DC0020BDE8F88FE1681F
:1090C000DAF800309942D8BF114696DCAEE700BF0F
:1090D0002DE9F0470C4684B01746227E0C990646CF
:1090E000984604F1430C002A35D0A2F15803D8B2B7
:1090F000202869D8202B67D8DFE813F0E00066004D
:10910000660066006600660066006600660066002F
:1091100066009400700066006600660066007000DD
:10912000660066006600660021008300AE006600EF
:1091300066009E006600830066006600E6000B681D
:10914000226860691D1D0D6011061B6802D452065D
:1091500000F1DC8018600023E1462361CDF8008037
:109160003B4603AA21463046FFF720FF013020D0BE
:1091700023694A4639463046C047013019D0236832
:10918000E068DDF80C909B0718D5484516DD04F122
:10919000190A002504E0E068A0EB0903AB420DDDED
:1091A0000123524639463046C047013005F10105DA
:1091B000F1D14FF0FF3004B0BDE8F0874845B8BFAB
:1091C000484604B0BDE8F08784F84220012004F14D
:1091D00042090023206184F84330BFE70A6823680E
:1091E000101D0860180602D4590600F1938010681B
:1091F000014600286268C0F2918053484FF00A0E81
:109200004AE00B6820681D1D0D60050601D441066B
:109210007ED419684C486F2A14BF4FF00A0E4FF0E5
:10922000080E35E00B681A6804330B6004F142093C
:1092300084F842200120CCE70B686268181D0860A2
:10924000D3F800900021484600F012FD002879D0A4
:10925000A0EB09006060BCE7236843F020032360B3
:1092600078223A4884F845200A68151D0D601D06CD
:109270004AD4590648D51188DD0744BF43F020037E
:10928000236019B9236823F0200323604FF0100EE8
:109290000023626884F84330002AA26016DB23684A
:1092A00023F00403236089B9002A45D1E146BEF1C9
:1092B000080F1CD0ACEB090323614FE7582384F857
:1092C000453021482368CFE72368C9E77546E14662
:1092D000B1FBF5F305FB131A0A46AA4210F80A106F
:1092E00009F8011D1946F3D2BEF1080FE2D1236837
:1092F000D807DFD5626823699A42DBDC302309F89E
:10930000013C09F1FF39D5E71168B5E7188022E77C
:1093100019887FE7B2F9001008466AE72D20002A75
:10932000A26084F8430002DB23F0040323600A25D3
:1093300005484942AE46CAE7037884F8423004F152
:109340004209B4E7606844E7707601088476010852
:10935000024A0349034800F0E9BA00BF500C00205C
:10936000999E0008040C00200C4B4168994210B5EE
:10937000044601D000F090FDA168094B994202D04B
:10938000204600F089FDE168064B994204D0204652
:10939000BDE8104000F080BD10BD00BF5C1400208F
:1093A000C41400202C15002008B54B6EDA0702D437
:1093B0008B899B0501D5002008BD886DFFF7DAFB7E
:1093C000002008BD08B54B6EDA0702D48B899B05D7
:1093D00001D5002008BD886DFFF7D4FB002008BD33
:1093E0002DE9F843314C324BDFF8D890DFF8D880C4
:1093F000304FC4F83831002529460423082204F1EF
:109400005C002D4EE360C4E90055C4E90455A56035
:109410006566A561FEF7EEFF04F15800C4E908494E
:10942000C4E90A872663FFF79DFB2946234B636740
:10943000082204F1C400C4E91A55C4E91E55256781
:10944000C4F8CC50C4F88050FEF7D4FF04F1680390
:1094500004F1C000C4F88830C4E92398C4E9257633
:10946000FFF780FB164BC4F8DC30294604F59670F4
:109470000822C4E93455C4E93855C4F8D850C4F8B2
:109480003451C4F8E850FEF7B5FF04F1D003C4E945
:109490003E87C4F8F49004F59470C4F80061C4F8F1
:1094A000F030BDE8F843FFF75DBB00BF5C1400205F
:1094B00051930008DD990008019A00080900010095
:1094C00012000200759900089D990008F8B506463B
:1094D0002A48FFF74FFB2A4BD3F83831002B43D0F3
:1094E000284FD7E90134013B04D524E05A1C04F18C
:1094F000680420D0B4F90C50013B002DF6D1224B6A
:10950000E36004F158006566FFF72CFB1B48FFF78A
:1095100039FBC4E90155C4E904552560A561082259
:10952000294604F15C00FEF765FFC4E90D55C4E966
:1095300012552046F8BD3D680DB12F46D1E74FF4D6
:10954000D6713046FFF762FA044680B10423056005
:1095500043600C302946A06025464FF4D072FEF7D8
:1095600049FF3C602F46BCE7FFF73AFFB8E70348E6
:109570003C60FFF707FB0C233360DAE75814002048
:109580005C140020500C00200100FFFF10B50446C1
:109590000B48FFF7EFFA236A2BB90A4B0A4AD3F8B4
:1095A0003831226223B1BDE810400548FFF7EABA1E
:1095B000FFF716FFBDE810400148FFF7E3BA00BF10
:1095C000581400205C140020699300080148FFF73C
:1095D000D1BA00BF581400200148FFF7D3BA00BF2A
:1095E0005814002008B50548FFF7C4FABDE8084044
:1095F000034A0449002000F099B900BF5814002024
:10960000500C0020A993000808B5054A0549002020
:1096100000F08CF9BDE808400348FFF7B3BA00BF7B
:10962000500C0020C5930008581400209368002BAC
:1096300000F0F8802DE9F04FB1F90CC01CF0080FD4
:1096400083B0904681460C4631D00B697BB31CF049
:109650000207D8F8006038D00027D4F828B0216A73
:10966000DFF8C4A23D4655452B463A4628BF53462F
:109670004846C5B1D847002840F3CA80D8F808301A
:109680001B1A07442D1AC8F80830002B00F0B680CA
:1096900055452B46D4F828B0216A28BF53463A4690
:1096A0004846002DE6D1D6E900750836DBE72146AD
:1096B000484600F0F9F9002840F0AF80B4F90CC03A
:1096C000D8F800601CF00207C6D11CF0010A63D173
:1096D0002368A168574618468B46002F58D01CF4C3
:1096E000007F00F0B580B9420A4600F2E1801CF428
:1096F000906F2FD0216962695D1A02EB420202EB82
:10970000D2726B1C52103B44934292BF93469B46CD
:109710001A461CF4806F00F0EA8011464846FFF7B5
:1097200075F9002800F0F9802A4621690090FEF7BB
:10973000FBFFA289009B22F4906242F08002A2818A
:109740005819ABEB0505C4F814B02361A56020607F
:10975000BB463A465146009200F006FAA1682368DB
:10976000009AA1EB0B011A443D46A160226000273C
:10977000D8F808305B1BAA44C8F80830002B3DD04D
:109780002368A168B4F90CC018468B46002FA6D1F7
:10979000D6E900A708369EE73846BB463D46009707
:1097A000002D41D0002846D0009A2068A168D4E955
:1097B0000473AA4228BF2A46B84204D901EB030A1F
:1097C000524500F38580934275DC216AA76A5A46A8
:1097D0004846B847B0F1000A1ADD009BB3EB0A0314
:1097E00000930FD00120D8F80830A3EB0A03D3442C
:1097F000A5EB0A05C8F80830002BD1D1002003B032
:10980000BDE8F08F2146484600F046FB0028EAD02C
:10981000B4F90C3043F04003A3814FF0FF3003B0A4
:10982000BDE8F08F00207047756833460836002D7C
:10983000FAD0D3F800B02A460A21584600F018FAA8
:10984000002867D00130A0EB0B0300931A46ACE769
:1098500022699A4214D36269BA4211D86FF0004368
:10986000BB4228BF3B46A56A93FBF2F3216A02FB89
:1098700003F348465246A847051EC9DD7F1B77E71C
:10988000B94228BF39460D4618460A46514600F0EF
:109890006BF9A1682368491B2B44A1602360002950
:1098A000ECD12146484600F0F7FA0028E6D0AFE7B1
:1098B000BB463A464EE75946019200F055F9019AE7
:1098C000A3689B1AA360236813442360924684E72D
:1098D0005946524600F048F9236853442360214614
:1098E000484600F0D9FA00283FF477AF90E74846A1
:1098F00000F00EFA034600287FF422AF21694846A3
:10990000FFF742F9B4F90C300C2223F08003C9F8B8
:1099100000207FE76A1C009247E70C22B4F90C3064
:10992000C9F8002076E700BF00FCFF7F2DE9F8436F
:1099300080460F4616464FF00009D6E90154013D16
:1099400011D4A389012B05F1FF3508D9B4F90E30E4
:109950000133214603D04046B84749EA00096B1C51
:1099600004F16804EDD13668002EE6D14846BDE822
:10997000F88300BF10B50C46B1F90E100CF063FD72
:10998000002803DB636D0344636510BDA38923F4E2
:109990008053A38110BD00BF002070472DE9F04126
:1099A0000C46B1F90C101F46CB05054616460BD4E4
:1099B00021F48051A1813B46B4F90E10324628466D
:1099C000BDE8F0410CF046BDB4F90E1002230022B0
:1099D0000CF03EFDB4F90C10EAE700BF10B50C46E0
:1099E000B1F90E100CF034FDB4F90C30421C0EBF6E
:1099F00023F4805343F480536065A38110BD00BFFE
:109A0000B1F90E100CF028BDF8B50D461446064607
:109A100010B1036A002B37D0A389A269A2601A078C
:109A200019D52369BBB122686169D31AEDB2994295
:109A30002F4620DD0133A1680139A160511C21604E
:109A4000157062699A420DD0A389DB0701D50A2DF2
:109A500008D03846F8BD2146304600F025F838B920
:109A60002369E0E72146304600F016FA0028F0D0DE
:109A70004FF0FF37EDE72146304600F00DFA0028A1
:109A8000F6D122680123D6E7FFF780FDC4E700BFC7
:109A900010B4044C03460A4620685DF8044B19468E
:109AA000FFF7B2BF000C002038B52E4B1B680546EF
:109AB0000C4613B11A6A002A4BD0B4F90C301807BF
:109AC0001CD5226922B313F0010107D0616900207F
:109AD0004942A060A1613AB1002038BD980758BF43
:109AE0006169A160002AF7D1190658BF1046F4D564
:109AF00043F04003A3814FF0FF3038BDD9062CD589
:109B00005A0712D4226943F00803A381002ADAD14C
:109B100003F42071B1F5007FD5D02146284600F02E
:109B2000FBF9B4F90C302269CDE7616B51B104F156
:109B30004402914204D02846FFF726F8B4F90C30CD
:109B40000022626322690021C4E9002123F024037A
:109B5000D9E71846FFF71AFDAFE709222A6043F05C
:109B60004003C7E7000C002088420ED98B188342BF
:109B70000BD900EB020C002A6ED0624613F801CD1F
:109B800002F801CD9942F9D170470F2A0FD8034648
:109B900002F1FF3C002A5FD00CF1010C013B8C4428
:109BA00011F8012B03F8012F6145F9D1704740EA04
:109BB00001039B0751D1A2F1100370B501F1200CF4
:109BC00023F00F0501F1100E00F11004AC441B0945
:109BD0005EF8105C44F8105C5EF80C5C44F80C5CB9
:109BE0005EF8085C44F8085C5EF8045C44F8045CC9
:109BF0000EF1100EE64504F11004E9D1013312F024
:109C00000C0F01EB031102F00F0400EB031328D03B
:109C1000043C24F003064FEA940C1E441C1F8E469D
:109C20005EF8045B44F8045FB442F9D10CF101041E
:109C300002F0030203EB840301EB840102F1FF3C19
:109C40004AB10CF1010C013B8C4411F8012B03F8D3
:109C5000012F6145F9D170BD704702F1FF3C034609
:109C60009AE72246EAE700BF00000000000000007B
:109C700001F0FF01102A2BDB10F0070F08D010F8BD
:109C8000013B013A8B422DD010F0070F42B3F6D1C1
:109C9000F0B441EA012141EA014122F007047FF0DA
:109CA00000070023F0E80256083C85EA010586EA31
:109CB000010685FA47F5A3FA87F586FA47F6A5FA6D
:109CC00087F68EB9EED1F0BC01F0FF0102F0070279
:109CD00032B110F8013B013A83EA010313B1F8D124
:109CE0000020704701387047002D06BF3546033805
:109CF000073815F0010F07D1013015F4807F02BF3E
:109D0000013015F4C03F0130F0BC0138704700BF8E
:109D10002DE9F041144649B3EAB106460D4600F07C
:109D200085F98442074602D8B4EB500F1AD8214671
:109D30003046FEF76BFE804678B1BC42224629468B
:109D400028BF3A46FEF7F0FC30462946FEF71CFFD6
:109D50004046BDE8F081FEF717FF4FF0000840468F
:109D6000BDE8F081A8464046BDE8F081BDE8F0417D
:109D70001146FEF74BBE00BFB1F90C301A072DE9B2
:109D8000F0410C4680463DD44A68002A56DDE56A1B
:109D9000002D34D00022D8F80060C8F8002013F459
:109DA0008052216A57D101234046A847431C0246EE
:109DB00061D0B4F90C30E56A216A5F0705D56368A4
:109DC000D21A636B0BB1236CD21A00234046A8470A
:109DD000451C42D00023636023692360A389D90412
:109DE00000D56065616BC8F8006041B104F14403BF
:109DF000994202D04046FEF7C7FE0023636300206D
:109E0000BDE8F0810E69002EF9D09B070D6808BFF0
:109E10004B690E6018BF0023AD1B8B600BE02B4617
:109E20003246216AA76A4046B847B0F1000CA5EB5C
:109E30000C05664406DD002DF1DCE0E70A6C002A23
:109E4000A5DCDCE7B4F90C3043F04003A3814FF00C
:109E5000FF30BDE8F081626DAFE7D8F80020B4F9BB
:109E60000C309AB11D2A01D0162AEDD123690022A7
:109E7000C4E90032B6E7D8F80030002B99D01D2B8A
:109E800001D0162BDED1C8F80060B8E76260226905
:109E90002260DA04A5D4A5E738B50B69CBB10C462E
:109EA000054608B1036ABBB1B4F90C308BB1626EE0
:109EB000D00701D4990512D528462146FFF75CFF4B
:109EC000636EDA07054602D4A3899B050BD52846A5
:109ED00038BD0025284638BDFFF758FBE4E7A06DE4
:109EE000FEF748FEE8E7A06DFEF74CFEEFE700BF87
:109EF000014618B1044B1868FFF7CEBF034A044966
:109F00000448FFF713BD00BF000C0020500C0020D8
:109F1000999E0008040C002070B5B1F90C300C4675
:109F2000990796B007D504F147030122C4E904322A
:109F3000236016B070BDB4F90E100029054629DB68
:109F40006A460CF098FA002822DB4FF4806128461C
:109F5000019EFEF75BFD88B3A389206043F0800378
:109F600006F47046A381B6F5005F4FF48063C4E940
:109F70000403DED1B4F90E1028460CF088FA00284C
:109F8000D7D0A38923F0030343F00103A381D0E7D3
:109F9000B4F90C3013F0800F14BF40264FF48066E4
:109FA00031462846FEF732FD40B1A389206043F0D8
:109FB0008003C4E90406A38116B070BDB4F90C3067
:109FC0009A05B6D423F0030304F1470243F00203D9
:109FD0000121C4E90421A3812260AAE770B50C46DF
:109FE000B1F90E10002996B015461E460FDB6A46E1
:109FF0000CF041FA00280ADB019B03F47043A3F53F
:10A000000053B3FA83F34FF480625B0908E0A2893E
:10A0100012F0800F4FF0000314BF40224FF4806213
:10A02000002033602A6016B070BD00BF51F8043CB8
:10A03000181F002BBCBF0B58C0187047034B1B7870
:10A04000032B06BF024B187800207047991500209B
:10A050009A15002008B5302204480021FEF7CAF9FD
:10A06000034A00231370034A137008BD9026002092
:10A07000C0260020C126002037B50D4D0D4A0190A5
:10A0800028781178441C04F00F0399421C4602BF43
:10A09000013303F00F031370074B00EB4000032262
:10A0A00001A91844FEF740FB01202C7003B030BD1D
:10A0B000C0260020C12600209026002008B5084BAD
:10A0C00001221A70FFF7C6FF00F0D6FA01F0B0F8CF
:10A0D00001F0A8FF01F0C0FDBDE8084002F0B4B9EE
:10A0E0009915002038B504460D4602F01BF850B90A
:10A0F000054B9B6813B1294620469847034B042221
:10A100001A70034B1C7038BD780C00209915002084
:10A110009B15002010B502F005F8A8B908F0E0F88A
:10A1200090B10A4C2378052B07D101F0F3F820B940
:10A13000074B2078197801F0C1FA064B00215B68C3
:10A14000084698470523237010BD00BF99150020CD
:10A150009B150020780C002030B58BB0054601F02F
:10A16000E1FF30B9144B1B78042B04D1134B1B783F
:10A170001BB90BB030BD032B17D1114B1B69002B42
:10A18000F7D000F0CDFA01230446082229460DF14C
:10A1900006008DF80430FEF7C7FA01A800F08AFA2D
:10A1A000002CE6D000F0ECFAE3E7002BE1D00BB096
:10A1B000BDE83040FFF7AEBF99150020981500208C
:10A1C000780C002030B58BB0054601F0ABFF30B9FC
:10A1D000144B1B78042B04D1134B1B781BB90BB009
:10A1E00030BD032B17D1114B5B69002BF7D000F06A
:10A1F00097FA02230446202229460DF106008DF825
:10A200000430FEF791FA01A800F054FA002CE6D0D1
:10A2100000F0B6FAE3E7002BE1D00BB0BDE8304028
:10A22000FFF778BF9915002098150020780C0020C2
:10A2300010B5044601F076FF78B9084B1B78032B64
:10A2400006D1074B1B6A43B12046BDE810401847B2
:10A250001BB1BDE81040FFF75DBF10BD9915002090
:10A26000780C002070B504460D4601F05BFF98B9EC
:10A270000A4E54B10A4B1A78A24202D13278032A0C
:10A280000AD01C70074B00221A70074B29465B68E6
:10A29000204698470523337070BD00BF99150020F4
:10A2A0009B1500209A150020780C0020024BDB68DB
:10A2B00003B11847704700BF780C00207047704703
:10A2C0007047704770477047054B1B78032B03D1CD
:10A2D000044BDB691BB118470BB1FFF71BBF70477D
:10A2E00099150020780C002010B5134B1B78032B18
:10A2F0008AB0044619D100F013FA60B100F024FAD4
:10A3000048B10E4B9B690BB1204698470AB0BDE897
:10A31000104000F011BA032301A88DF80430ADF805
:10A32000064000F0C7F90AB010BD002BFBD00AB000
:10A33000BDE81040FFF7EEBE99150020780C002014
:10A3400010B5044601F0EEFEA0B92378032B07D127
:10A350006378A078BDE8104043EA0020FFF7B4BF5F
:10A36000042B07D16378A078BDE8104043EA0020B1
:10A37000FFF7BABF10BD000010B5002088B000F094
:10A38000EBFF00F079F903F063FB41F2883009F04C
:10A390005AFA174B174C93F90030002B22DA20227F
:10A3A00000216846FEF726F863690DF10100984721
:10A3B0004FF47A7009F047FAA369002098474FF4E8
:10A3C0007A7009F040FA00230093ADF80430684633
:10A3D000236A984747F2305009F035FAFFF766FFD5
:10A3E00008B010BD0023CDE9003368462369DEE7DD
:10A3F00006490020780C00202DE9F047774E784D73
:10A4000096F800C02B7800209C4540F0BC8008B135
:10A4100085F800C0BDE8F0872B70724B0022204603
:10A420001A7002F0AFF8EBE72B706E4B0320214659
:10A43000187001F043F96C4B1C7003F009FB2046C7
:10A44000FFF73EFF01F064FE10B1012000F084FF31
:10A45000664B5C6A14B101F02FFEA04701F0EEFBE1
:10A46000CEE72B70604B1C705E4B042021461870A9
:10A4700001F024F92046FFF721FFC1E72B705A4B6A
:10A480001C70584B05202146187001F017F9204622
:10A49000FFF715FFB4E7DFF84C81DFF860912B7010
:10A4A000002398F800A089F8003001F05BFB10F061
:10A4B000060F03D099F8000001F022FA0220BAF149
:10A4C000030F88F8000014D101F0B8FB21460620E4
:10A4D00001F0F4F800F0D0F8454B4FF000082046AA
:10A4E000394683F8008002F04FF8404600F034FF10
:10A4F00086E7214601F0E2F8002FEBD001F032FBB5
:10A5000010F0060FE6D049F6404000F0E2FEE1E729
:10A51000384A2B70137823F080031370364B0122D6
:10A520001A70FFF7CEFE6BE72B7003F0C1FF314BC3
:10A530001880314B00221A70FFF7C4FE60E7294FE4
:10A540002B702E4B00241C703B78033B012B3FF6F5
:10A5500057AF06233B7001F071FBFFF7B4FE38786C
:10A56000214601F0ABF82046C0E72B70234B1C704E
:10A5700046E72B70224B00221A7041E720462B70D1
:10A5800000F0F2F83CE71F4A03EB430103EB430002
:10A59000515C02440133547897784A1E03F00F034C
:10A5A00001200A2A3FF630AF01A151F822F000BF86
:10A5B00019A4000863A400087DA4000829A40008C9
:10A5C00097A4000811A5000829A500083FA50008C8
:10A5D00073A500086BA500087DA50008C026002013
:10A5E000C1260020991500209B150020780C002022
:10A5F0009C15002006490020981500209A1500207F
:10A60000740C00209026002008B5084B9B6A9847E0
:10A61000FFF7F2FE00F0B4F801F03CF901F0CAFFD8
:10A6200001F0C2FDBDE8084001F0B6BB780C002087
:10A63000014B1878704700BF9915002038B50546C2
:10A640000C4601F08FFA10F0060F0DD001F0F6FA6B
:10A6500001F05EFD40B1074B1B78032B04D16379F9
:10A6600013B1012000F078FE21462846BDE83840AD
:10A6700001F000BF9915002008B54FF408520021E1
:10A680000748FDF7B7FE074A00231380064A1380E8
:10A69000064A137007F024FE054B186008BD00BF82
:10A6A000E8260020E6260020C22600209C15002077
:10A6B000A415002038B50A4D0A4A2B8812885C1C64
:10A6C000E4B2A242014608D00748222202FB03005E
:10A6D000FEF72AF82C80012038BD0020FCE700BFDF
:10A6E000E6260020C2260020E826002038B5094DC5
:10A6F000094B2C881B88A3420AD00849222202FB5E
:10A7000004110134E4B2FEF70FF82C80012038BDAB
:10A710000020FCE7C2260020E6260020E8260020D4
:10A72000034B1888034B1B88C31A58425841704783
:10A73000E6260020C226002008B507F0D1FD014B17
:10A74000186008BDA415002008B5054B186807F06F
:10A7500009FE044B1B78984294BF0020012008BDDD
:10A76000A4150020750C0020014B1870704700BF25
:10A77000750C0020014B1870704700BF9C1500201D
:10A7800038B5FFF755FF03284AD1FFF7C9FF18B1C5
:10A79000244B1B78002B43D0FFF7D6FF00283FD077
:10A7A000204C23785BBB204D2846FFF79FFF0028F5
:10A7B00036D02B78002B33D007F092FD02282FD90A
:10A7C0001E23237007F08CFD174C184B186023785C
:10A7D000022B1DD1164B5B694BB1E01C98472378C7
:10A7E000032B04D1124B9B690BB16088984707F08B
:10A7F00077FD104B1860BDE8384001F01FBA0B4BD5
:10A80000186807F0AFFD02280AD92378013BD8E782
:10A81000012BE4D1064B1B69002BE8D0A01CDDE71F
:10A8200038BD00BF9C150020C4260020A0150020C4
:10A83000780C0020A415002070B5054658B91F4CAF
:10A8400001221021204610260AF052FC6683642063
:10A8500008F0F9FF26831A4B1B78FBB9194C01222B
:10A86000202120460AF044FC2021218340F282224C
:10A8700020460AF03DFC40F28222402120460AF0A8
:10A8800037FC40F28222802120460AF031FC1DB1C3
:10A89000BDE8704009F014BB09F012FB094C01221D
:10A8A000204610210AF024FC102323830648BDE82B
:10A8B0007040202202210AF01BBC00BF00080240A9
:10A8C000F04C0020000002400004024010B50E4C85
:10A8D000206807F047FD40F6B833984212D907F0D8
:10A8E000FFFC2060094C4FF48013A3614FF47A7091
:10A8F00008F0A9FF1023A36147F23050BDE81040D3
:10A9000008F0A1BF10BD00BFB0150020000002403C
:10A91000F0B591B006460C46174600211D46402270
:10A920006846FDF767FD2C4915B90B7801330B70AC
:10A930000B780BB901230B70334630190025834285
:10A9400045D147F68463ADF80030AA238DF8043072
:10A95000A31C8DF80630C4F1FD038DF807302246A4
:10A960000B788DF80830314655370DF109008DF818
:10A970000570FDF7D9FE10AA04F1090352FA83F31A
:10A98000164903F8405C04F10A0352FA83F32D0AD6
:10A9900003F8405C124D134B402228461A7009F010
:10A9A00099FA284609F0B5FA04F10B016A46C9B2D2
:10A9B000284609F0EEFA6B681969DA6801238B40C2
:10A9C0009BB21383284609F096FA11B0F0BD13F834
:10A9D000012B2A4495B2B2E7AA1500206C67010842
:10A9E000F04C0020A60C00200B4B70B53F22044613
:10A9F00000211846FDF7FEFC1122451E214600F8F5
:10AA0000012C0822FDF790FE28460023BDE8704087
:10AA100001220921FFF77CBFB51500200B4B70B553
:10AA20003F22044600211846FDF7E4FC1222451E91
:10AA3000214600F8012C1422FDF776FE284600235B
:10AA4000BDE8704001221521FFF762BFB515002057
:10AA50000C4B10B53D22044600211846FDF7CAFCF8
:10AA60000346132200F8024C240A03F8032C00F8D2
:10AA7000014C0338BDE81040002301220721FFF7F5
:10AA800047BF00BFB715002010B5C4B204F17F0363
:10AA9000DBB2022B15D80B4B3E2200211846FDF7E6
:10AAA000A9FC0346142203F8022C0238813C01223F
:10AAB00002FA04F44470BDE8104000230221FFF7BD
:10AAC00027BF10BDB6150020114B10B53F2204461C
:10AAD00000211846FDF78EFC162300F8013C637830
:10AAE00000F80139A378837043F3C013C370E3788F
:10AAF000037143F3C0134371237983716379C37185
:10AB00000023BDE810401A460821FFF701BF00BF2F
:10AB1000B51500207FB506460C463E2200211B4895
:10AB20001B4DFDF767FC1B4A6E7007CA01AB83E83B
:10AB30000700002C08BF1C4621232B706388AB70D4
:10AB40006388A6681B0AEB7023792B7163796B719C
:10AB5000A379AB71BEB13046FDF792FE3146024695
:10AB6000E81DFDF7E1FDA068FDF78AFEC41DE4B213
:10AB7000FFF7ACFE064800230122214604B0BDE8E1
:10AB80007040FFF7C5BE0724F2E700BFB6150020EE
:10AB9000B41500205C6701080E4B70B53C220646D8
:10ABA0000C4618460021FDF725FC2222051F00F85F
:10ABB000024C240A00F8042C00F8036C00F8014C45
:10ABC000FFF784FE28460023BDE8704001220421DF
:10ABD000FFF79EBEB8150020114B3F22184610B556
:10ABE0000021FDF707FC232200F8012C0D48037813
:10ABF000022B02D00C4909F06DF90A4809F089F9D5
:10AC000040F6B83008F01FFE41F6583008F01BFE41
:10AC1000BDE810400548002301220221FFF778BE5D
:10AC2000B5150020F04C00206C670108B415002019
:10AC30000A4B10B53E22044600211846FDF7DAFB08
:10AC40000346322203F8022C00F8014C002302389C
:10AC5000BDE810401A460221FFF75ABEB615002083
:10AC600070B590B0124C402206460D466846002151
:10AC7000FDF7C0FB47F684730E49ADF8003020465F
:10AC800080238DF8033009F025F9204609F041F9B9
:10AC9000291D33466A46C9B2204609F069F92046A3
:10ACA00009F045F9204609F026F910B070BD00BF43
:10ACB000F04C00206C67010810B5084C3F220021C1
:10ACC0002046FDF797FBA42304F8013C0023601EF7
:10ACD0001A46BDE810400121FFF71ABEB515002045
:10ACE0000C4B70B53D2205460C4618460021FDF779
:10ACF00081FB0346252203F8032C00F8025C0023A5
:10AD000000F8014C0338BDE870401A460321FFF7F4
:10AD1000FFBD00BFB71500200A4B10B53E22044608
:10AD200000211846FDF766FB0346332203F8022C88
:10AD300000F8014C00230238BDE810401A460221F9
:10AD4000FFF7E6BDB61500200B4B70B53F22044659
:10AD500000211846FDF74EFB4122214600F8012C48
:10AD60001622451EFDF7E0FC002328461A46BDE8E2
:10AD700070401721FFF7CCBDB515002070B5054612
:10AD8000FDF77EFD0B4B04463F2218460021FDF7E0
:10AD900031FB4522294600F8012CE2B2461EFDF7A0
:10ADA000C3FC611C002330461A46BDE87040C9B29E
:10ADB000FFF7AEBDB515002038B50D4B0021044698
:10ADC0003E221846FDF716FB712200F8022C851E64
:10ADD00000F8014CFFF77AFD00231A4602212846AD
:10ADE000FFF796FD07F07CFA024B186038BD00BFF4
:10ADF000B6150020AC1500200A4B10B53E220446C3
:10AE000000211846FDF7F6FA0346722203F8022CD9
:10AE100000F8014C00230238BDE810401A46022118
:10AE2000FFF776BDB61500200A4B10B53E2204464A
:10AE300000211846FDF7DEFA0346732203F8022CC0
:10AE400000F8014C00230238BDE810401A460321E7
:10AE5000FFF75EBDB6150020F0B589B01446064672
:10AE60000D462022002168461F46FDF7C3FA4AF628
:10AE70000323ADF8003057238DF802302246E34318
:10AE800029460DF107008DF804308DF803408DF848
:10AE900005708DF80660FDF747FC2021684607F035
:10AEA000A1FD192C14D91F2200210DF10100FDF77D
:10AEB000A1FA032305F11901A4F119020DF1010012
:10AEC0008DF80030FDF730FC2021684607F08AFD40
:10AED00009B0F0BD2DE9F043A84B1B6900259B0785
:10AEE00093B02E4600F1F6804022294602A8FDF7D5
:10AEF00081FAA34B02A81978FFF7B2FE9DF80C3037
:10AF0000AA2B40F092809DF80D40542C08D19DF85A
:10AF10001030AB2B04D19DF81130552B00F08580FB
:10AF200000232707ADF804308DF8063009D501233A
:10AF30008DF804309DF80E308DF805300198FFF73C
:10AF40009BF8E0072CD5FFF7B7FE9DF80E30203BAD
:10AF5000062B1ED8DFE803F004080A0CC1C3C500A5
:10AF600004238DF8043014E00223FAE70323F8E702
:10AF7000844F386805238DF8043050B107F0F2F99A
:10AF800040F6B733984204D800233B6001238DF884
:10AF900006309DF80F308DF805300198FFF76CF8FA
:10AFA000A1070CD500238DF806300A238DF8043054
:10AFB0009DF810308DF805300198FFF75DF8E20636
:10AFC00028D59DF914209DF81430002AB7BF03F04E
:10AFD0007F03C3EB431240F2E2425343A8BF03EBAB
:10AFE0008203B3F5FA5F4FF47A72B3FBF2F228BF33
:10AFF000032392B228BFB2FBF3F2634B8DF8052016
:10B000001A8000238DF806300B238DF80430019848
:10B01000FFF732F8630708D59DF811309DF812103C
:10B02000012043EA012101F00BF8584F97F800C0C6
:10B03000BCF1000F57D00DF112033122002002ACF9
:10B040001978AA29984603F1010310D119785729D4
:10B050000DD193F801E093F802906FEA0E01C9B2A6
:10B06000894501BFDE7808F1050460467546013A5E
:10B0700012F0FF02E4D168B3454B3A701D70454BA6
:10B080001E70434B19783B2924D8012300223B70C2
:10B09000881E1346824228DB6218D8B212F8025C7E
:10B0A000854217D112F8012CB2EB132F12D125468D
:10B0B000384B15F8010B1B7800220339A328C9B2BD
:10B0C000ADF804208DF8062053D013D8A1281AD04B
:10B0D000A22844D013B0BDE8F083062341E707233C
:10B0E0003FE708233DE702ACCBE7A55C2B449BB2CE
:10B0F0000132CFE7B02828D0B428EBD163788DF89F
:10B1000005300A2325E0A378142B0FD8102BE1D9A2
:10B11000E07802280DD0032813D00028DAD1FFF7F9
:10B1200029FB194B1878FFF71FFBD3E7162BD1D15A
:10B13000EEE70020FFF71EFB134B18880530C0B266
:10B14000F1E7114B18880A30F9E763788DF805307C
:10B1500001238DF804300198FEF78EFFBAE7E378FB
:10B16000002BB7D1A378722BB4D1284601F0E6FCAE
:10B17000B0E70A462946FFF76FFEABE7000402403E
:10B18000A60C0020AC150020A40C0020770C002099
:10B19000760C0020A81500202DE9F0410378AA2B99
:10B1A000044641D14378553B012B3DD8C278837882
:10B1B000D243D2B2934237D11B2B35D8461D051D41
:10B1C0006FF0030000229F1E001B41198F4226DCF6
:10B1D0003344D1B213F8020C884225D113F8013C54
:10B1E000B3EB122F20D1114B22791978914218BF5D
:10B1F0001A70627902F0F00214BF00250125602A5E
:10B2000012D1FFF763FB6278A2F156014A422B4646
:10B210004A413046F9B2BDE8F041FFF779BB15F875
:10B22000011F0A4492B2D0E7BDE8F081A9150020C1
:10B2300070B51E481E4E18220021FDF7DBF80025D0
:10B240000124306800F00F01012204FA01F120F01E
:10B250000F0009F04DFF56F8043B013523F00F02B3
:10B2600003F00F0304FA03F3EDB29BB2032D138333
:10B27000E7D1104D286800F00F0104FA01F1012216
:10B2800020F00F0009F034FF2B6823F00F0203F0C9
:10B290000F039C40A4B21483074C012220212046B6
:10B2A00009F026FF2023638370BD00BFEC48002017
:10B2B000AC0C0020A80C00200008024008B505F0E6
:10B2C000B5FC18B9BDE8084005F0AABD08BD05F0F9
:10B2D0009DBC08B505F01EFEBDE8084005F020BE87
:10B2E00008B505F0A3FC003818BF012008BD000018
:10B2F00010B5074C08221821204603F024FE2378BD
:10B30000032B03D8BDE8104004F042BC10BD00BFC1
:10B3100038490020044B054A1B78527C134314BF64
:10B3200001200020704700BFFC150020EC480020E1
:10B3300008B5084B00225A74FFF7DAFFFFF7D0FF79
:10B3400018B1BDE80840FFF7B9BFBDE8084005F0F7
:10B350005DBC00BFEC48002038B5144CF8B101F0DA
:10B3600075F82368834203D9114A1278A2B9206084
:10B37000236823B1C01A47F2305398420BD90C4DC1
:10B380002B7843B906F0ACFF0A4B186001F05EF869
:10B39000012320602B7038BD03442360E8E7044B91
:10B3A00020601870044B20225A83F4E7F81500201F
:10B3B000FC150020001600200008024070B51C4C4F
:10B3C000237843B303F00F03052B08D9194B202230
:10B3D0005A8300232370BDE8704000F02FBC164E46
:10B3E000306806F0BFFFB0F57A7F23781AD913F0E2
:10B3F000800F104D10D003F07F0301332370202302
:10B400006B8306F06DFF2378306003F00F03052B8C
:10B4100001D920236B8370BD63F07F032370202349
:10B420002B83EEE703F00F03052BF4D9CEE700BF23
:10B43000FC150020000802400016002010B500F0A6
:10B4400091FB012803D1084B1B78052B0BD006F08C
:10B4500035FDC30707D5FF23BDE810401A4619463E
:10B46000242004F0C7BB10BD844C002070B500F050
:10B4700079FB10F0060F58D000F054FE044630B1AE
:10B4800000221146104604F0BFFB012070BD00F001
:10B490003FFE20B122462146204604F0B5FB00F0D5
:10B4A00011FF08B100F016FF214D6A7C002A3CD044
:10B4B0002B7C02F00F047BB100221146104604F0F1
:10B4C000A3FB6B7C03F010021B0625D5CAB1002339
:10B4D000FF22194617201AE0164E3178A142F0D00B
:10B4E00012F0100206D01A461946172004F082FB0B
:10B4F0003470E6E710482044134610F8010C11465A
:10B50000F4E70D48FF232044114610F8010C04F025
:10B5100071FB04F07EFCB8E712B100231A46D8E7AD
:10B520000548134620441146EFE7FFF787FFF0E791
:10B53000EC480020A70C0020846701082DE9F041A9
:10B540000378594A594C052B18BF13701278637C45
:10B55000042A04D8DFE802F0120308496100544BC2
:10B5600000221A8001250AE043B16269002AF9D15C
:10B5700063F07F036374E36803B163610025607C5B
:10B58000002877D000F00F02013AC106D2B25DD593
:10B59000002A484B4FF0010C18BF002303EB820731
:10B5A00000264FF0010EF1B28A420AD04BB1396841
:10B5B00021F00F0801F00F010EFA01F189B2A8F88D
:10B5C00018100136F1B26145EDD3020645D5002DC4
:10B5D00067D143B13A68012322F00F0102F00F0254
:10B5E00093409BB24B83BDE8F081002BC6D06169CC
:10B5F000A288E06861B943F0800363742C4B1A8021
:10B6000008B18142AED8002AACD00A446261B5E7E5
:10B61000821A03F01F0392B2EFE7002BAED0180698
:10B620004CBF03F01F0363F07F03214A4BBF6374D9
:10B6300063742389A3881380E26812B161698A4226
:10B6400090D3002B8ED062691A44DFE74FF0030CD1
:10B650006245194B28BF0023A0E743B13A68012394
:10B6600022F00F0102F00F0293409BB20B83002DDA
:10B67000B9D000E05DB100F01F006074FFF7F6FE86
:10B680000023637400F0DAFA637C002BABD1FFF780
:10B690002FFE05F0CBFA0028A5D1BDE8F04105F05A
:10B6A000B5BA002BDAD1E6E708160020EC480020F6
:10B6B0000A160020A80C0020AC0C00202DE9F04157
:10B6C00005460C4600F04EFA012811D0644B182CA8
:10B6D0001A7808BF1124A2420CD0022D0AD01C7087
:10B6E000012260490B78AB4206D12AB9052D07D05B
:10B6F000BDE8F0810022F4E7062B01D1022DF7D03E
:10B70000594F0D703B7006F0EBFD584B1860FFF77A
:10B71000D5FD05F005FCAB1E042B29D8DFE803F0AE
:10B72000033554666E00E20604F00F034CBF504A26
:10B73000504A514EDFF85881013B444652F82320CD
:10B74000012322F00F0102F00F0293409BB20B8302
:10B750000FCE0FC496E8030084E803004046FFF7CD
:10B76000EDFE00F0DFFC30B14FF47A70FFF7B1FD71
:10B77000424B1D70BCE73B78032BF5D0D8F80C305A
:10B78000002B38D049F640401AE03C4BDFF80081EE
:10B790001B78032B0CD03A4F0FCF46460FC697E8C5
:10B7A000030086E80300404688F81140FFF7C6FE14
:10B7B000D8F80C30FBB1334A10884FF47A725043FA
:10B7C000984238BF1846D1E7DFF8C4802E4F46466E
:10B7D0000FCF0FC697E8030064F07F0486E80300EC
:10B7E000404688F81140FFF7A9FEC7E7DFF8A080C0
:10B7F000264F4646ECE74FF0FF30B7E71E4E244C8D
:10B800000FCE0FC496E8030084E80300A4F11000F3
:10B81000FFF794FE01F022F9F0B140F6B830FFF7DF
:10B8200058FD14480021012250F8043B013123F057
:10B830000F0403F00F0302FA03F3C9B29BB203290A
:10B840002383F1D10A4B1B6823F00F0103F00F0390
:10B850009A4092B20A838BE74FF47A70DFE700BF19
:10B86000F6150020F5150020F41500200416002020
:10B87000A80C0020AC0C0020886701080C160020E2
:10B88000B8670108720C0020D0670108A0670108A2
:10B89000EC48002010B500F0B1FD0A4B5B7C6BB1A9
:10B8A000094C206806F05EFD084B1B88984205D3C2
:10B8B0000748FFF743FE06F013FD2060BDE8104087
:10B8C000FFF77CBDEC480020041600200A1600207B
:10B8D0000816002008B500F045F9012803D1034BF4
:10B8E0001B78052B01D0FFF7A9FD08BD844C002073
:10B8F00008B506F0E3FAC04300F0010008BD0000FF
:10B9000038B5054601F062FD0446F0B1284601F065
:10B910005FFD05F08BF988B905F022FB0022114686
:10B92000104604F071F9FFF789FD094BDB68984771
:10B93000FFF7DEFF48B105F007FB06E005F076F9FA
:10B9400018B105F0F3FA0028E6D1204638BD00BF53
:10B95000F06E0108704708B500F040FEFEF754FE97
:10B96000FFF7F8FF00F0FEF8012801D100F000F920
:10B97000012008BD37B50446B8B11548154D06F08D
:10B9800089FAFEF793FC06F0ABFC0446204606F06D
:10B99000E9FC312806D900211E2003B0BDE8304063
:10B9A000FEF760BCAB6A9847F0E7FFF7C1FCFEF713
:10B9B0003FFE032809D1084B1B78022B05D1044B0D
:10B9C000CDE900445B686846984703B030BD00BFCE
:10B9D0005C0C0020780C00200D16002037B50446C2
:10B9E000B8B11548154D06F055FAFEF75FFC06F0A4
:10B9F00077FC0446204606F0B5FC312806D9002124
:10BA0000182003B0BDE83040FEF72CBCAB6A984765
:10BA1000F0E7FFF78DFCFEF70BFE032809D1084B7A
:10BA20001B78042B05D1044BCDE900445B686846C4
:10BA3000984703B030BD00BF5C0C0020780C00209C
:10BA40000D16002007B550B106F02AFA0A4B8342C2
:10BA50000FD0184603B05DF804EB06F01BBA074B95
:10BA60001B78042B05D1044BCDE900005B686846C8
:10BA7000984703B05DF804FB3C0F0020844C002085
:10BA80002DE9F843344D2B788342044662D0012BD4
:10BA900042D101F0DDFF022C2C7042D0042C4FD09B
:10BAA000012C10D12046FFF7CDFF0020FFF762FFE9
:10BAB0004FF4FA7007F0C7FE0020FFF78FFFFEF784
:10BAC000F5FB00F0D5F8FFF7B3FB302383F31188C3
:10BAD00007F0F9FF0023054683F31188DFF8808023
:10BAE0001E4E4FF47A79002707F0EDFF4446401BC5
:10BAF0000021E0FB094132463B462046FCF72CFB87
:10BB00006328F1D905F050F84FF0FF3005F002FA44
:10BB1000BDE8F84305F004BAFEF78AFD0328BAD160
:10BB2000B7E70020FFF75AFF642007F08CFE0120E2
:10BB3000FFF720FF0020FFF785FF00F07FF8C2E746
:10BB40000020FFF717FF642007F07DFE0120FFF7BC
:10BB500045FFEFE7BDE8F8830D160020A086010041
:10BB60009F860100014B1878704700BF0D1600201A
:10BB700038B51F4C2378052B39D11E4D2378052B62
:10BB800007D002F0FBFB05F0D1FFBDE8384006F01E
:10BB90006FBE00F023FD2B78012B03D0BDE83840A9
:10BBA00001F0F5BB06F067FB06F04CFB0028E5D082
:10BBB0000F4808F0ABFA47F2305007F044FECF20B0
:10BBC00005F0C8FE05F0B2FF4FF47A7007F03BFEB7
:10BBD000D02005F0BFFE05F0A9FF4FF47A7007F002
:10BBE00032FED02005F016FF05F0A0FFC6E738BDF5
:10BBF000844C00200D16002070B50F4D1424012632
:10BC000055F8040B431C12D000F00F01012206FA74
:10BC100001F120F00F0009F06BFA55F8043C23F015
:10BC20000F0203F00F0306FA03F39BB25383013CA8
:10BC300014F0FF04E4D170BDB80C002008B5044B2B
:10BC400000221A7006F04CFB024B186008BD00BFC2
:10BC5000281600202C16002008B5044820220121B7
:10BC600009F046FABDE80840FFF7E8BF00040240CB
:10BC7000024A00231370024A1360704728160020FE
:10BC80002C160020024B1869C04300F001007047D9
:10BC90000004024001282DE9F04104466BD82046FB
:10BCA00000F05EF90646002869D0374808F0A3F98D
:10BCB000302585F3118835480222012109F084FAE4
:10BCC000002484F3118885F311883048032221462B
:10BCD00009F07AFA84F3118885F311882C4803223D
:10BCE000092109F071FA84F3118885F31188284835
:10BCF00003220A2109F068FA84F31188254FA0462F
:10BD000057F8043B01330CD085F3118857F8040C25
:10BD1000032200F00F0120F00F0009F055FA88F31C
:10BD200011880134E4B2062CEAD1FFF765FF184808
:10BD30004022202109F0DCF940221146144809F084
:10BD4000D7F913484022802109F0D2F91048402247
:10BD50004FF4805109F0CCF90D4840224FF40061B6
:10BD600009F0C6F9094840224FF4805109F0C0F9A2
:10BD700000F060F904E0FFF785FF00288FD000266F
:10BD80003046BDE8F08100BF844C00200004024032
:10BD900000000240080D0020F8B5684C26784EB926
:10BDA000674D286806F0DEFAB0F57A7F82BF01237E
:10BDB00023702E60FFF766FF40B1624D2B78012B98
:10BDC00004D106F043FD284606F0AEFDFFF7CAFE9B
:10BDD000022840F0A2802378002B00F0A380FFF718
:10BDE00099FA002840F09E8001F05AF8002800F0EF
:10BDF000998004F01BFF002840F095805249534879
:10BE00001822FCF7C7FA002840F08C800220FFF7C8
:10BE100041FF002800F08680022000F0D1F84C4855
:10BE200040F21A524FF4006109F062F9484840F2BA
:10BE30001A524FF4805109F05BF9454840F28222D2
:10BE4000202109F055F9424840F28222402109F0B0
:10BE50004FF93F4840F28222802109F049F907F06A
:10BE60001DFE05F0DFFB3B4B1B680BB10120984723
:10BE700000F0D8F80024384D3026274655F8043B0A
:10BE800001330BD086F3118855F8040C00F00F0134
:10BE900020F00F0009F0CAF987F311880134E4B2E9
:10BEA000062CEBD1302585F311882C48012109F0AF
:10BEB000BDF9002484F3118885F3118824480921F1
:10BEC00009F0B4F984F3118885F3118820480A2118
:10BED00009F0ACF984F3118885F311881F482146D5
:10BEE00009F0A4F984F31188FFF7CCFE20B106F025
:10BEF000ADFC144806F018FD02F06EFF02F0E6FEFD
:10BF000003F0D0FD012005F06FFBFFF797FEFEF771
:10BF1000B3FB002000F024F804E0FFF723FE042820
:10BF20003FF459AFF8BD04F081FE0028FAD005F0C7
:10BF300023F800287FF462AFF4E700BF2816002042
:10BF40002C160020844C00201016002020490020D0
:10BF500000000240780C0020080D00200004024080
:10BF60000228144903460BD003281AD0012815D102
:10BF70000A78EAB91048026922F0040202610DE071
:10BF80000A78AAB90C48026942F0040202610B481F
:10BF9000026842F4606242F00102026001200B700C
:10BFA00070470A7822B90448026942F00402E5E7C2
:10BFB0000020F4E73016002000ED00E000700040A3
:10BFC00038B5144B9A6822F003029A609A6812F00E
:10BFD0000C0FFBD11A6822F480321A600D4A1368E4
:10BFE0009B03FCD40C484022012109F081F80A4847
:10BFF0004022022109F07CF830BF084A084C13693E
:10C00000102523F004031361658308F083FC258366
:10C0100038BD00BF00380240001C024000ED00E0C7
:10C0200000000240024820224FF4005109F060B89D
:10C0300000040240704702210520FEF751BE0000B7
:10C0400010B540B340F2234303FB01F440F2F31375
:10C05000B4FBF3F4A4B204F0E9FDC8B10022124924
:10C060001346013211F8010BD2B2C02A0344F8D1B1
:10C070000E490022013211F8010FD2B2C02A034446
:10C08000F8D13C2253430A4AB3FBF2F323449CB257
:10C09000084B1C8010BD40F6E44303FB01F4A40AE6
:10C0A00014235C430A23D3E7D9490020984A00208F
:10C0B000BC420100200D0020144B1B8841F20402F9
:10C0C00093421FD840F6AC5293420CD950225343AE
:10C0D000A3F58823A3F5B8634FF41672B3FBF2F00F
:10C0E0001430C0B2704740F6E44293420CD9142297
:10C0F00002FB03F0A0F58030A0F5E870C823B0FB88
:10C10000F3F0EEE76420704700207047200D002018
:10C11000034B18780A2894BF00200120704700BF05
:10C1200033160020034B1878142894BF00200120F8
:10C13000704700BF3216002008B50B4B1A8840F636
:10C14000AB539A420ED8094A13780A2B0AD8013306
:10C15000DBB20B2B137005D10120FFF7FDF8044B68
:10C160000F221A7008BD00BF200D002033160020DA
:10C17000311600200A490B4A0888137840F6E3413B
:10C18000884208D8142B0AD80133DBB2152B137060
:10C1900005D1FEF7F1B8142B9CBF00231370704734
:10C1A000200D00203216002070B52A4E306800F0B5
:10C1B0005BF90446FFF7D6FC10F0060F38D0FEF707
:10C1C00037FA0328244D02D02B780E2B30D8FFF7F6
:10C1D00059FD58B140F6B8339C4207D91F4B1B6933
:10C1E0009B0454BF01200220FEF796FD2B780E2BF6
:10C1F00012D8FFF775F878B9C82C19D9FFF79CFF4A
:10C20000FFF7B8FF00F022F9154B984208D9002338
:10C21000336000F00BF904E040F6B8339C42ECE7E1
:10C220003060FFF708FF2B780E2B9CBF01332B707B
:10C230000C4D0D4C2B782278134309D0FFF722FDCB
:10C2400030B1002028702070BDE87040FFF784B83E
:10C2500070BD00BF341600203116002000040240DB
:10C26000005C2605331600203216002010B5044667
:10C27000FFF724F80B4B01221A700B4B1C7006F0D1
:10C280002FF80A4B18600A4B00221A70094B9622AD
:10C290001A60094AFF231370084A1370084A137082
:10C2A00010BD00BF48160020411600204416002093
:10C2B000401600203C1600203816002039160020B9
:10C2C0003A160020024B1878003818BF012070473A
:10C2D000481600202DE9FF4117490A2201A8FCF762
:10C2E00023FA0024002320461A461946013403F09D
:10C2F00081FC6D2CF6D1114B1B7803F0FD03012B53
:10C300000CD10F4E0F4FDFF8448001AC00250A22FC
:10C310003378B3FBF2F3EAB2934202D804B0BDE83B
:10C32000F08109493B7898F80020097814F8010B4E
:10C3300003F060FC0135EAE7E867010848160020D1
:10C3400040160020381600203A160020391600202A
:10C3500010B5214A1378022B16D0032B2CD0012BB9
:10C3600007D11E491E480B780078984206D90A3337
:10C370000B7005F0B5FF1B4B186010BD0BB90A23FD
:10C380000B7002231370F4E7154B17491B78174CF9
:10C390001D2B174B0AD8FF2008700021197021703F
:10C3A000144B40F6B83119600323EBE70020087006
:10C3B000FF2120701970F3E700231370FEF798FF38
:10C3C0000D4B5B7C23B904F031FC08B9FEF77FFF0D
:10C3D000FFF734FCCDE700BF4816002040160020D0
:10C3E00041160020441600203A160020381600207E
:10C3F000391600203C160020EC48002008B5084BF8
:10C400001B785BB1074B186805F0ACFF064B1B6847
:10C41000984203D9BDE80840FFF79ABF08BD00BFA6
:10C4200048160020441600203C16002007B50023C3
:10C4300004486946CDE9003307F03EFD03B05DF8DE
:10C4400004FB00BFE44C0020FFF7F0BF07B5054830
:10C45000694607F033FD019820F0784003B05DF89D
:10C4600004FB00BFE44C002010B50446FFF7EEFFCC
:10C47000001B10BD38B547F60E63984204460D46C2
:10C4800031D006D8A0F5FC430B3B022B13D9012079
:10C4900038BD47F60F639842F9D1FFF763FB10F000
:10C4A000060FF4D0FFF7EEFB0028F0D1FFF704FEF3
:10C4B000FFF7DCFEEBE7FFF755FB0228E7D16B79CE
:10C4C0005BB1104D0A3C2C7005F00AFF0E4B0021A9
:10C4D00018602878FDF7C6FED9E70A4A00231370D2
:10C4E000094A1360D3E7FFF73DFB0428CFD16B79EE
:10C4F000002BF2D0034B18221A7005F0F1FE024B0C
:10C500001860C4E750160020541600207FB51B4861
:10C51000FEF734FC4FF4967007F095F900211122D4
:10C520000DF10500FBF766FF154A02238DF8003078
:10C53000138812788DF801201B0A8DF802306FF0F5
:10C540004B038DF8033000238DF804300523ADF83C
:10C5500006305A238DF8083001238DF80B3043F252
:10C560003443ADF80C3068464FF42A63ADF80E3012
:10C57000FEF7EAFB07B05DF804FB00BFF3670108B4
:10C58000700C0020FFF7C2BF10B5094C237873B1BF
:10C5900005F0A6FEB0F57A7F09D2FFF7B7FFFFF7E7
:10C5A000E1FA022801D1FDF7B5FD0023237010BD8B
:10C5B000220D002010B5084C206858B105F0D2FEBD
:10C5C000B0F5FA6F06D9002121600846BDE8104099
:10C5D000FDF788BD10BD00BF5416002038B5284CAB
:10C5E0002368C3B9274A136911695B0AC1F3402163
:10C5F00003F002030B432449087883420BD01369EC
:10C6000012695B0AC2F3402203F0020313430B706A
:10C6100005F066FE2060206818B9FFF7A3FA20B184
:10C6200038BD05F09FFE6428F7D9164A16481369ED
:10C63000116905785B0A03F00203C1F340210B4343
:10C64000AB4210D10022022B226008D0032B08D06D
:10C65000012BE5D10220BDE83840FFF711BA0420D4
:10C66000F9E70120F7E7136912695B0AC2F3402278
:10C6700003F002031343037005F032FE2060CFE79E
:10C680004C1600200000024049160020012070478F
:10C6900038B504460D46FDF7D1FF08B9002038BD76
:10C6A0002946204600F024F90028F7D029462046E4
:10C6B000FFF7ECFFF3E708B5FEF7D8FE00F0A0F9AE
:10C6C000012008BD08B5FFF746F900F0CFF900F0EA
:10C6D00079F800F081FB08BD38B504460D4600F03E
:10C6E0005DFC28B129462046BDE83840FFF7D0BFA1
:10C6F00038BD10B503F08DFB044608B1FFF7DBFF32
:10C70000204610BDFFF7DEBFA0F5FC4370B50A2B35
:10C710004DD8DFE803F013131313060C2A2A2A2A34
:10C7200017004B79C1202BB100F0C8FE04E04B7913
:10C73000C220F8E700F00AFF002070BD1D4BC05C6E
:10C740004B79F0E74B79002BF6D01B4B1A783AB9AE
:10C750000122E3201A7000F0B1FE2C2000F0AEFEA2
:10C7600005F0BEFD154B1860E6E74D79144CA0F5B9
:10C77000FC400638ADB914F8206004EB8004EBB23D
:10C780009E42D9D923440135587800F0DFFEF6E700
:10C7900023440135587800F091FEEBB29E42F7D861
:10C7A000CAE714F82060002504EB8004F5E70120B7
:10C7B000C3E700BF9EEA00085C1600205816002060
:10C7C0008E68010838B50A4D2B787BB1094C20687A
:10C7D00005F0C8FDB0F5FA7F08D9E32000F0B6FEF9
:10C7E0002C2000F0B3FE00232B70236038BD00BF67
:10C7F0005C16002058160020014638B50446762302
:10C8000001F8013B2E2510220120FBF7DDFCE11C85
:10C81000A57010220020FBF7D7FC611D25711022A6
:10C820000020FBF7D1FC2023A371E01D0249BDE8E5
:10C8300038401422FBF778BF0468010838B5037844
:10C84000A03B04460D460B2B43D8DFE803F006104F
:10C8500014194242421F42423B3F022300224370CE
:10C860008270C3702946204606F0BCF82CE00130E7
:10C87000FFF7C2FFF6E70023437007238370F1E759
:10C88000154B188800F08DFD6070EBE74378022BA4
:10C8900015D006D8012B0AD0FF2323700023637024
:10C8A000E0E7033B012BF7D800F046FADAE7002374
:10C8B0008370022203711323C2704371D2E700F028
:10C8C00027FACFE7FEF768FC012038BD00F05CF9DD
:10C8D000FAE70020F9E700BFD8160020FFF7AEBF47
:10C8E00008B505F0FDFC014B186008BD6816002076
:10C8F0004A2810B56AD005D80D2826D01D2840D06A
:10C90000012010BD20F0020345F2212293420ED0F7
:10C910004F28F5D14A79002A50D0354A1378002B98
:10C9200042D00133DBB2042B88BF012305E0314A3A
:10C930004979137819B143F001031370E0E723F04C
:10C94000010313702C4B1960DAE72A4C4A792378DB
:10C950005AB143F00203072B237001D1FFF7C0FF48
:10C960002078C04300F00100CBE723F002032370DE
:10C97000214B1A60214A13789807C1D523F002038E
:10C98000DBE71C4C4A79237812B143F00403E2E759
:10C9900023F004032370184B1A60184A13785907C0
:10C9A000AED523F00403C8E7124A137843F0080316
:10C9B000192B1370A4D1FFF793FFA1E70D490B7852
:10C9C00023F008030B700C4B1A6099E74A7952B1B7
:10C9D000074B1A7812B100221A7091E7054A1378B2
:10C9E00043F01003E4E703490B7823F01003E9E771
:10C9F0006416002065160020681600205D160020D1
:10CA000008B5144B1878144B50B100F00100002207
:10CA100001381A701146C0B203F0F6F8002008BDC4
:10CA20001B78ABB1013B032BF8D8DFE803F002061B
:10CA30000A0DFF2211461046EEE700221146FF20A4
:10CA4000EAE70022FF21F6E70021FF220846E3E79C
:10CA50000120E4E75F16002064160020024B1868EE
:10CA6000003818BF012070476016002070B52B4DAC
:10CA70002B4C286888B305F075FC40F6B833984213
:10CA80002BD900262E60274D2B78072B36D105F0A9
:10CA900027FC254A2060137801331370234B1E7046
:10CAA00000F0D6FF224B1E8801F064FD01F000FD6E
:10CAB000204B1880304601F01AF804F0B7F808B996
:10CAC00004F0C8F904F070F841F2883006F0BBFEBB
:10CAD0000220FEF771F900232B70206860B105F089
:10CAE00041FCFA2808D9104B1A78511C062A1970F3
:10CAF0000FD900221A702260012070BD192BEAD1D3
:10CB000004F094F808B904F0A5F90B4B01221A704F
:10CB1000E1E705F0E5FB2060EEE700BF68160020C6
:10CB200060160020651600205F1600205D160020AC
:10CB3000D8160020064900206416002030B589B0C0
:10CB400004460D46202200216846FBF753FCAB2328
:10CB50002A4621460DF101008DF80030FBF7E4FD77
:10CB600069460122002311F8010F0132D2B20344B9
:10CB70001D2A9BB2F7D120216846ADF81E3005F082
:10CB800031FF09B030BD000010B50378AB2B88B081
:10CB900022D1024600F11C01002312F8014F234468
:10CBA0008A429BB2F9D1817FDAB2914214D1C27F1D
:10CBB000B2EB132F10D14378013B082B0CD8DFE8E0
:10CBC00003F0050D0B142A0B3C4468003D4B8278A2
:10CBD0001A703D4B00221A6008B010BD83783B4AA2
:10CBE000003B18BF01231370F6E78378A12B07D011
:10CBF000A22BF1D1C178364B102251B11A83EBE749
:10CC0000C078003818BF012008B0BDE81040FEF71A
:10CC1000F3B85A83E0E705238DF80030FEF7A2FF52
:10CC20002C4B8DF801001B6903F001038DF80230D5
:10CC300003216846FFF782FFCEE780784E28CBD8E5
:10CC400008B0BDE81040FEF7EFB847F208631022C5
:10CC50000DF102010120ADF800302E24FBF7B4FAEB
:10CC6000102201A900208DF80340FBF7ADFA102235
:10CC70000DF1060100208DF80540FBF7A5FA1649D5
:10CC80002023142202A88DF80730FBF74DFD1C214C
:10CC9000CFE740F609431149ADF8003004220DF109
:10CCA0000200FBF741FD0E4904220DF10600FBF7DF
:10CCB0003BFD0C4904220DF10A00FBF735FD0E2166
:10CCC000B7E700BF64160020681600205E1600203B
:10CCD000000002400004024004680108107AFF1FAF
:10CCE000207AFF1F307AFF1F084B1B7807B54BB126
:10CCF0004FF481738DF8061001A80321ADF80430BC
:10CD0000FFF71CFF012003B05DF804FB5E16002056
:10CD100038B509220023012504468370C5700271CD
:10CD200004490530FBF700FD0223A373E573257466
:10CD300038BD00BF1868010838B54378032B044696
:10CD400004D0042B0DD0FF23037007E0094D01220E
:10CD50002521284602F0F7F82B78E3700023A37012
:10CD600038BD0448A37803700122252102F0A3F8FE
:10CD7000F4E700BF6C16002038B50D46044628B90C
:10CD800000290CBF0420012000F0B1FE29462046F6
:10CD9000FFF7AAFF012038BD10B50D4C0022204638
:10CDA0004FF4007108F0A4F900224FF4806120468E
:10CDB00008F09EF90020FDF73FFDFDF77FF905F033
:10CDC0008FFA044BBDE81040186001F007BC00BFAB
:10CDD000000002407016002038B52D4D286858B369
:10CDE00005F0C0FA40F6B83398422A4C26D9002301
:10CDF0002B6005F063F883075CBF4FF40073638317
:10CE00002548202363830021012250F8043B01318F
:10CE100023F00F0403F00F0302FA03F3C9B29BB22D
:10CE200003292383F1D11D4B1B6823F00F0103F06D
:10CE30000F039A4092B20A83012038BD4FF4007369
:10CE4000238320232383FEF78DFE042810D012496C
:10CE50000022012451F8043B013223F00F0003F0BB
:10CE60000F0304FA03F3D2B29BB2032A4383F1D136
:10CE7000FEF778FE0228DFD0084B1A68012322F063
:10CE80000F0102F00F0293409BB24B83D4E700BF27
:10CE90007016002000080240280D0020240D0020FC
:10CEA00008B5064B1B683BB9FFF7D8FD80F00100C1
:10CEB000C0B200F0010008BD0020FAE770160020A3
:10CEC000F8B52C4B1B78002B53D005F009FA2A4DEE
:10CED0002A4B95ED007A07EE900AF8EE677A77EE26
:10CEE000C77A93ED007AF4EEC77AF1EE10FA40DBE0
:10CEF000234E3378EBB12C2000F0E0FAFBF7AEF9CB
:10CF00001E23204F90FBF3F202FB13001E4B00F197
:10CF10003C04002140F2E7301C604FF47A72002399
:10CF2000C4FB0701FBF718F906F08DFC2C2000F07C
:10CF30000DFB164A9FED167A0023337013680133F8
:10CF400007EE903A1360F8EEE77A124B67EE877AB5
:10CF5000D3ED006A104BB1EE007A67EE877AF8EEF7
:10CF6000E66A87EEA67AD3ED007A77EE277AC5EDEA
:10CF7000007AF8BD9016002088160020F80E0020D8
:10CF800085160020A0860100F00E0020F40E00207F
:10CF900000606A47FC0E00208C1600202DE9F0414D
:10CFA00004460D46FFF7B0FB0646002800F0CB8094
:10CFB000522C11D84E2C07D8292C26D02C2C00F01E
:10CFC000A0803046BDE8F081503C6B79022C70D8CF
:10CFD000DFE804F0628A7D00E12CF2D1684C6D79C3
:10CFE0002378684FF5B1684DB3B1288805F0B3F9DF
:10CFF000B0F5C87F10D2654A00232370137883F000
:10D000000103137001233B70DBE76B79002BD8D051
:10D010005E4B00221A70D4E70123237005F096F9C5
:10D020002880EFE73D703BB1574B188805F093F926
:10D03000B0F5C87F28BF2570554D2B78002BC0D088
:10D0400001F0B8F80446222001F0C8F8DFF8588152
:10D05000504BD8F800201B684F4FDFED506A0A2173
:10D0600001FB02333A68134407EE903AF8EEE77A90
:10D070004B4A86EEA77A13604A4B2046F1EE007ABF
:10D0800067EE277AC3ED007A01F0B8F80023C8F8FC
:10D0900000303B602B7094E7002B92D0394B1B780B
:10D0A000002B8ED03A4B01221A703F4A1368013B85
:10D0B0000BE0002B85D0334B1B78002B81D0344BF9
:10D0C00001221A70384A13680133136079E7002B84
:10D0D0003FF477AF2B4B1B78002B3FF472AF2C4BF8
:10D0E00001221A702C4AEEE7002B3FF46AAF254B61
:10D0F0001B78002B3FF465AF254B01221A70264A9E
:10D10000D4E76B79002B3FF45CAF204B274C1B78A6
:10D11000DBB105F0E5F807EE900A94ED007A214BBB
:10D12000DFED236AF8EE677A77EEC77A93ED007A3F
:10D1300037EE667AF4EEC77AF1EE10FA7FF741AF78
:10D140001C4B01221A7000263BE705F0C9F807EED8
:10D15000900A194B9FED196AF8EE677A0122C3ED28
:10D16000007A174B1A600E4BD3ED006AF8EEE66AB0
:10D1700086EE267A77EE277AC4ED007A21E700BFA3
:10D1800078160020841600207616002090160020C5
:10D1900074160020000F00207C16002000606A47F3
:10D1A000FC0E0020F80E00208016002088160020BB
:10D1B00000004843851600208C16002000606A4855
:10D1C000F40E002003280DD805290BD8132A09D8FE
:10D1D00078235843142303FB01010A44024B33F81C
:10D1E0001200704701207047526A0108FFF7EABF3A
:10D1F0000120704708B5FFF7FBFF08BD012070470D
:10D20000704708B5FFF7FCFF08BD000013B502AB7F
:10D2100003E903000F4B1B78B3B99DF8053073B1D8
:10D220006AB100F031FD04460146009800F0FAFCB6
:10D230000099204602B0BDE8104001F059BB0098AB
:10D2400000F00AFD0446F3E7009800F01DFD009988
:10D25000F0E700BF98160020034610B400885C88F1
:10D260000A4640EA044099885DF8044BFFF7CEBFB8
:10D2700010B501210446FFF7EFFF2146FFF7BAFF83
:10D2800010BD10B500210446FFF7E6FF2146FFF769
:10D29000B8FF10BD0120704708B5FFF7FBFF08BDC0
:10D2A00010B5044600F0D4FB2046FFF7F5FFBDE8BB
:10D2B000104046F2A81006F0C6BA08B50120FFF7E4
:10D2C000EFFFBDE8084005F07FB808B50020FFF784
:10D2D000E7FFBDE8084005F07CB838B501210546F8
:10D2E000FFF7BAFF29460446FFF7F6F9B0B329461F
:10D2F000204604F081FD88B32946204604F0C6F993
:10D3000060B32946204604F09BF938B329462046ED
:10D3100004F0CCF810B36B797BB147F65A439C42CA
:10D3200023D00ED847F601439C421BD047F6034357
:10D330009C4215D0B4F5F84F0ED02846FFF75EFF9B
:10D340000DE047F65B439C4212D047F65C439C429B
:10D35000F3D101F081F8F0E7FFF7AFFF002038BD0F
:10D3600001F08CF8FFF7B1FFF8E701F081F8E4E78E
:10D3700001F081F8E1E708B504F05BFF03F02AFE55
:10D3800000F048F8BDE80840012003F0B7BE08B53A
:10D3900000F045F8002003F0B1FEBDE8084004F0BD
:10D3A0004DBF030A0ABF0346082000201A091EBF0A
:10D3B00004301346C0B29A081EBF02301346C0B2F2
:10D3C0005B081CBF0130C0B2704770470120704736
:10D3D000044B10F0020F4FF4007214BF1A835A83EB
:10D3E000704700BF0008024010B5054C01224FF401
:10D3F0000071204607F07CFE4FF40073638310BD7C
:10D400000008024010B50446FFF7DFFF2046FEF794
:10D4100077FA10BD08B50020FFF7F4FF08BD08B586
:10D4200004F044FDFFF7EEFF08BD000010B504F066
:10D430003DFD074B1A788242044607D0187004F06D
:10D440004FFF044B18602046FFF7DCFF10BD00BF04
:10D4500091160020941600201FB56C4684E8030046
:10D460009DF805300BB100F003FF0023ADF80E303E
:10D4700094E80300ADF80C10C9B2029002AC29B9CF
:10D4800094E8030000F0FEFD04B010BD2046FFF755
:10D49000EFFE0028F4D1F7E70379012B02D10088D1
:10D4A00000F014BC704708B529B104F053FABDE888
:10D4B000084004F03BBB04F0ADFAF8E710B50446B1
:10D4C000002840D0031FDBB2A02B0ED804F052FD81
:10D4D00020B1204604F010FE00F050FF204604F07A
:10D4E000F3FDBDE8104000F049BF00F12003DBB2BE
:10D4F000072B07D800F007040120A040C0B200F0BD
:10D500005FFEEEE700F15B03DBB2022B05D82438A7
:10D51000BDE8104080B204F0F1BC00F15803DBB26A
:10D520001A2B06D8084ABDE8104032F8130004F060
:10D53000FDBC3334E4B2122C05D804F00BFABDE87C
:10D54000104004F0F3BA10BD126E010808B503468E
:10D55000A0B3021FD2B2A02A05D804F0CDFDBDE8C9
:10D56000084000F00BBF00F12002D2B2072A07D812
:10D5700000F0070301209840C0B200F02FFEEEE754
:10D5800000F15B02D2B2022A04D8BDE808400020B4
:10D5900004F0B4BC00F15802D2B21A2A04D8BDE893
:10D5A0000840002004F0C2BC3333DBB2122B05D894
:10D5B00004F030FABDE8084004F0B8BA08BD38B548
:10D5C00005460C46FFF77AFF1CB92846FFF7BEFF59
:10D5D00038BD6420013C06F036F9A4B2F4E708B582
:10D5E00039280CBF50210021FFF7E9FF08BD08B51D
:10D5F00028B100F0E5FDBDE8084000F0BFBE08BD61
:10D6000008B528B100F0EAFDBDE8084000F0B6BE5C
:10D6100008BD00002DE9F8438779457980460C461E
:10D6200000F0A0FD3F09064608B32E46FDB1C4F345
:10D63000072303F0F002402A0CD0E1B201F12002EE
:10D64000D2B2072A25D903F0E003202B02D1012909
:10D650001FD907B3A54B5E7816F0040607D0022049
:10D6600000F0CAFE00F07EFD80F00106F6B2C4F3C1
:10D6700003330B2B3DD8DFE813F0100010005400EB
:10D680005400AE00C5003C003C00CA002D01420120
:10D6900042010026EBE73E46E9E7C4F30723C4F363
:10D6A00003270F2B88BF3F01E4B285B157B104F1C6
:10D6B0002003DBB2072B384600D92CB900F080FDDF
:10D6C00000F05CFE20464CE000F0B4FDF8E7204698
:10D6D000FFF73CFF6FB104F12003DBB2072B3846A4
:10D6E00000D914B900F07AFD01E000F0B1FD00F0BE
:10D6F00045FE002E00F05F8100F02CFD10F00100CF
:10D7000040F0598188F8050000F01EFD00F022FA73
:10D71000404600F067F900F017FDBDE8F84300F05F
:10D7200025BAC4F3072303F0F003C4F30329202B25
:10D73000E4B218BF4FEA09192CB1012C34D0002DE6
:10D740003CD0DFB1BEE7694B5B78580714D45DB1BC
:10D75000B9F1000F04D0484600F032FD00F00EFE93
:10D760000020FFF7ABFEC4E72846FFF7EFFEB9F154
:10D77000000FBED04846B5E755B11FB94846FFF780
:10D7800036FFB6E7012FB4D1484600F09BFDB0E765
:10D79000002FAED14846FFF733FF484600F0A0FD0A
:10D7A000484600F07BFDA4E715B1052FA1D8E5E7B9
:10D7B000042F9ED84846FFF723FF9AE7002FF9D0A1
:10D7C000392C0CBF4FF4FA50012006F03CF82046EB
:10D7D000FFF7BCFE8DE714F4406FC4F3812307D03C
:10D7E000012B86D165B1C4F3090004F09FFB80E7EB
:10D7F00025B1C4F3090004F081FB7AE72846FAE773
:10D800002846F2E72946E0B2FFF74DFE71E714F42F
:10D81000407F2DD1F5B9C4F34213E1064FEA8303EB
:10D8200048BF0F25DBB248BF9D4004F00F0248BF40
:10D83000ED4302FA03F2C4F3812448BFADB292B2C1
:10D84000022C45EA02000DD0032C0ED0012C06D08C
:10D8500000F058F904F02AFBFFF7D4FD49E700F087
:10D8600049F9F7E700F056F9F4E700F040F9F1E77D
:10D87000C4F3012215B3D207ECD5C4F3421314F05C
:10D8800010004FEA8303DBB21CBF0F20984004F066
:10D890000F0202FA03F218BFC043C4F3812414BF7D
:10D8A00083B2034692B2022C43EA02000CD0032C4E
:10D8B0000DD0012C05D000F077F9CBE7012AC9D9AA
:10D8C000DBE700F069F9C5E700F076F9C2E700F0A0
:10D8D0002FF9BFE7E7B2C4F303244DB1204600F0AF
:10D8E00039F93846FFF783FEB4E700BF0649002048
:10D8F0003846FFF785FE204600F038F9AAE75FFAC0
